{
	"contracts/SimpleDex.sol": {
		"SimpleDEX": {
			"abi": [
				{
					"inputs": [
						{
							"internalType": "address",
							"name": "_tokenA",
							"type": "address"
						},
						{
							"internalType": "address",
							"name": "_tokenB",
							"type": "address"
						}
					],
					"stateMutability": "nonpayable",
					"type": "constructor"
				},
				{
					"inputs": [
						{
							"internalType": "address",
							"name": "owner",
							"type": "address"
						}
					],
					"name": "OwnableInvalidOwner",
					"type": "error"
				},
				{
					"inputs": [
						{
							"internalType": "address",
							"name": "account",
							"type": "address"
						}
					],
					"name": "OwnableUnauthorizedAccount",
					"type": "error"
				},
				{
					"anonymous": false,
					"inputs": [
						{
							"indexed": true,
							"internalType": "address",
							"name": "provider",
							"type": "address"
						},
						{
							"indexed": false,
							"internalType": "uint256",
							"name": "amountA",
							"type": "uint256"
						},
						{
							"indexed": false,
							"internalType": "uint256",
							"name": "amountB",
							"type": "uint256"
						}
					],
					"name": "LiquidityAdded",
					"type": "event"
				},
				{
					"anonymous": false,
					"inputs": [
						{
							"indexed": true,
							"internalType": "address",
							"name": "provider",
							"type": "address"
						},
						{
							"indexed": false,
							"internalType": "uint256",
							"name": "amountA",
							"type": "uint256"
						},
						{
							"indexed": false,
							"internalType": "uint256",
							"name": "amountB",
							"type": "uint256"
						}
					],
					"name": "LiquidityRemoved",
					"type": "event"
				},
				{
					"anonymous": false,
					"inputs": [
						{
							"indexed": true,
							"internalType": "address",
							"name": "previousOwner",
							"type": "address"
						},
						{
							"indexed": true,
							"internalType": "address",
							"name": "newOwner",
							"type": "address"
						}
					],
					"name": "OwnershipTransferred",
					"type": "event"
				},
				{
					"anonymous": false,
					"inputs": [
						{
							"indexed": true,
							"internalType": "address",
							"name": "user",
							"type": "address"
						},
						{
							"indexed": false,
							"internalType": "string",
							"name": "direction",
							"type": "string"
						},
						{
							"indexed": false,
							"internalType": "uint256",
							"name": "inputAmount",
							"type": "uint256"
						},
						{
							"indexed": false,
							"internalType": "uint256",
							"name": "outputAmount",
							"type": "uint256"
						}
					],
					"name": "Swapped",
					"type": "event"
				},
				{
					"inputs": [
						{
							"internalType": "uint256",
							"name": "_amountA",
							"type": "uint256"
						},
						{
							"internalType": "uint256",
							"name": "_amountB",
							"type": "uint256"
						}
					],
					"name": "addLiquidity",
					"outputs": [],
					"stateMutability": "nonpayable",
					"type": "function"
				},
				{
					"inputs": [],
					"name": "getPrice",
					"outputs": [
						{
							"internalType": "uint256",
							"name": "priceAperB",
							"type": "uint256"
						},
						{
							"internalType": "uint256",
							"name": "priceBperA",
							"type": "uint256"
						}
					],
					"stateMutability": "view",
					"type": "function"
				},
				{
					"inputs": [],
					"name": "owner",
					"outputs": [
						{
							"internalType": "address",
							"name": "",
							"type": "address"
						}
					],
					"stateMutability": "view",
					"type": "function"
				},
				{
					"inputs": [
						{
							"internalType": "uint256",
							"name": "_amountA",
							"type": "uint256"
						},
						{
							"internalType": "uint256",
							"name": "_amountB",
							"type": "uint256"
						}
					],
					"name": "removeLiquidity",
					"outputs": [],
					"stateMutability": "nonpayable",
					"type": "function"
				},
				{
					"inputs": [],
					"name": "renounceOwnership",
					"outputs": [],
					"stateMutability": "nonpayable",
					"type": "function"
				},
				{
					"inputs": [],
					"name": "reserveA",
					"outputs": [
						{
							"internalType": "uint256",
							"name": "",
							"type": "uint256"
						}
					],
					"stateMutability": "view",
					"type": "function"
				},
				{
					"inputs": [],
					"name": "reserveB",
					"outputs": [
						{
							"internalType": "uint256",
							"name": "",
							"type": "uint256"
						}
					],
					"stateMutability": "view",
					"type": "function"
				},
				{
					"inputs": [
						{
							"internalType": "uint256",
							"name": "_amountAIn",
							"type": "uint256"
						}
					],
					"name": "swapAforB",
					"outputs": [],
					"stateMutability": "nonpayable",
					"type": "function"
				},
				{
					"inputs": [
						{
							"internalType": "uint256",
							"name": "_amountBIn",
							"type": "uint256"
						}
					],
					"name": "swapBforA",
					"outputs": [],
					"stateMutability": "nonpayable",
					"type": "function"
				},
				{
					"inputs": [],
					"name": "tokenA",
					"outputs": [
						{
							"internalType": "contract IERC20",
							"name": "",
							"type": "address"
						}
					],
					"stateMutability": "view",
					"type": "function"
				},
				{
					"inputs": [],
					"name": "tokenB",
					"outputs": [
						{
							"internalType": "contract IERC20",
							"name": "",
							"type": "address"
						}
					],
					"stateMutability": "view",
					"type": "function"
				},
				{
					"inputs": [
						{
							"internalType": "address",
							"name": "newOwner",
							"type": "address"
						}
					],
					"name": "transferOwnership",
					"outputs": [],
					"stateMutability": "nonpayable",
					"type": "function"
				}
			],
			"devdoc": {
				"errors": {
					"OwnableInvalidOwner(address)": [
						{
							"details": "The owner is not a valid owner account. (eg. `address(0)`)"
						}
					],
					"OwnableUnauthorizedAccount(address)": [
						{
							"details": "The caller account is not authorized to perform an operation."
						}
					]
				},
				"kind": "dev",
				"methods": {
					"owner()": {
						"details": "Returns the address of the current owner."
					},
					"renounceOwnership()": {
						"details": "Leaves the contract without owner. It will not be possible to call `onlyOwner` functions. Can only be called by the current owner. NOTE: Renouncing ownership will leave the contract without an owner, thereby disabling any functionality that is only available to the owner."
					},
					"transferOwnership(address)": {
						"details": "Transfers ownership of the contract to a new account (`newOwner`). Can only be called by the current owner."
					}
				},
				"version": 1
			},
			"evm": {
				"assembly": "    /* \"contracts/SimpleDex.sol\":174:3749  contract SimpleDEX is Ownable {... */\n  mstore(0x40, 0x80)\n    /* \"contracts/SimpleDex.sol\":717:952  constructor(address _tokenA, address _tokenB) Ownable(msg.sender) {... */\n  callvalue\n  dup1\n  iszero\n  tag_1\n  jumpi\n  0x00\n  dup1\n  revert\ntag_1:\n  pop\n  mload(0x40)\n  sub(codesize, bytecodeSize)\n  dup1\n  bytecodeSize\n  dup4\n  codecopy\n  dup2\n  dup2\n  add\n  0x40\n  mstore\n  dup2\n  add\n  swap1\n  tag_2\n  swap2\n  swap1\n  tag_3\n  jump\t// in\ntag_2:\n    /* \"contracts/SimpleDex.sol\":771:781  msg.sender */\n  caller\n    /* \"@openzeppelin/contracts/access/Ownable.sol\":1297:1298  0 */\n  0x00\n    /* \"@openzeppelin/contracts/access/Ownable.sol\":1273:1299  initialOwner == address(0) */\n  0xffffffffffffffffffffffffffffffffffffffff\n  and\n    /* \"@openzeppelin/contracts/access/Ownable.sol\":1273:1285  initialOwner */\n  dup2\n    /* \"@openzeppelin/contracts/access/Ownable.sol\":1273:1299  initialOwner == address(0) */\n  0xffffffffffffffffffffffffffffffffffffffff\n  and\n  sub\n    /* \"@openzeppelin/contracts/access/Ownable.sol\":1269:1364  if (initialOwner == address(0)) {... */\n  tag_7\n  jumpi\n    /* \"@openzeppelin/contracts/access/Ownable.sol\":1350:1351  0 */\n  0x00\n    /* \"@openzeppelin/contracts/access/Ownable.sol\":1322:1353  OwnableInvalidOwner(address(0)) */\n  mload(0x40)\n  0x1e4fbdf700000000000000000000000000000000000000000000000000000000\n  dup2\n  mstore\n  0x04\n  add\n  tag_8\n  swap2\n  swap1\n  tag_9\n  jump\t// in\ntag_8:\n  mload(0x40)\n  dup1\n  swap2\n  sub\n  swap1\n  revert\n    /* \"@openzeppelin/contracts/access/Ownable.sol\":1269:1364  if (initialOwner == address(0)) {... */\ntag_7:\n    /* \"@openzeppelin/contracts/access/Ownable.sol\":1373:1405  _transferOwnership(initialOwner) */\n  tag_10\n    /* \"@openzeppelin/contracts/access/Ownable.sol\":1392:1404  initialOwner */\n  dup2\n    /* \"@openzeppelin/contracts/access/Ownable.sol\":1373:1391  _transferOwnership */\n  shl(0x20, tag_11)\n    /* \"@openzeppelin/contracts/access/Ownable.sol\":1373:1405  _transferOwnership(initialOwner) */\n  0x20\n  shr\n  jump\t// in\ntag_10:\n    /* \"@openzeppelin/contracts/access/Ownable.sol\":1225:1412  constructor(address initialOwner) {... */\n  pop\n    /* \"contracts/SimpleDex.sol\":821:822  0 */\n  0x00\n    /* \"contracts/SimpleDex.sol\":802:823  _tokenA != address(0) */\n  0xffffffffffffffffffffffffffffffffffffffff\n  and\n    /* \"contracts/SimpleDex.sol\":802:809  _tokenA */\n  dup3\n    /* \"contracts/SimpleDex.sol\":802:823  _tokenA != address(0) */\n  0xffffffffffffffffffffffffffffffffffffffff\n  and\n  eq\n  iszero\n    /* \"contracts/SimpleDex.sol\":802:848  _tokenA != address(0) && _tokenB != address(0) */\n  dup1\n  iszero\n  tag_13\n  jumpi\n  pop\n    /* \"contracts/SimpleDex.sol\":846:847  0 */\n  0x00\n    /* \"contracts/SimpleDex.sol\":827:848  _tokenB != address(0) */\n  0xffffffffffffffffffffffffffffffffffffffff\n  and\n    /* \"contracts/SimpleDex.sol\":827:834  _tokenB */\n  dup2\n    /* \"contracts/SimpleDex.sol\":827:848  _tokenB != address(0) */\n  0xffffffffffffffffffffffffffffffffffffffff\n  and\n  eq\n  iszero\n    /* \"contracts/SimpleDex.sol\":802:848  _tokenA != address(0) && _tokenB != address(0) */\ntag_13:\n    /* \"contracts/SimpleDex.sol\":794:874  require(_tokenA != address(0) && _tokenB != address(0), \"Direcciones invalidas\") */\n  tag_14\n  jumpi\n  mload(0x40)\n  0x08c379a000000000000000000000000000000000000000000000000000000000\n  dup2\n  mstore\n  0x04\n  add\n  tag_15\n  swap1\n  tag_16\n  jump\t// in\ntag_15:\n  mload(0x40)\n  dup1\n  swap2\n  sub\n  swap1\n  revert\ntag_14:\n    /* \"contracts/SimpleDex.sol\":901:908  _tokenA */\n  dup2\n    /* \"contracts/SimpleDex.sol\":885:891  tokenA */\n  0x01\n  0x00\n    /* \"contracts/SimpleDex.sol\":885:909  tokenA = IERC20(_tokenA) */\n  0x0100\n  exp\n  dup2\n  sload\n  dup2\n  0xffffffffffffffffffffffffffffffffffffffff\n  mul\n  not\n  and\n  swap1\n  dup4\n  0xffffffffffffffffffffffffffffffffffffffff\n  and\n  mul\n  or\n  swap1\n  sstore\n  pop\n    /* \"contracts/SimpleDex.sol\":936:943  _tokenB */\n  dup1\n    /* \"contracts/SimpleDex.sol\":920:926  tokenB */\n  0x02\n  0x00\n    /* \"contracts/SimpleDex.sol\":920:944  tokenB = IERC20(_tokenB) */\n  0x0100\n  exp\n  dup2\n  sload\n  dup2\n  0xffffffffffffffffffffffffffffffffffffffff\n  mul\n  not\n  and\n  swap1\n  dup4\n  0xffffffffffffffffffffffffffffffffffffffff\n  and\n  mul\n  or\n  swap1\n  sstore\n  pop\n    /* \"contracts/SimpleDex.sol\":717:952  constructor(address _tokenA, address _tokenB) Ownable(msg.sender) {... */\n  pop\n  pop\n    /* \"contracts/SimpleDex.sol\":174:3749  contract SimpleDEX is Ownable {... */\n  jump(tag_17)\n    /* \"@openzeppelin/contracts/access/Ownable.sol\":2912:3099  function _transferOwnership(address newOwner) internal virtual {... */\ntag_11:\n    /* \"@openzeppelin/contracts/access/Ownable.sol\":2985:3001  address oldOwner */\n  0x00\n    /* \"@openzeppelin/contracts/access/Ownable.sol\":3004:3010  _owner */\n  dup1\n  0x00\n  swap1\n  sload\n  swap1\n  0x0100\n  exp\n  swap1\n  div\n  0xffffffffffffffffffffffffffffffffffffffff\n  and\n    /* \"@openzeppelin/contracts/access/Ownable.sol\":2985:3010  address oldOwner = _owner */\n  swap1\n  pop\n    /* \"@openzeppelin/contracts/access/Ownable.sol\":3029:3037  newOwner */\n  dup2\n    /* \"@openzeppelin/contracts/access/Ownable.sol\":3020:3026  _owner */\n  0x00\n  dup1\n    /* \"@openzeppelin/contracts/access/Ownable.sol\":3020:3037  _owner = newOwner */\n  0x0100\n  exp\n  dup2\n  sload\n  dup2\n  0xffffffffffffffffffffffffffffffffffffffff\n  mul\n  not\n  and\n  swap1\n  dup4\n  0xffffffffffffffffffffffffffffffffffffffff\n  and\n  mul\n  or\n  swap1\n  sstore\n  pop\n    /* \"@openzeppelin/contracts/access/Ownable.sol\":3083:3091  newOwner */\n  dup2\n    /* \"@openzeppelin/contracts/access/Ownable.sol\":3052:3092  OwnershipTransferred(oldOwner, newOwner) */\n  0xffffffffffffffffffffffffffffffffffffffff\n  and\n    /* \"@openzeppelin/contracts/access/Ownable.sol\":3073:3081  oldOwner */\n  dup2\n    /* \"@openzeppelin/contracts/access/Ownable.sol\":3052:3092  OwnershipTransferred(oldOwner, newOwner) */\n  0xffffffffffffffffffffffffffffffffffffffff\n  and\n  0x8be0079c531659141344cd1fd0a4f28419497f9722a3daafe3b4186f6b6457e0\n  mload(0x40)\n  mload(0x40)\n  dup1\n  swap2\n  sub\n  swap1\n  log3\n    /* \"@openzeppelin/contracts/access/Ownable.sol\":2975:3099  {... */\n  pop\n    /* \"@openzeppelin/contracts/access/Ownable.sol\":2912:3099  function _transferOwnership(address newOwner) internal virtual {... */\n  pop\n  jump\t// out\n    /* \"#utility.yul\":88:205   */\ntag_20:\n    /* \"#utility.yul\":197:198   */\n  0x00\n    /* \"#utility.yul\":194:195   */\n  dup1\n    /* \"#utility.yul\":187:199   */\n  revert\n    /* \"#utility.yul\":334:460   */\ntag_22:\n    /* \"#utility.yul\":371:378   */\n  0x00\n    /* \"#utility.yul\":411:453   */\n  0xffffffffffffffffffffffffffffffffffffffff\n    /* \"#utility.yul\":404:409   */\n  dup3\n    /* \"#utility.yul\":400:454   */\n  and\n    /* \"#utility.yul\":389:454   */\n  swap1\n  pop\n    /* \"#utility.yul\":334:460   */\n  swap2\n  swap1\n  pop\n  jump\t// out\n    /* \"#utility.yul\":466:562   */\ntag_23:\n    /* \"#utility.yul\":503:510   */\n  0x00\n    /* \"#utility.yul\":532:556   */\n  tag_36\n    /* \"#utility.yul\":550:555   */\n  dup3\n    /* \"#utility.yul\":532:556   */\n  tag_22\n  jump\t// in\ntag_36:\n    /* \"#utility.yul\":521:556   */\n  swap1\n  pop\n    /* \"#utility.yul\":466:562   */\n  swap2\n  swap1\n  pop\n  jump\t// out\n    /* \"#utility.yul\":568:690   */\ntag_24:\n    /* \"#utility.yul\":641:665   */\n  tag_38\n    /* \"#utility.yul\":659:664   */\n  dup2\n    /* \"#utility.yul\":641:665   */\n  tag_23\n  jump\t// in\ntag_38:\n    /* \"#utility.yul\":634:639   */\n  dup2\n    /* \"#utility.yul\":631:666   */\n  eq\n    /* \"#utility.yul\":621:684   */\n  tag_39\n  jumpi\n    /* \"#utility.yul\":680:681   */\n  0x00\n    /* \"#utility.yul\":677:678   */\n  dup1\n    /* \"#utility.yul\":670:682   */\n  revert\n    /* \"#utility.yul\":621:684   */\ntag_39:\n    /* \"#utility.yul\":568:690   */\n  pop\n  jump\t// out\n    /* \"#utility.yul\":696:839   */\ntag_25:\n    /* \"#utility.yul\":753:758   */\n  0x00\n    /* \"#utility.yul\":784:790   */\n  dup2\n    /* \"#utility.yul\":778:791   */\n  mload\n    /* \"#utility.yul\":769:791   */\n  swap1\n  pop\n    /* \"#utility.yul\":800:833   */\n  tag_41\n    /* \"#utility.yul\":827:832   */\n  dup2\n    /* \"#utility.yul\":800:833   */\n  tag_24\n  jump\t// in\ntag_41:\n    /* \"#utility.yul\":696:839   */\n  swap3\n  swap2\n  pop\n  pop\n  jump\t// out\n    /* \"#utility.yul\":845:1352   */\ntag_3:\n    /* \"#utility.yul\":924:930   */\n  0x00\n    /* \"#utility.yul\":932:938   */\n  dup1\n    /* \"#utility.yul\":981:983   */\n  0x40\n    /* \"#utility.yul\":969:978   */\n  dup4\n    /* \"#utility.yul\":960:967   */\n  dup6\n    /* \"#utility.yul\":956:979   */\n  sub\n    /* \"#utility.yul\":952:984   */\n  slt\n    /* \"#utility.yul\":949:1068   */\n  iszero\n  tag_43\n  jumpi\n    /* \"#utility.yul\":987:1066   */\n  tag_44\n  tag_20\n  jump\t// in\ntag_44:\n    /* \"#utility.yul\":949:1068   */\ntag_43:\n    /* \"#utility.yul\":1107:1108   */\n  0x00\n    /* \"#utility.yul\":1132:1196   */\n  tag_45\n    /* \"#utility.yul\":1188:1195   */\n  dup6\n    /* \"#utility.yul\":1179:1185   */\n  dup3\n    /* \"#utility.yul\":1168:1177   */\n  dup7\n    /* \"#utility.yul\":1164:1186   */\n  add\n    /* \"#utility.yul\":1132:1196   */\n  tag_25\n  jump\t// in\ntag_45:\n    /* \"#utility.yul\":1122:1196   */\n  swap3\n  pop\n    /* \"#utility.yul\":1078:1206   */\n  pop\n    /* \"#utility.yul\":1245:1247   */\n  0x20\n    /* \"#utility.yul\":1271:1335   */\n  tag_46\n    /* \"#utility.yul\":1327:1334   */\n  dup6\n    /* \"#utility.yul\":1318:1324   */\n  dup3\n    /* \"#utility.yul\":1307:1316   */\n  dup7\n    /* \"#utility.yul\":1303:1325   */\n  add\n    /* \"#utility.yul\":1271:1335   */\n  tag_25\n  jump\t// in\ntag_46:\n    /* \"#utility.yul\":1261:1335   */\n  swap2\n  pop\n    /* \"#utility.yul\":1216:1345   */\n  pop\n    /* \"#utility.yul\":845:1352   */\n  swap3\n  pop\n  swap3\n  swap1\n  pop\n  jump\t// out\n    /* \"#utility.yul\":1358:1476   */\ntag_26:\n    /* \"#utility.yul\":1445:1469   */\n  tag_48\n    /* \"#utility.yul\":1463:1468   */\n  dup2\n    /* \"#utility.yul\":1445:1469   */\n  tag_23\n  jump\t// in\ntag_48:\n    /* \"#utility.yul\":1440:1443   */\n  dup3\n    /* \"#utility.yul\":1433:1470   */\n  mstore\n    /* \"#utility.yul\":1358:1476   */\n  pop\n  pop\n  jump\t// out\n    /* \"#utility.yul\":1482:1704   */\ntag_9:\n    /* \"#utility.yul\":1575:1579   */\n  0x00\n    /* \"#utility.yul\":1613:1615   */\n  0x20\n    /* \"#utility.yul\":1602:1611   */\n  dup3\n    /* \"#utility.yul\":1598:1616   */\n  add\n    /* \"#utility.yul\":1590:1616   */\n  swap1\n  pop\n    /* \"#utility.yul\":1626:1697   */\n  tag_50\n    /* \"#utility.yul\":1694:1695   */\n  0x00\n    /* \"#utility.yul\":1683:1692   */\n  dup4\n    /* \"#utility.yul\":1679:1696   */\n  add\n    /* \"#utility.yul\":1670:1676   */\n  dup5\n    /* \"#utility.yul\":1626:1697   */\n  tag_26\n  jump\t// in\ntag_50:\n    /* \"#utility.yul\":1482:1704   */\n  swap3\n  swap2\n  pop\n  pop\n  jump\t// out\n    /* \"#utility.yul\":1710:1879   */\ntag_27:\n    /* \"#utility.yul\":1794:1805   */\n  0x00\n    /* \"#utility.yul\":1828:1834   */\n  dup3\n    /* \"#utility.yul\":1823:1826   */\n  dup3\n    /* \"#utility.yul\":1816:1835   */\n  mstore\n    /* \"#utility.yul\":1868:1872   */\n  0x20\n    /* \"#utility.yul\":1863:1866   */\n  dup3\n    /* \"#utility.yul\":1859:1873   */\n  add\n    /* \"#utility.yul\":1844:1873   */\n  swap1\n  pop\n    /* \"#utility.yul\":1710:1879   */\n  swap3\n  swap2\n  pop\n  pop\n  jump\t// out\n    /* \"#utility.yul\":1885:2056   */\ntag_28:\n    /* \"#utility.yul\":2025:2048   */\n  0x446972656363696f6e657320696e76616c696461730000000000000000000000\n    /* \"#utility.yul\":2021:2022   */\n  0x00\n    /* \"#utility.yul\":2013:2019   */\n  dup3\n    /* \"#utility.yul\":2009:2023   */\n  add\n    /* \"#utility.yul\":2002:2049   */\n  mstore\n    /* \"#utility.yul\":1885:2056   */\n  pop\n  jump\t// out\n    /* \"#utility.yul\":2062:2428   */\ntag_29:\n    /* \"#utility.yul\":2204:2207   */\n  0x00\n    /* \"#utility.yul\":2225:2292   */\n  tag_54\n    /* \"#utility.yul\":2289:2291   */\n  0x15\n    /* \"#utility.yul\":2284:2287   */\n  dup4\n    /* \"#utility.yul\":2225:2292   */\n  tag_27\n  jump\t// in\ntag_54:\n    /* \"#utility.yul\":2218:2292   */\n  swap2\n  pop\n    /* \"#utility.yul\":2301:2394   */\n  tag_55\n    /* \"#utility.yul\":2390:2393   */\n  dup3\n    /* \"#utility.yul\":2301:2394   */\n  tag_28\n  jump\t// in\ntag_55:\n    /* \"#utility.yul\":2419:2421   */\n  0x20\n    /* \"#utility.yul\":2414:2417   */\n  dup3\n    /* \"#utility.yul\":2410:2422   */\n  add\n    /* \"#utility.yul\":2403:2422   */\n  swap1\n  pop\n    /* \"#utility.yul\":2062:2428   */\n  swap2\n  swap1\n  pop\n  jump\t// out\n    /* \"#utility.yul\":2434:2853   */\ntag_16:\n    /* \"#utility.yul\":2600:2604   */\n  0x00\n    /* \"#utility.yul\":2638:2640   */\n  0x20\n    /* \"#utility.yul\":2627:2636   */\n  dup3\n    /* \"#utility.yul\":2623:2641   */\n  add\n    /* \"#utility.yul\":2615:2641   */\n  swap1\n  pop\n    /* \"#utility.yul\":2687:2696   */\n  dup2\n    /* \"#utility.yul\":2681:2685   */\n  dup2\n    /* \"#utility.yul\":2677:2697   */\n  sub\n    /* \"#utility.yul\":2673:2674   */\n  0x00\n    /* \"#utility.yul\":2662:2671   */\n  dup4\n    /* \"#utility.yul\":2658:2675   */\n  add\n    /* \"#utility.yul\":2651:2698   */\n  mstore\n    /* \"#utility.yul\":2715:2846   */\n  tag_57\n    /* \"#utility.yul\":2841:2845   */\n  dup2\n    /* \"#utility.yul\":2715:2846   */\n  tag_29\n  jump\t// in\ntag_57:\n    /* \"#utility.yul\":2707:2846   */\n  swap1\n  pop\n    /* \"#utility.yul\":2434:2853   */\n  swap2\n  swap1\n  pop\n  jump\t// out\n    /* \"contracts/SimpleDex.sol\":174:3749  contract SimpleDEX is Ownable {... */\ntag_17:\n  dataSize(sub_0)\n  dup1\n  dataOffset(sub_0)\n  0x00\n  codecopy\n  0x00\n  return\nstop\n\nsub_0: assembly {\n        /* \"contracts/SimpleDex.sol\":174:3749  contract SimpleDEX is Ownable {... */\n      mstore(0x40, 0x80)\n      callvalue\n      dup1\n      iszero\n      tag_1\n      jumpi\n      0x00\n      dup1\n      revert\n    tag_1:\n      pop\n      jumpi(tag_2, lt(calldatasize, 0x04))\n      shr(0xe0, calldataload(0x00))\n      dup1\n      0x98d5fdca\n      gt\n      tag_15\n      jumpi\n      dup1\n      0x98d5fdca\n      eq\n      tag_9\n      jumpi\n      dup1\n      0x9cd441da\n      eq\n      tag_10\n      jumpi\n      dup1\n      0x9d7de6b3\n      eq\n      tag_11\n      jumpi\n      dup1\n      0xdc5fa6c5\n      eq\n      tag_12\n      jumpi\n      dup1\n      0xe4f1f70a\n      eq\n      tag_13\n      jumpi\n      dup1\n      0xf2fde38b\n      eq\n      tag_14\n      jumpi\n      jump(tag_2)\n    tag_15:\n      dup1\n      0x0fc63d10\n      eq\n      tag_3\n      jumpi\n      dup1\n      0x19e36f3b\n      eq\n      tag_4\n      jumpi\n      dup1\n      0x5f64b55b\n      eq\n      tag_5\n      jumpi\n      dup1\n      0x715018a6\n      eq\n      tag_6\n      jumpi\n      dup1\n      0x8014a7aa\n      eq\n      tag_7\n      jumpi\n      dup1\n      0x8da5cb5b\n      eq\n      tag_8\n      jumpi\n    tag_2:\n      0x00\n      dup1\n      revert\n        /* \"contracts/SimpleDex.sol\":211:231  IERC20 public tokenA */\n    tag_3:\n      tag_16\n      tag_17\n      jump\t// in\n    tag_16:\n      mload(0x40)\n      tag_18\n      swap2\n      swap1\n      tag_19\n      jump\t// in\n    tag_18:\n      mload(0x40)\n      dup1\n      swap2\n      sub\n      swap1\n      return\n        /* \"contracts/SimpleDex.sol\":297:320  uint256 public reserveB */\n    tag_4:\n      tag_20\n      tag_21\n      jump\t// in\n    tag_20:\n      mload(0x40)\n      tag_22\n      swap2\n      swap1\n      tag_23\n      jump\t// in\n    tag_22:\n      mload(0x40)\n      dup1\n      swap2\n      sub\n      swap1\n      return\n        /* \"contracts/SimpleDex.sol\":238:258  IERC20 public tokenB */\n    tag_5:\n      tag_24\n      tag_25\n      jump\t// in\n    tag_24:\n      mload(0x40)\n      tag_26\n      swap2\n      swap1\n      tag_19\n      jump\t// in\n    tag_26:\n      mload(0x40)\n      dup1\n      swap2\n      sub\n      swap1\n      return\n        /* \"@openzeppelin/contracts/access/Ownable.sol\":2293:2394  function renounceOwnership() public virtual onlyOwner {... */\n    tag_6:\n      tag_27\n      tag_28\n      jump\t// in\n    tag_27:\n      stop\n        /* \"contracts/SimpleDex.sol\":2497:3020  function swapBforA(uint256 _amountBIn) external {... */\n    tag_7:\n      tag_29\n      0x04\n      dup1\n      calldatasize\n      sub\n      dup2\n      add\n      swap1\n      tag_30\n      swap2\n      swap1\n      tag_31\n      jump\t// in\n    tag_30:\n      tag_32\n      jump\t// in\n    tag_29:\n      stop\n        /* \"@openzeppelin/contracts/access/Ownable.sol\":1638:1723  function owner() public view virtual returns (address) {... */\n    tag_8:\n      tag_33\n      tag_34\n      jump\t// in\n    tag_33:\n      mload(0x40)\n      tag_35\n      swap2\n      swap1\n      tag_36\n      jump\t// in\n    tag_35:\n      mload(0x40)\n      dup1\n      swap2\n      sub\n      swap1\n      return\n        /* \"contracts/SimpleDex.sol\":3028:3287  function getPrice() external view returns (uint256 priceAperB, uint256 priceBperA) {... */\n    tag_9:\n      tag_37\n      tag_38\n      jump\t// in\n    tag_37:\n      mload(0x40)\n      tag_39\n      swap3\n      swap2\n      swap1\n      tag_40\n      jump\t// in\n    tag_39:\n      mload(0x40)\n      dup1\n      swap2\n      sub\n      swap1\n      return\n        /* \"contracts/SimpleDex.sol\":960:1466  function addLiquidity(uint256 _amountA, uint256 _amountB) external onlyOwner {... */\n    tag_10:\n      tag_41\n      0x04\n      dup1\n      calldatasize\n      sub\n      dup2\n      add\n      swap1\n      tag_42\n      swap2\n      swap1\n      tag_43\n      jump\t// in\n    tag_42:\n      tag_44\n      jump\t// in\n    tag_41:\n      stop\n        /* \"contracts/SimpleDex.sol\":1474:1958  function removeLiquidity(uint256 _amountA, uint256 _amountB) external onlyOwner {... */\n    tag_11:\n      tag_45\n      0x04\n      dup1\n      calldatasize\n      sub\n      dup2\n      add\n      swap1\n      tag_46\n      swap2\n      swap1\n      tag_43\n      jump\t// in\n    tag_46:\n      tag_47\n      jump\t// in\n    tag_45:\n      stop\n        /* \"contracts/SimpleDex.sol\":267:290  uint256 public reserveA */\n    tag_12:\n      tag_48\n      tag_49\n      jump\t// in\n    tag_48:\n      mload(0x40)\n      tag_50\n      swap2\n      swap1\n      tag_23\n      jump\t// in\n    tag_50:\n      mload(0x40)\n      dup1\n      swap2\n      sub\n      swap1\n      return\n        /* \"contracts/SimpleDex.sol\":1966:2489  function swapAforB(uint256 _amountAIn) external {... */\n    tag_13:\n      tag_51\n      0x04\n      dup1\n      calldatasize\n      sub\n      dup2\n      add\n      swap1\n      tag_52\n      swap2\n      swap1\n      tag_31\n      jump\t// in\n    tag_52:\n      tag_53\n      jump\t// in\n    tag_51:\n      stop\n        /* \"@openzeppelin/contracts/access/Ownable.sol\":2543:2758  function transferOwnership(address newOwner) public virtual onlyOwner {... */\n    tag_14:\n      tag_54\n      0x04\n      dup1\n      calldatasize\n      sub\n      dup2\n      add\n      swap1\n      tag_55\n      swap2\n      swap1\n      tag_56\n      jump\t// in\n    tag_55:\n      tag_57\n      jump\t// in\n    tag_54:\n      stop\n        /* \"contracts/SimpleDex.sol\":211:231  IERC20 public tokenA */\n    tag_17:\n      0x01\n      0x00\n      swap1\n      sload\n      swap1\n      0x0100\n      exp\n      swap1\n      div\n      0xffffffffffffffffffffffffffffffffffffffff\n      and\n      dup2\n      jump\t// out\n        /* \"contracts/SimpleDex.sol\":297:320  uint256 public reserveB */\n    tag_21:\n      sload(0x04)\n      dup2\n      jump\t// out\n        /* \"contracts/SimpleDex.sol\":238:258  IERC20 public tokenB */\n    tag_25:\n      0x02\n      0x00\n      swap1\n      sload\n      swap1\n      0x0100\n      exp\n      swap1\n      div\n      0xffffffffffffffffffffffffffffffffffffffff\n      and\n      dup2\n      jump\t// out\n        /* \"@openzeppelin/contracts/access/Ownable.sol\":2293:2394  function renounceOwnership() public virtual onlyOwner {... */\n    tag_28:\n        /* \"@openzeppelin/contracts/access/Ownable.sol\":1531:1544  _checkOwner() */\n      tag_59\n        /* \"@openzeppelin/contracts/access/Ownable.sol\":1531:1542  _checkOwner */\n      tag_60\n        /* \"@openzeppelin/contracts/access/Ownable.sol\":1531:1544  _checkOwner() */\n      jump\t// in\n    tag_59:\n        /* \"@openzeppelin/contracts/access/Ownable.sol\":2357:2387  _transferOwnership(address(0)) */\n      tag_62\n        /* \"@openzeppelin/contracts/access/Ownable.sol\":2384:2385  0 */\n      0x00\n        /* \"@openzeppelin/contracts/access/Ownable.sol\":2357:2375  _transferOwnership */\n      tag_63\n        /* \"@openzeppelin/contracts/access/Ownable.sol\":2357:2387  _transferOwnership(address(0)) */\n      jump\t// in\n    tag_62:\n        /* \"@openzeppelin/contracts/access/Ownable.sol\":2293:2394  function renounceOwnership() public virtual onlyOwner {... */\n      jump\t// out\n        /* \"contracts/SimpleDex.sol\":2497:3020  function swapBforA(uint256 _amountBIn) external {... */\n    tag_32:\n        /* \"contracts/SimpleDex.sol\":2577:2578  0 */\n      0x00\n        /* \"contracts/SimpleDex.sol\":2564:2574  _amountBIn */\n      dup2\n        /* \"contracts/SimpleDex.sol\":2564:2578  _amountBIn > 0 */\n      gt\n        /* \"contracts/SimpleDex.sol\":2556:2600  require(_amountBIn > 0, \"Cantidad invalida\") */\n      tag_65\n      jumpi\n      mload(0x40)\n      0x08c379a000000000000000000000000000000000000000000000000000000000\n      dup2\n      mstore\n      0x04\n      add\n      tag_66\n      swap1\n      tag_67\n      jump\t// in\n    tag_66:\n      mload(0x40)\n      dup1\n      swap2\n      sub\n      swap1\n      revert\n    tag_65:\n        /* \"contracts/SimpleDex.sol\":2619:2625  tokenB */\n      0x02\n      0x00\n      swap1\n      sload\n      swap1\n      0x0100\n      exp\n      swap1\n      div\n      0xffffffffffffffffffffffffffffffffffffffff\n      and\n        /* \"contracts/SimpleDex.sol\":2619:2638  tokenB.transferFrom */\n      0xffffffffffffffffffffffffffffffffffffffff\n      and\n      0x23b872dd\n        /* \"contracts/SimpleDex.sol\":2639:2649  msg.sender */\n      caller\n        /* \"contracts/SimpleDex.sol\":2659:2663  this */\n      address\n        /* \"contracts/SimpleDex.sol\":2666:2676  _amountBIn */\n      dup5\n        /* \"contracts/SimpleDex.sol\":2619:2677  tokenB.transferFrom(msg.sender, address(this), _amountBIn) */\n      mload(0x40)\n      dup5\n      0xffffffff\n      and\n      0xe0\n      shl\n      dup2\n      mstore\n      0x04\n      add\n      tag_68\n      swap4\n      swap3\n      swap2\n      swap1\n      tag_69\n      jump\t// in\n    tag_68:\n      0x20\n      mload(0x40)\n      dup1\n      dup4\n      sub\n      dup2\n      0x00\n      dup8\n      gas\n      call\n      iszero\n      dup1\n      iszero\n      tag_71\n      jumpi\n      returndatasize\n      0x00\n      dup1\n      returndatacopy\n      revert(0x00, returndatasize)\n    tag_71:\n      pop\n      pop\n      pop\n      pop\n      mload(0x40)\n      returndatasize\n      not(0x1f)\n      0x1f\n      dup3\n      add\n      and\n      dup3\n      add\n      dup1\n      0x40\n      mstore\n      pop\n      dup2\n      add\n      swap1\n      tag_72\n      swap2\n      swap1\n      tag_73\n      jump\t// in\n    tag_72:\n        /* \"contracts/SimpleDex.sol\":2611:2704  require(tokenB.transferFrom(msg.sender, address(this), _amountBIn), \"Fallo en transferencia\") */\n      tag_74\n      jumpi\n      mload(0x40)\n      0x08c379a000000000000000000000000000000000000000000000000000000000\n      dup2\n      mstore\n      0x04\n      add\n      tag_75\n      swap1\n      tag_76\n      jump\t// in\n    tag_75:\n      mload(0x40)\n      dup1\n      swap2\n      sub\n      swap1\n      revert\n    tag_74:\n        /* \"contracts/SimpleDex.sol\":2717:2735  uint256 amountAOut */\n      0x00\n        /* \"contracts/SimpleDex.sol\":2738:2784  _getSwapOutput(_amountBIn, reserveB, reserveA) */\n      tag_77\n        /* \"contracts/SimpleDex.sol\":2753:2763  _amountBIn */\n      dup3\n        /* \"contracts/SimpleDex.sol\":2765:2773  reserveB */\n      sload(0x04)\n        /* \"contracts/SimpleDex.sol\":2775:2783  reserveA */\n      sload(0x03)\n        /* \"contracts/SimpleDex.sol\":2738:2752  _getSwapOutput */\n      tag_78\n        /* \"contracts/SimpleDex.sol\":2738:2784  _getSwapOutput(_amountBIn, reserveB, reserveA) */\n      jump\t// in\n    tag_77:\n        /* \"contracts/SimpleDex.sol\":2717:2784  uint256 amountAOut = _getSwapOutput(_amountBIn, reserveB, reserveA) */\n      swap1\n      pop\n        /* \"contracts/SimpleDex.sol\":2809:2819  _amountBIn */\n      dup2\n        /* \"contracts/SimpleDex.sol\":2797:2805  reserveB */\n      0x04\n      0x00\n        /* \"contracts/SimpleDex.sol\":2797:2819  reserveB += _amountBIn */\n      dup3\n      dup3\n      sload\n      tag_79\n      swap2\n      swap1\n      tag_80\n      jump\t// in\n    tag_79:\n      swap3\n      pop\n      pop\n      dup2\n      swap1\n      sstore\n      pop\n        /* \"contracts/SimpleDex.sol\":2842:2852  amountAOut */\n      dup1\n        /* \"contracts/SimpleDex.sol\":2830:2838  reserveA */\n      0x03\n      0x00\n        /* \"contracts/SimpleDex.sol\":2830:2852  reserveA -= amountAOut */\n      dup3\n      dup3\n      sload\n      tag_81\n      swap2\n      swap1\n      tag_82\n      jump\t// in\n    tag_81:\n      swap3\n      pop\n      pop\n      dup2\n      swap1\n      sstore\n      pop\n        /* \"contracts/SimpleDex.sol\":2873:2879  tokenA */\n      0x01\n      0x00\n      swap1\n      sload\n      swap1\n      0x0100\n      exp\n      swap1\n      div\n      0xffffffffffffffffffffffffffffffffffffffff\n      and\n        /* \"contracts/SimpleDex.sol\":2873:2888  tokenA.transfer */\n      0xffffffffffffffffffffffffffffffffffffffff\n      and\n      0xa9059cbb\n        /* \"contracts/SimpleDex.sol\":2889:2899  msg.sender */\n      caller\n        /* \"contracts/SimpleDex.sol\":2901:2911  amountAOut */\n      dup4\n        /* \"contracts/SimpleDex.sol\":2873:2912  tokenA.transfer(msg.sender, amountAOut) */\n      mload(0x40)\n      dup4\n      0xffffffff\n      and\n      0xe0\n      shl\n      dup2\n      mstore\n      0x04\n      add\n      tag_83\n      swap3\n      swap2\n      swap1\n      tag_84\n      jump\t// in\n    tag_83:\n      0x20\n      mload(0x40)\n      dup1\n      dup4\n      sub\n      dup2\n      0x00\n      dup8\n      gas\n      call\n      iszero\n      dup1\n      iszero\n      tag_86\n      jumpi\n      returndatasize\n      0x00\n      dup1\n      returndatacopy\n      revert(0x00, returndatasize)\n    tag_86:\n      pop\n      pop\n      pop\n      pop\n      mload(0x40)\n      returndatasize\n      not(0x1f)\n      0x1f\n      dup3\n      add\n      and\n      dup3\n      add\n      dup1\n      0x40\n      mstore\n      pop\n      dup2\n      add\n      swap1\n      tag_87\n      swap2\n      swap1\n      tag_73\n      jump\t// in\n    tag_87:\n        /* \"contracts/SimpleDex.sol\":2865:2943  require(tokenA.transfer(msg.sender, amountAOut), \"Fallo al transferir TokenA\") */\n      tag_88\n      jumpi\n      mload(0x40)\n      0x08c379a000000000000000000000000000000000000000000000000000000000\n      dup2\n      mstore\n      0x04\n      add\n      tag_89\n      swap1\n      tag_90\n      jump\t// in\n    tag_89:\n      mload(0x40)\n      dup1\n      swap2\n      sub\n      swap1\n      revert\n    tag_88:\n        /* \"contracts/SimpleDex.sol\":2969:2979  msg.sender */\n      caller\n        /* \"contracts/SimpleDex.sol\":2961:3012  Swapped(msg.sender, \"B->A\", _amountBIn, amountAOut) */\n      0xffffffffffffffffffffffffffffffffffffffff\n      and\n      0x8d400643fa1ccaba7ce092175917c6d7087e296293a5d0de32bccb310f4774ab\n        /* \"contracts/SimpleDex.sol\":2989:2999  _amountBIn */\n      dup4\n        /* \"contracts/SimpleDex.sol\":3001:3011  amountAOut */\n      dup4\n        /* \"contracts/SimpleDex.sol\":2961:3012  Swapped(msg.sender, \"B->A\", _amountBIn, amountAOut) */\n      mload(0x40)\n      tag_91\n      swap3\n      swap2\n      swap1\n      tag_92\n      jump\t// in\n    tag_91:\n      mload(0x40)\n      dup1\n      swap2\n      sub\n      swap1\n      log2\n        /* \"contracts/SimpleDex.sol\":2545:3020  {... */\n      pop\n        /* \"contracts/SimpleDex.sol\":2497:3020  function swapBforA(uint256 _amountBIn) external {... */\n      pop\n      jump\t// out\n        /* \"@openzeppelin/contracts/access/Ownable.sol\":1638:1723  function owner() public view virtual returns (address) {... */\n    tag_34:\n        /* \"@openzeppelin/contracts/access/Ownable.sol\":1684:1691  address */\n      0x00\n        /* \"@openzeppelin/contracts/access/Ownable.sol\":1710:1716  _owner */\n      dup1\n      0x00\n      swap1\n      sload\n      swap1\n      0x0100\n      exp\n      swap1\n      div\n      0xffffffffffffffffffffffffffffffffffffffff\n      and\n        /* \"@openzeppelin/contracts/access/Ownable.sol\":1703:1716  return _owner */\n      swap1\n      pop\n        /* \"@openzeppelin/contracts/access/Ownable.sol\":1638:1723  function owner() public view virtual returns (address) {... */\n      swap1\n      jump\t// out\n        /* \"contracts/SimpleDex.sol\":3028:3287  function getPrice() external view returns (uint256 priceAperB, uint256 priceBperA) {... */\n    tag_38:\n        /* \"contracts/SimpleDex.sol\":3071:3089  uint256 priceAperB */\n      0x00\n        /* \"contracts/SimpleDex.sol\":3091:3109  uint256 priceBperA */\n      dup1\n        /* \"contracts/SimpleDex.sol\":3141:3142  0 */\n      0x00\n        /* \"contracts/SimpleDex.sol\":3130:3138  reserveA */\n      sload(0x03)\n        /* \"contracts/SimpleDex.sol\":3130:3142  reserveA > 0 */\n      gt\n        /* \"contracts/SimpleDex.sol\":3130:3158  reserveA > 0 && reserveB > 0 */\n      dup1\n      iszero\n      tag_95\n      jumpi\n      pop\n        /* \"contracts/SimpleDex.sol\":3157:3158  0 */\n      0x00\n        /* \"contracts/SimpleDex.sol\":3146:3154  reserveB */\n      sload(0x04)\n        /* \"contracts/SimpleDex.sol\":3146:3158  reserveB > 0 */\n      gt\n        /* \"contracts/SimpleDex.sol\":3130:3158  reserveA > 0 && reserveB > 0 */\n    tag_95:\n        /* \"contracts/SimpleDex.sol\":3122:3175  require(reserveA > 0 && reserveB > 0, \"Sin liquidez\") */\n      tag_96\n      jumpi\n      mload(0x40)\n      0x08c379a000000000000000000000000000000000000000000000000000000000\n      dup2\n      mstore\n      0x04\n      add\n      tag_97\n      swap1\n      tag_98\n      jump\t// in\n    tag_97:\n      mload(0x40)\n      dup1\n      swap2\n      sub\n      swap1\n      revert\n    tag_96:\n        /* \"contracts/SimpleDex.sol\":3219:3227  reserveA */\n      sload(0x03)\n        /* \"contracts/SimpleDex.sol\":3211:3215  1e18 */\n      0x0de0b6b3a7640000\n        /* \"contracts/SimpleDex.sol\":3200:3208  reserveB */\n      sload(0x04)\n        /* \"contracts/SimpleDex.sol\":3200:3215  reserveB * 1e18 */\n      tag_99\n      swap2\n      swap1\n      tag_100\n      jump\t// in\n    tag_99:\n        /* \"contracts/SimpleDex.sol\":3199:3227  (reserveB * 1e18) / reserveA */\n      tag_101\n      swap2\n      swap1\n      tag_102\n      jump\t// in\n    tag_101:\n        /* \"contracts/SimpleDex.sol\":3186:3227  priceAperB = (reserveB * 1e18) / reserveA */\n      swap2\n      pop\n        /* \"contracts/SimpleDex.sol\":3271:3279  reserveB */\n      sload(0x04)\n        /* \"contracts/SimpleDex.sol\":3263:3267  1e18 */\n      0x0de0b6b3a7640000\n        /* \"contracts/SimpleDex.sol\":3252:3260  reserveA */\n      sload(0x03)\n        /* \"contracts/SimpleDex.sol\":3252:3267  reserveA * 1e18 */\n      tag_103\n      swap2\n      swap1\n      tag_100\n      jump\t// in\n    tag_103:\n        /* \"contracts/SimpleDex.sol\":3251:3279  (reserveA * 1e18) / reserveB */\n      tag_104\n      swap2\n      swap1\n      tag_102\n      jump\t// in\n    tag_104:\n        /* \"contracts/SimpleDex.sol\":3238:3279  priceBperA = (reserveA * 1e18) / reserveB */\n      swap1\n      pop\n        /* \"contracts/SimpleDex.sol\":3028:3287  function getPrice() external view returns (uint256 priceAperB, uint256 priceBperA) {... */\n      swap1\n      swap2\n      jump\t// out\n        /* \"contracts/SimpleDex.sol\":960:1466  function addLiquidity(uint256 _amountA, uint256 _amountB) external onlyOwner {... */\n    tag_44:\n        /* \"@openzeppelin/contracts/access/Ownable.sol\":1531:1544  _checkOwner() */\n      tag_106\n        /* \"@openzeppelin/contracts/access/Ownable.sol\":1531:1542  _checkOwner */\n      tag_60\n        /* \"@openzeppelin/contracts/access/Ownable.sol\":1531:1544  _checkOwner() */\n      jump\t// in\n    tag_106:\n        /* \"contracts/SimpleDex.sol\":1067:1068  0 */\n      0x00\n        /* \"contracts/SimpleDex.sol\":1056:1064  _amountA */\n      dup3\n        /* \"contracts/SimpleDex.sol\":1056:1068  _amountA > 0 */\n      gt\n        /* \"contracts/SimpleDex.sol\":1056:1084  _amountA > 0 && _amountB > 0 */\n      dup1\n      iszero\n      tag_108\n      jumpi\n      pop\n        /* \"contracts/SimpleDex.sol\":1083:1084  0 */\n      0x00\n        /* \"contracts/SimpleDex.sol\":1072:1080  _amountB */\n      dup2\n        /* \"contracts/SimpleDex.sol\":1072:1084  _amountB > 0 */\n      gt\n        /* \"contracts/SimpleDex.sol\":1056:1084  _amountA > 0 && _amountB > 0 */\n    tag_108:\n        /* \"contracts/SimpleDex.sol\":1048:1106  require(_amountA > 0 && _amountB > 0, \"Cantidad invalida\") */\n      tag_109\n      jumpi\n      mload(0x40)\n      0x08c379a000000000000000000000000000000000000000000000000000000000\n      dup2\n      mstore\n      0x04\n      add\n      tag_110\n      swap1\n      tag_67\n      jump\t// in\n    tag_110:\n      mload(0x40)\n      dup1\n      swap2\n      sub\n      swap1\n      revert\n    tag_109:\n        /* \"contracts/SimpleDex.sol\":1125:1131  tokenA */\n      0x01\n      0x00\n      swap1\n      sload\n      swap1\n      0x0100\n      exp\n      swap1\n      div\n      0xffffffffffffffffffffffffffffffffffffffff\n      and\n        /* \"contracts/SimpleDex.sol\":1125:1144  tokenA.transferFrom */\n      0xffffffffffffffffffffffffffffffffffffffff\n      and\n      0x23b872dd\n        /* \"contracts/SimpleDex.sol\":1145:1155  msg.sender */\n      caller\n        /* \"contracts/SimpleDex.sol\":1165:1169  this */\n      address\n        /* \"contracts/SimpleDex.sol\":1172:1180  _amountA */\n      dup6\n        /* \"contracts/SimpleDex.sol\":1125:1181  tokenA.transferFrom(msg.sender, address(this), _amountA) */\n      mload(0x40)\n      dup5\n      0xffffffff\n      and\n      0xe0\n      shl\n      dup2\n      mstore\n      0x04\n      add\n      tag_111\n      swap4\n      swap3\n      swap2\n      swap1\n      tag_69\n      jump\t// in\n    tag_111:\n      0x20\n      mload(0x40)\n      dup1\n      dup4\n      sub\n      dup2\n      0x00\n      dup8\n      gas\n      call\n      iszero\n      dup1\n      iszero\n      tag_113\n      jumpi\n      returndatasize\n      0x00\n      dup1\n      returndatacopy\n      revert(0x00, returndatasize)\n    tag_113:\n      pop\n      pop\n      pop\n      pop\n      mload(0x40)\n      returndatasize\n      not(0x1f)\n      0x1f\n      dup3\n      add\n      and\n      dup3\n      add\n      dup1\n      0x40\n      mstore\n      pop\n      dup2\n      add\n      swap1\n      tag_114\n      swap2\n      swap1\n      tag_73\n      jump\t// in\n    tag_114:\n        /* \"contracts/SimpleDex.sol\":1117:1218  require(tokenA.transferFrom(msg.sender, address(this), _amountA), \"Fallo en transferencia de TokenA\") */\n      tag_115\n      jumpi\n      mload(0x40)\n      0x08c379a000000000000000000000000000000000000000000000000000000000\n      dup2\n      mstore\n      0x04\n      add\n      tag_116\n      swap1\n      tag_117\n      jump\t// in\n    tag_116:\n      mload(0x40)\n      dup1\n      swap2\n      sub\n      swap1\n      revert\n    tag_115:\n        /* \"contracts/SimpleDex.sol\":1237:1243  tokenB */\n      0x02\n      0x00\n      swap1\n      sload\n      swap1\n      0x0100\n      exp\n      swap1\n      div\n      0xffffffffffffffffffffffffffffffffffffffff\n      and\n        /* \"contracts/SimpleDex.sol\":1237:1256  tokenB.transferFrom */\n      0xffffffffffffffffffffffffffffffffffffffff\n      and\n      0x23b872dd\n        /* \"contracts/SimpleDex.sol\":1257:1267  msg.sender */\n      caller\n        /* \"contracts/SimpleDex.sol\":1277:1281  this */\n      address\n        /* \"contracts/SimpleDex.sol\":1284:1292  _amountB */\n      dup5\n        /* \"contracts/SimpleDex.sol\":1237:1293  tokenB.transferFrom(msg.sender, address(this), _amountB) */\n      mload(0x40)\n      dup5\n      0xffffffff\n      and\n      0xe0\n      shl\n      dup2\n      mstore\n      0x04\n      add\n      tag_118\n      swap4\n      swap3\n      swap2\n      swap1\n      tag_69\n      jump\t// in\n    tag_118:\n      0x20\n      mload(0x40)\n      dup1\n      dup4\n      sub\n      dup2\n      0x00\n      dup8\n      gas\n      call\n      iszero\n      dup1\n      iszero\n      tag_120\n      jumpi\n      returndatasize\n      0x00\n      dup1\n      returndatacopy\n      revert(0x00, returndatasize)\n    tag_120:\n      pop\n      pop\n      pop\n      pop\n      mload(0x40)\n      returndatasize\n      not(0x1f)\n      0x1f\n      dup3\n      add\n      and\n      dup3\n      add\n      dup1\n      0x40\n      mstore\n      pop\n      dup2\n      add\n      swap1\n      tag_121\n      swap2\n      swap1\n      tag_73\n      jump\t// in\n    tag_121:\n        /* \"contracts/SimpleDex.sol\":1229:1330  require(tokenB.transferFrom(msg.sender, address(this), _amountB), \"Fallo en transferencia de TokenB\") */\n      tag_122\n      jumpi\n      mload(0x40)\n      0x08c379a000000000000000000000000000000000000000000000000000000000\n      dup2\n      mstore\n      0x04\n      add\n      tag_123\n      swap1\n      tag_124\n      jump\t// in\n    tag_123:\n      mload(0x40)\n      dup1\n      swap2\n      sub\n      swap1\n      revert\n    tag_122:\n        /* \"contracts/SimpleDex.sol\":1355:1363  _amountA */\n      dup2\n        /* \"contracts/SimpleDex.sol\":1343:1351  reserveA */\n      0x03\n      0x00\n        /* \"contracts/SimpleDex.sol\":1343:1363  reserveA += _amountA */\n      dup3\n      dup3\n      sload\n      tag_125\n      swap2\n      swap1\n      tag_80\n      jump\t// in\n    tag_125:\n      swap3\n      pop\n      pop\n      dup2\n      swap1\n      sstore\n      pop\n        /* \"contracts/SimpleDex.sol\":1386:1394  _amountB */\n      dup1\n        /* \"contracts/SimpleDex.sol\":1374:1382  reserveB */\n      0x04\n      0x00\n        /* \"contracts/SimpleDex.sol\":1374:1394  reserveB += _amountB */\n      dup3\n      dup3\n      sload\n      tag_126\n      swap2\n      swap1\n      tag_80\n      jump\t// in\n    tag_126:\n      swap3\n      pop\n      pop\n      dup2\n      swap1\n      sstore\n      pop\n        /* \"contracts/SimpleDex.sol\":1427:1437  msg.sender */\n      caller\n        /* \"contracts/SimpleDex.sol\":1412:1458  LiquidityAdded(msg.sender, _amountA, _amountB) */\n      0xffffffffffffffffffffffffffffffffffffffff\n      and\n      0xac1d76749e5447b7b16f5ab61447e1bd502f3bb4807af3b28e620d1700a6ee45\n        /* \"contracts/SimpleDex.sol\":1439:1447  _amountA */\n      dup4\n        /* \"contracts/SimpleDex.sol\":1449:1457  _amountB */\n      dup4\n        /* \"contracts/SimpleDex.sol\":1412:1458  LiquidityAdded(msg.sender, _amountA, _amountB) */\n      mload(0x40)\n      tag_127\n      swap3\n      swap2\n      swap1\n      tag_40\n      jump\t// in\n    tag_127:\n      mload(0x40)\n      dup1\n      swap2\n      sub\n      swap1\n      log2\n        /* \"contracts/SimpleDex.sol\":960:1466  function addLiquidity(uint256 _amountA, uint256 _amountB) external onlyOwner {... */\n      pop\n      pop\n      jump\t// out\n        /* \"contracts/SimpleDex.sol\":1474:1958  function removeLiquidity(uint256 _amountA, uint256 _amountB) external onlyOwner {... */\n    tag_47:\n        /* \"@openzeppelin/contracts/access/Ownable.sol\":1531:1544  _checkOwner() */\n      tag_129\n        /* \"@openzeppelin/contracts/access/Ownable.sol\":1531:1542  _checkOwner */\n      tag_60\n        /* \"@openzeppelin/contracts/access/Ownable.sol\":1531:1544  _checkOwner() */\n      jump\t// in\n    tag_129:\n        /* \"contracts/SimpleDex.sol\":1585:1593  reserveA */\n      sload(0x03)\n        /* \"contracts/SimpleDex.sol\":1573:1581  _amountA */\n      dup3\n        /* \"contracts/SimpleDex.sol\":1573:1593  _amountA <= reserveA */\n      gt\n      iszero\n        /* \"contracts/SimpleDex.sol\":1573:1617  _amountA <= reserveA && _amountB <= reserveB */\n      dup1\n      iszero\n      tag_131\n      jumpi\n      pop\n        /* \"contracts/SimpleDex.sol\":1609:1617  reserveB */\n      sload(0x04)\n        /* \"contracts/SimpleDex.sol\":1597:1605  _amountB */\n      dup2\n        /* \"contracts/SimpleDex.sol\":1597:1617  _amountB <= reserveB */\n      gt\n      iszero\n        /* \"contracts/SimpleDex.sol\":1573:1617  _amountA <= reserveA && _amountB <= reserveB */\n    tag_131:\n        /* \"contracts/SimpleDex.sol\":1565:1644  require(_amountA <= reserveA && _amountB <= reserveB, \"Reservas insuficientes\") */\n      tag_132\n      jumpi\n      mload(0x40)\n      0x08c379a000000000000000000000000000000000000000000000000000000000\n      dup2\n      mstore\n      0x04\n      add\n      tag_133\n      swap1\n      tag_134\n      jump\t// in\n    tag_133:\n      mload(0x40)\n      dup1\n      swap2\n      sub\n      swap1\n      revert\n    tag_132:\n        /* \"contracts/SimpleDex.sol\":1669:1677  _amountA */\n      dup2\n        /* \"contracts/SimpleDex.sol\":1657:1665  reserveA */\n      0x03\n      0x00\n        /* \"contracts/SimpleDex.sol\":1657:1677  reserveA -= _amountA */\n      dup3\n      dup3\n      sload\n      tag_135\n      swap2\n      swap1\n      tag_82\n      jump\t// in\n    tag_135:\n      swap3\n      pop\n      pop\n      dup2\n      swap1\n      sstore\n      pop\n        /* \"contracts/SimpleDex.sol\":1700:1708  _amountB */\n      dup1\n        /* \"contracts/SimpleDex.sol\":1688:1696  reserveB */\n      0x04\n      0x00\n        /* \"contracts/SimpleDex.sol\":1688:1708  reserveB -= _amountB */\n      dup3\n      dup3\n      sload\n      tag_136\n      swap2\n      swap1\n      tag_82\n      jump\t// in\n    tag_136:\n      swap3\n      pop\n      pop\n      dup2\n      swap1\n      sstore\n      pop\n        /* \"contracts/SimpleDex.sol\":1729:1735  tokenA */\n      0x01\n      0x00\n      swap1\n      sload\n      swap1\n      0x0100\n      exp\n      swap1\n      div\n      0xffffffffffffffffffffffffffffffffffffffff\n      and\n        /* \"contracts/SimpleDex.sol\":1729:1744  tokenA.transfer */\n      0xffffffffffffffffffffffffffffffffffffffff\n      and\n      0xa9059cbb\n        /* \"contracts/SimpleDex.sol\":1745:1755  msg.sender */\n      caller\n        /* \"contracts/SimpleDex.sol\":1757:1765  _amountA */\n      dup5\n        /* \"contracts/SimpleDex.sol\":1729:1766  tokenA.transfer(msg.sender, _amountA) */\n      mload(0x40)\n      dup4\n      0xffffffff\n      and\n      0xe0\n      shl\n      dup2\n      mstore\n      0x04\n      add\n      tag_137\n      swap3\n      swap2\n      swap1\n      tag_84\n      jump\t// in\n    tag_137:\n      0x20\n      mload(0x40)\n      dup1\n      dup4\n      sub\n      dup2\n      0x00\n      dup8\n      gas\n      call\n      iszero\n      dup1\n      iszero\n      tag_139\n      jumpi\n      returndatasize\n      0x00\n      dup1\n      returndatacopy\n      revert(0x00, returndatasize)\n    tag_139:\n      pop\n      pop\n      pop\n      pop\n      mload(0x40)\n      returndatasize\n      not(0x1f)\n      0x1f\n      dup3\n      add\n      and\n      dup3\n      add\n      dup1\n      0x40\n      mstore\n      pop\n      dup2\n      add\n      swap1\n      tag_140\n      swap2\n      swap1\n      tag_73\n      jump\t// in\n    tag_140:\n        /* \"contracts/SimpleDex.sol\":1721:1797  require(tokenA.transfer(msg.sender, _amountA), \"Fallo al transferir TokenA\") */\n      tag_141\n      jumpi\n      mload(0x40)\n      0x08c379a000000000000000000000000000000000000000000000000000000000\n      dup2\n      mstore\n      0x04\n      add\n      tag_142\n      swap1\n      tag_90\n      jump\t// in\n    tag_142:\n      mload(0x40)\n      dup1\n      swap2\n      sub\n      swap1\n      revert\n    tag_141:\n        /* \"contracts/SimpleDex.sol\":1816:1822  tokenB */\n      0x02\n      0x00\n      swap1\n      sload\n      swap1\n      0x0100\n      exp\n      swap1\n      div\n      0xffffffffffffffffffffffffffffffffffffffff\n      and\n        /* \"contracts/SimpleDex.sol\":1816:1831  tokenB.transfer */\n      0xffffffffffffffffffffffffffffffffffffffff\n      and\n      0xa9059cbb\n        /* \"contracts/SimpleDex.sol\":1832:1842  msg.sender */\n      caller\n        /* \"contracts/SimpleDex.sol\":1844:1852  _amountB */\n      dup4\n        /* \"contracts/SimpleDex.sol\":1816:1853  tokenB.transfer(msg.sender, _amountB) */\n      mload(0x40)\n      dup4\n      0xffffffff\n      and\n      0xe0\n      shl\n      dup2\n      mstore\n      0x04\n      add\n      tag_143\n      swap3\n      swap2\n      swap1\n      tag_84\n      jump\t// in\n    tag_143:\n      0x20\n      mload(0x40)\n      dup1\n      dup4\n      sub\n      dup2\n      0x00\n      dup8\n      gas\n      call\n      iszero\n      dup1\n      iszero\n      tag_145\n      jumpi\n      returndatasize\n      0x00\n      dup1\n      returndatacopy\n      revert(0x00, returndatasize)\n    tag_145:\n      pop\n      pop\n      pop\n      pop\n      mload(0x40)\n      returndatasize\n      not(0x1f)\n      0x1f\n      dup3\n      add\n      and\n      dup3\n      add\n      dup1\n      0x40\n      mstore\n      pop\n      dup2\n      add\n      swap1\n      tag_146\n      swap2\n      swap1\n      tag_73\n      jump\t// in\n    tag_146:\n        /* \"contracts/SimpleDex.sol\":1808:1884  require(tokenB.transfer(msg.sender, _amountB), \"Fallo al transferir TokenB\") */\n      tag_147\n      jumpi\n      mload(0x40)\n      0x08c379a000000000000000000000000000000000000000000000000000000000\n      dup2\n      mstore\n      0x04\n      add\n      tag_148\n      swap1\n      tag_149\n      jump\t// in\n    tag_148:\n      mload(0x40)\n      dup1\n      swap2\n      sub\n      swap1\n      revert\n    tag_147:\n        /* \"contracts/SimpleDex.sol\":1919:1929  msg.sender */\n      caller\n        /* \"contracts/SimpleDex.sol\":1902:1950  LiquidityRemoved(msg.sender, _amountA, _amountB) */\n      0xffffffffffffffffffffffffffffffffffffffff\n      and\n      0x96cd817c6329656790ef8fba7675405193677d39619571282f5e21f3a98cd059\n        /* \"contracts/SimpleDex.sol\":1931:1939  _amountA */\n      dup4\n        /* \"contracts/SimpleDex.sol\":1941:1949  _amountB */\n      dup4\n        /* \"contracts/SimpleDex.sol\":1902:1950  LiquidityRemoved(msg.sender, _amountA, _amountB) */\n      mload(0x40)\n      tag_150\n      swap3\n      swap2\n      swap1\n      tag_40\n      jump\t// in\n    tag_150:\n      mload(0x40)\n      dup1\n      swap2\n      sub\n      swap1\n      log2\n        /* \"contracts/SimpleDex.sol\":1474:1958  function removeLiquidity(uint256 _amountA, uint256 _amountB) external onlyOwner {... */\n      pop\n      pop\n      jump\t// out\n        /* \"contracts/SimpleDex.sol\":267:290  uint256 public reserveA */\n    tag_49:\n      sload(0x03)\n      dup2\n      jump\t// out\n        /* \"contracts/SimpleDex.sol\":1966:2489  function swapAforB(uint256 _amountAIn) external {... */\n    tag_53:\n        /* \"contracts/SimpleDex.sol\":2046:2047  0 */\n      0x00\n        /* \"contracts/SimpleDex.sol\":2033:2043  _amountAIn */\n      dup2\n        /* \"contracts/SimpleDex.sol\":2033:2047  _amountAIn > 0 */\n      gt\n        /* \"contracts/SimpleDex.sol\":2025:2069  require(_amountAIn > 0, \"Cantidad invalida\") */\n      tag_152\n      jumpi\n      mload(0x40)\n      0x08c379a000000000000000000000000000000000000000000000000000000000\n      dup2\n      mstore\n      0x04\n      add\n      tag_153\n      swap1\n      tag_67\n      jump\t// in\n    tag_153:\n      mload(0x40)\n      dup1\n      swap2\n      sub\n      swap1\n      revert\n    tag_152:\n        /* \"contracts/SimpleDex.sol\":2088:2094  tokenA */\n      0x01\n      0x00\n      swap1\n      sload\n      swap1\n      0x0100\n      exp\n      swap1\n      div\n      0xffffffffffffffffffffffffffffffffffffffff\n      and\n        /* \"contracts/SimpleDex.sol\":2088:2107  tokenA.transferFrom */\n      0xffffffffffffffffffffffffffffffffffffffff\n      and\n      0x23b872dd\n        /* \"contracts/SimpleDex.sol\":2108:2118  msg.sender */\n      caller\n        /* \"contracts/SimpleDex.sol\":2128:2132  this */\n      address\n        /* \"contracts/SimpleDex.sol\":2135:2145  _amountAIn */\n      dup5\n        /* \"contracts/SimpleDex.sol\":2088:2146  tokenA.transferFrom(msg.sender, address(this), _amountAIn) */\n      mload(0x40)\n      dup5\n      0xffffffff\n      and\n      0xe0\n      shl\n      dup2\n      mstore\n      0x04\n      add\n      tag_154\n      swap4\n      swap3\n      swap2\n      swap1\n      tag_69\n      jump\t// in\n    tag_154:\n      0x20\n      mload(0x40)\n      dup1\n      dup4\n      sub\n      dup2\n      0x00\n      dup8\n      gas\n      call\n      iszero\n      dup1\n      iszero\n      tag_156\n      jumpi\n      returndatasize\n      0x00\n      dup1\n      returndatacopy\n      revert(0x00, returndatasize)\n    tag_156:\n      pop\n      pop\n      pop\n      pop\n      mload(0x40)\n      returndatasize\n      not(0x1f)\n      0x1f\n      dup3\n      add\n      and\n      dup3\n      add\n      dup1\n      0x40\n      mstore\n      pop\n      dup2\n      add\n      swap1\n      tag_157\n      swap2\n      swap1\n      tag_73\n      jump\t// in\n    tag_157:\n        /* \"contracts/SimpleDex.sol\":2080:2173  require(tokenA.transferFrom(msg.sender, address(this), _amountAIn), \"Fallo en transferencia\") */\n      tag_158\n      jumpi\n      mload(0x40)\n      0x08c379a000000000000000000000000000000000000000000000000000000000\n      dup2\n      mstore\n      0x04\n      add\n      tag_159\n      swap1\n      tag_76\n      jump\t// in\n    tag_159:\n      mload(0x40)\n      dup1\n      swap2\n      sub\n      swap1\n      revert\n    tag_158:\n        /* \"contracts/SimpleDex.sol\":2186:2204  uint256 amountBOut */\n      0x00\n        /* \"contracts/SimpleDex.sol\":2207:2253  _getSwapOutput(_amountAIn, reserveA, reserveB) */\n      tag_160\n        /* \"contracts/SimpleDex.sol\":2222:2232  _amountAIn */\n      dup3\n        /* \"contracts/SimpleDex.sol\":2234:2242  reserveA */\n      sload(0x03)\n        /* \"contracts/SimpleDex.sol\":2244:2252  reserveB */\n      sload(0x04)\n        /* \"contracts/SimpleDex.sol\":2207:2221  _getSwapOutput */\n      tag_78\n        /* \"contracts/SimpleDex.sol\":2207:2253  _getSwapOutput(_amountAIn, reserveA, reserveB) */\n      jump\t// in\n    tag_160:\n        /* \"contracts/SimpleDex.sol\":2186:2253  uint256 amountBOut = _getSwapOutput(_amountAIn, reserveA, reserveB) */\n      swap1\n      pop\n        /* \"contracts/SimpleDex.sol\":2278:2288  _amountAIn */\n      dup2\n        /* \"contracts/SimpleDex.sol\":2266:2274  reserveA */\n      0x03\n      0x00\n        /* \"contracts/SimpleDex.sol\":2266:2288  reserveA += _amountAIn */\n      dup3\n      dup3\n      sload\n      tag_161\n      swap2\n      swap1\n      tag_80\n      jump\t// in\n    tag_161:\n      swap3\n      pop\n      pop\n      dup2\n      swap1\n      sstore\n      pop\n        /* \"contracts/SimpleDex.sol\":2311:2321  amountBOut */\n      dup1\n        /* \"contracts/SimpleDex.sol\":2299:2307  reserveB */\n      0x04\n      0x00\n        /* \"contracts/SimpleDex.sol\":2299:2321  reserveB -= amountBOut */\n      dup3\n      dup3\n      sload\n      tag_162\n      swap2\n      swap1\n      tag_82\n      jump\t// in\n    tag_162:\n      swap3\n      pop\n      pop\n      dup2\n      swap1\n      sstore\n      pop\n        /* \"contracts/SimpleDex.sol\":2342:2348  tokenB */\n      0x02\n      0x00\n      swap1\n      sload\n      swap1\n      0x0100\n      exp\n      swap1\n      div\n      0xffffffffffffffffffffffffffffffffffffffff\n      and\n        /* \"contracts/SimpleDex.sol\":2342:2357  tokenB.transfer */\n      0xffffffffffffffffffffffffffffffffffffffff\n      and\n      0xa9059cbb\n        /* \"contracts/SimpleDex.sol\":2358:2368  msg.sender */\n      caller\n        /* \"contracts/SimpleDex.sol\":2370:2380  amountBOut */\n      dup4\n        /* \"contracts/SimpleDex.sol\":2342:2381  tokenB.transfer(msg.sender, amountBOut) */\n      mload(0x40)\n      dup4\n      0xffffffff\n      and\n      0xe0\n      shl\n      dup2\n      mstore\n      0x04\n      add\n      tag_163\n      swap3\n      swap2\n      swap1\n      tag_84\n      jump\t// in\n    tag_163:\n      0x20\n      mload(0x40)\n      dup1\n      dup4\n      sub\n      dup2\n      0x00\n      dup8\n      gas\n      call\n      iszero\n      dup1\n      iszero\n      tag_165\n      jumpi\n      returndatasize\n      0x00\n      dup1\n      returndatacopy\n      revert(0x00, returndatasize)\n    tag_165:\n      pop\n      pop\n      pop\n      pop\n      mload(0x40)\n      returndatasize\n      not(0x1f)\n      0x1f\n      dup3\n      add\n      and\n      dup3\n      add\n      dup1\n      0x40\n      mstore\n      pop\n      dup2\n      add\n      swap1\n      tag_166\n      swap2\n      swap1\n      tag_73\n      jump\t// in\n    tag_166:\n        /* \"contracts/SimpleDex.sol\":2334:2412  require(tokenB.transfer(msg.sender, amountBOut), \"Fallo al transferir TokenB\") */\n      tag_167\n      jumpi\n      mload(0x40)\n      0x08c379a000000000000000000000000000000000000000000000000000000000\n      dup2\n      mstore\n      0x04\n      add\n      tag_168\n      swap1\n      tag_149\n      jump\t// in\n    tag_168:\n      mload(0x40)\n      dup1\n      swap2\n      sub\n      swap1\n      revert\n    tag_167:\n        /* \"contracts/SimpleDex.sol\":2438:2448  msg.sender */\n      caller\n        /* \"contracts/SimpleDex.sol\":2430:2481  Swapped(msg.sender, \"A->B\", _amountAIn, amountBOut) */\n      0xffffffffffffffffffffffffffffffffffffffff\n      and\n      0x8d400643fa1ccaba7ce092175917c6d7087e296293a5d0de32bccb310f4774ab\n        /* \"contracts/SimpleDex.sol\":2458:2468  _amountAIn */\n      dup4\n        /* \"contracts/SimpleDex.sol\":2470:2480  amountBOut */\n      dup4\n        /* \"contracts/SimpleDex.sol\":2430:2481  Swapped(msg.sender, \"A->B\", _amountAIn, amountBOut) */\n      mload(0x40)\n      tag_169\n      swap3\n      swap2\n      swap1\n      tag_170\n      jump\t// in\n    tag_169:\n      mload(0x40)\n      dup1\n      swap2\n      sub\n      swap1\n      log2\n        /* \"contracts/SimpleDex.sol\":2014:2489  {... */\n      pop\n        /* \"contracts/SimpleDex.sol\":1966:2489  function swapAforB(uint256 _amountAIn) external {... */\n      pop\n      jump\t// out\n        /* \"@openzeppelin/contracts/access/Ownable.sol\":2543:2758  function transferOwnership(address newOwner) public virtual onlyOwner {... */\n    tag_57:\n        /* \"@openzeppelin/contracts/access/Ownable.sol\":1531:1544  _checkOwner() */\n      tag_172\n        /* \"@openzeppelin/contracts/access/Ownable.sol\":1531:1542  _checkOwner */\n      tag_60\n        /* \"@openzeppelin/contracts/access/Ownable.sol\":1531:1544  _checkOwner() */\n      jump\t// in\n    tag_172:\n        /* \"@openzeppelin/contracts/access/Ownable.sol\":2647:2648  0 */\n      0x00\n        /* \"@openzeppelin/contracts/access/Ownable.sol\":2627:2649  newOwner == address(0) */\n      0xffffffffffffffffffffffffffffffffffffffff\n      and\n        /* \"@openzeppelin/contracts/access/Ownable.sol\":2627:2635  newOwner */\n      dup2\n        /* \"@openzeppelin/contracts/access/Ownable.sol\":2627:2649  newOwner == address(0) */\n      0xffffffffffffffffffffffffffffffffffffffff\n      and\n      sub\n        /* \"@openzeppelin/contracts/access/Ownable.sol\":2623:2714  if (newOwner == address(0)) {... */\n      tag_174\n      jumpi\n        /* \"@openzeppelin/contracts/access/Ownable.sol\":2700:2701  0 */\n      0x00\n        /* \"@openzeppelin/contracts/access/Ownable.sol\":2672:2703  OwnableInvalidOwner(address(0)) */\n      mload(0x40)\n      0x1e4fbdf700000000000000000000000000000000000000000000000000000000\n      dup2\n      mstore\n      0x04\n      add\n      tag_175\n      swap2\n      swap1\n      tag_36\n      jump\t// in\n    tag_175:\n      mload(0x40)\n      dup1\n      swap2\n      sub\n      swap1\n      revert\n        /* \"@openzeppelin/contracts/access/Ownable.sol\":2623:2714  if (newOwner == address(0)) {... */\n    tag_174:\n        /* \"@openzeppelin/contracts/access/Ownable.sol\":2723:2751  _transferOwnership(newOwner) */\n      tag_176\n        /* \"@openzeppelin/contracts/access/Ownable.sol\":2742:2750  newOwner */\n      dup2\n        /* \"@openzeppelin/contracts/access/Ownable.sol\":2723:2741  _transferOwnership */\n      tag_63\n        /* \"@openzeppelin/contracts/access/Ownable.sol\":2723:2751  _transferOwnership(newOwner) */\n      jump\t// in\n    tag_176:\n        /* \"@openzeppelin/contracts/access/Ownable.sol\":2543:2758  function transferOwnership(address newOwner) public virtual onlyOwner {... */\n      pop\n      jump\t// out\n        /* \"@openzeppelin/contracts/access/Ownable.sol\":1796:1958  function _checkOwner() internal view virtual {... */\n    tag_60:\n        /* \"@openzeppelin/contracts/access/Ownable.sol\":1866:1878  _msgSender() */\n      tag_178\n        /* \"@openzeppelin/contracts/access/Ownable.sol\":1866:1876  _msgSender */\n      tag_179\n        /* \"@openzeppelin/contracts/access/Ownable.sol\":1866:1878  _msgSender() */\n      jump\t// in\n    tag_178:\n        /* \"@openzeppelin/contracts/access/Ownable.sol\":1855:1878  owner() != _msgSender() */\n      0xffffffffffffffffffffffffffffffffffffffff\n      and\n        /* \"@openzeppelin/contracts/access/Ownable.sol\":1855:1862  owner() */\n      tag_180\n        /* \"@openzeppelin/contracts/access/Ownable.sol\":1855:1860  owner */\n      tag_34\n        /* \"@openzeppelin/contracts/access/Ownable.sol\":1855:1862  owner() */\n      jump\t// in\n    tag_180:\n        /* \"@openzeppelin/contracts/access/Ownable.sol\":1855:1878  owner() != _msgSender() */\n      0xffffffffffffffffffffffffffffffffffffffff\n      and\n      eq\n        /* \"@openzeppelin/contracts/access/Ownable.sol\":1851:1952  if (owner() != _msgSender()) {... */\n      tag_181\n      jumpi\n        /* \"@openzeppelin/contracts/access/Ownable.sol\":1928:1940  _msgSender() */\n      tag_182\n        /* \"@openzeppelin/contracts/access/Ownable.sol\":1928:1938  _msgSender */\n      tag_179\n        /* \"@openzeppelin/contracts/access/Ownable.sol\":1928:1940  _msgSender() */\n      jump\t// in\n    tag_182:\n        /* \"@openzeppelin/contracts/access/Ownable.sol\":1901:1941  OwnableUnauthorizedAccount(_msgSender()) */\n      mload(0x40)\n      0x118cdaa700000000000000000000000000000000000000000000000000000000\n      dup2\n      mstore\n      0x04\n      add\n      tag_183\n      swap2\n      swap1\n      tag_36\n      jump\t// in\n    tag_183:\n      mload(0x40)\n      dup1\n      swap2\n      sub\n      swap1\n      revert\n        /* \"@openzeppelin/contracts/access/Ownable.sol\":1851:1952  if (owner() != _msgSender()) {... */\n    tag_181:\n        /* \"@openzeppelin/contracts/access/Ownable.sol\":1796:1958  function _checkOwner() internal view virtual {... */\n      jump\t// out\n        /* \"@openzeppelin/contracts/access/Ownable.sol\":2912:3099  function _transferOwnership(address newOwner) internal virtual {... */\n    tag_63:\n        /* \"@openzeppelin/contracts/access/Ownable.sol\":2985:3001  address oldOwner */\n      0x00\n        /* \"@openzeppelin/contracts/access/Ownable.sol\":3004:3010  _owner */\n      dup1\n      0x00\n      swap1\n      sload\n      swap1\n      0x0100\n      exp\n      swap1\n      div\n      0xffffffffffffffffffffffffffffffffffffffff\n      and\n        /* \"@openzeppelin/contracts/access/Ownable.sol\":2985:3010  address oldOwner = _owner */\n      swap1\n      pop\n        /* \"@openzeppelin/contracts/access/Ownable.sol\":3029:3037  newOwner */\n      dup2\n        /* \"@openzeppelin/contracts/access/Ownable.sol\":3020:3026  _owner */\n      0x00\n      dup1\n        /* \"@openzeppelin/contracts/access/Ownable.sol\":3020:3037  _owner = newOwner */\n      0x0100\n      exp\n      dup2\n      sload\n      dup2\n      0xffffffffffffffffffffffffffffffffffffffff\n      mul\n      not\n      and\n      swap1\n      dup4\n      0xffffffffffffffffffffffffffffffffffffffff\n      and\n      mul\n      or\n      swap1\n      sstore\n      pop\n        /* \"@openzeppelin/contracts/access/Ownable.sol\":3083:3091  newOwner */\n      dup2\n        /* \"@openzeppelin/contracts/access/Ownable.sol\":3052:3092  OwnershipTransferred(oldOwner, newOwner) */\n      0xffffffffffffffffffffffffffffffffffffffff\n      and\n        /* \"@openzeppelin/contracts/access/Ownable.sol\":3073:3081  oldOwner */\n      dup2\n        /* \"@openzeppelin/contracts/access/Ownable.sol\":3052:3092  OwnershipTransferred(oldOwner, newOwner) */\n      0xffffffffffffffffffffffffffffffffffffffff\n      and\n      0x8be0079c531659141344cd1fd0a4f28419497f9722a3daafe3b4186f6b6457e0\n      mload(0x40)\n      mload(0x40)\n      dup1\n      swap2\n      sub\n      swap1\n      log3\n        /* \"@openzeppelin/contracts/access/Ownable.sol\":2975:3099  {... */\n      pop\n        /* \"@openzeppelin/contracts/access/Ownable.sol\":2912:3099  function _transferOwnership(address newOwner) internal virtual {... */\n      pop\n      jump\t// out\n        /* \"contracts/SimpleDex.sol\":3295:3746  function _getSwapOutput(uint256 inputAmount, uint256 inputReserve, uint256 outputReserve) internal pure returns (uint256) {... */\n    tag_78:\n        /* \"contracts/SimpleDex.sol\":3408:3415  uint256 */\n      0x00\n        /* \"contracts/SimpleDex.sol\":3451:3452  0 */\n      dup1\n        /* \"contracts/SimpleDex.sol\":3436:3448  inputReserve */\n      dup4\n        /* \"contracts/SimpleDex.sol\":3436:3452  inputReserve > 0 */\n      gt\n        /* \"contracts/SimpleDex.sol\":3436:3473  inputReserve > 0 && outputReserve > 0 */\n      dup1\n      iszero\n      tag_186\n      jumpi\n      pop\n        /* \"contracts/SimpleDex.sol\":3472:3473  0 */\n      0x00\n        /* \"contracts/SimpleDex.sol\":3456:3469  outputReserve */\n      dup3\n        /* \"contracts/SimpleDex.sol\":3456:3473  outputReserve > 0 */\n      gt\n        /* \"contracts/SimpleDex.sol\":3436:3473  inputReserve > 0 && outputReserve > 0 */\n    tag_186:\n        /* \"contracts/SimpleDex.sol\":3428:3493  require(inputReserve > 0 && outputReserve > 0, \"Reservas vacias\") */\n      tag_187\n      jumpi\n      mload(0x40)\n      0x08c379a000000000000000000000000000000000000000000000000000000000\n      dup2\n      mstore\n      0x04\n      add\n      tag_188\n      swap1\n      tag_189\n      jump\t// in\n    tag_188:\n      mload(0x40)\n      dup1\n      swap2\n      sub\n      swap1\n      revert\n    tag_187:\n        /* \"contracts/SimpleDex.sol\":3506:3526  uint256 inputWithFee */\n      0x00\n        /* \"contracts/SimpleDex.sol\":370:373  997 */\n      0x03e5\n        /* \"contracts/SimpleDex.sol\":3529:3540  inputAmount */\n      dup6\n        /* \"contracts/SimpleDex.sol\":3529:3556  inputAmount * FEE_NUMERATOR */\n      tag_190\n      swap2\n      swap1\n      tag_100\n      jump\t// in\n    tag_190:\n        /* \"contracts/SimpleDex.sol\":3506:3556  uint256 inputWithFee = inputAmount * FEE_NUMERATOR */\n      swap1\n      pop\n        /* \"contracts/SimpleDex.sol\":3567:3584  uint256 numerator */\n      0x00\n        /* \"contracts/SimpleDex.sol\":3602:3615  outputReserve */\n      dup4\n        /* \"contracts/SimpleDex.sol\":3587:3599  inputWithFee */\n      dup3\n        /* \"contracts/SimpleDex.sol\":3587:3615  inputWithFee * outputReserve */\n      tag_191\n      swap2\n      swap1\n      tag_100\n      jump\t// in\n    tag_191:\n        /* \"contracts/SimpleDex.sol\":3567:3615  uint256 numerator = inputWithFee * outputReserve */\n      swap1\n      pop\n        /* \"contracts/SimpleDex.sol\":3626:3645  uint256 denominator */\n      0x00\n        /* \"contracts/SimpleDex.sol\":3683:3695  inputWithFee */\n      dup3\n        /* \"contracts/SimpleDex.sol\":423:427  1000 */\n      0x03e8\n        /* \"contracts/SimpleDex.sol\":3649:3661  inputReserve */\n      dup8\n        /* \"contracts/SimpleDex.sol\":3649:3679  inputReserve * FEE_DENOMINATOR */\n      tag_192\n      swap2\n      swap1\n      tag_100\n      jump\t// in\n    tag_192:\n        /* \"contracts/SimpleDex.sol\":3648:3695  (inputReserve * FEE_DENOMINATOR) + inputWithFee */\n      tag_193\n      swap2\n      swap1\n      tag_80\n      jump\t// in\n    tag_193:\n        /* \"contracts/SimpleDex.sol\":3626:3695  uint256 denominator = (inputReserve * FEE_DENOMINATOR) + inputWithFee */\n      swap1\n      pop\n        /* \"contracts/SimpleDex.sol\":3727:3738  denominator */\n      dup1\n        /* \"contracts/SimpleDex.sol\":3715:3724  numerator */\n      dup3\n        /* \"contracts/SimpleDex.sol\":3715:3738  numerator / denominator */\n      tag_194\n      swap2\n      swap1\n      tag_102\n      jump\t// in\n    tag_194:\n        /* \"contracts/SimpleDex.sol\":3708:3738  return numerator / denominator */\n      swap4\n      pop\n      pop\n      pop\n      pop\n        /* \"contracts/SimpleDex.sol\":3295:3746  function _getSwapOutput(uint256 inputAmount, uint256 inputReserve, uint256 outputReserve) internal pure returns (uint256) {... */\n      swap4\n      swap3\n      pop\n      pop\n      pop\n      jump\t// out\n        /* \"@openzeppelin/contracts/utils/Context.sol\":656:752  function _msgSender() internal view virtual returns (address) {... */\n    tag_179:\n        /* \"@openzeppelin/contracts/utils/Context.sol\":709:716  address */\n      0x00\n        /* \"@openzeppelin/contracts/utils/Context.sol\":735:745  msg.sender */\n      caller\n        /* \"@openzeppelin/contracts/utils/Context.sol\":728:745  return msg.sender */\n      swap1\n      pop\n        /* \"@openzeppelin/contracts/utils/Context.sol\":656:752  function _msgSender() internal view virtual returns (address) {... */\n      swap1\n      jump\t// out\n        /* \"#utility.yul\":7:133   */\n    tag_196:\n        /* \"#utility.yul\":44:51   */\n      0x00\n        /* \"#utility.yul\":84:126   */\n      0xffffffffffffffffffffffffffffffffffffffff\n        /* \"#utility.yul\":77:82   */\n      dup3\n        /* \"#utility.yul\":73:127   */\n      and\n        /* \"#utility.yul\":62:127   */\n      swap1\n      pop\n        /* \"#utility.yul\":7:133   */\n      swap2\n      swap1\n      pop\n      jump\t// out\n        /* \"#utility.yul\":139:199   */\n    tag_197:\n        /* \"#utility.yul\":167:170   */\n      0x00\n        /* \"#utility.yul\":188:193   */\n      dup2\n        /* \"#utility.yul\":181:193   */\n      swap1\n      pop\n        /* \"#utility.yul\":139:199   */\n      swap2\n      swap1\n      pop\n      jump\t// out\n        /* \"#utility.yul\":205:347   */\n    tag_198:\n        /* \"#utility.yul\":255:264   */\n      0x00\n        /* \"#utility.yul\":288:341   */\n      tag_245\n        /* \"#utility.yul\":306:340   */\n      tag_246\n        /* \"#utility.yul\":315:339   */\n      tag_247\n        /* \"#utility.yul\":333:338   */\n      dup5\n        /* \"#utility.yul\":315:339   */\n      tag_196\n      jump\t// in\n    tag_247:\n        /* \"#utility.yul\":306:340   */\n      tag_197\n      jump\t// in\n    tag_246:\n        /* \"#utility.yul\":288:341   */\n      tag_196\n      jump\t// in\n    tag_245:\n        /* \"#utility.yul\":275:341   */\n      swap1\n      pop\n        /* \"#utility.yul\":205:347   */\n      swap2\n      swap1\n      pop\n      jump\t// out\n        /* \"#utility.yul\":353:479   */\n    tag_199:\n        /* \"#utility.yul\":403:412   */\n      0x00\n        /* \"#utility.yul\":436:473   */\n      tag_249\n        /* \"#utility.yul\":467:472   */\n      dup3\n        /* \"#utility.yul\":436:473   */\n      tag_198\n      jump\t// in\n    tag_249:\n        /* \"#utility.yul\":423:473   */\n      swap1\n      pop\n        /* \"#utility.yul\":353:479   */\n      swap2\n      swap1\n      pop\n      jump\t// out\n        /* \"#utility.yul\":485:625   */\n    tag_200:\n        /* \"#utility.yul\":549:558   */\n      0x00\n        /* \"#utility.yul\":582:619   */\n      tag_251\n        /* \"#utility.yul\":613:618   */\n      dup3\n        /* \"#utility.yul\":582:619   */\n      tag_199\n      jump\t// in\n    tag_251:\n        /* \"#utility.yul\":569:619   */\n      swap1\n      pop\n        /* \"#utility.yul\":485:625   */\n      swap2\n      swap1\n      pop\n      jump\t// out\n        /* \"#utility.yul\":631:790   */\n    tag_201:\n        /* \"#utility.yul\":732:783   */\n      tag_253\n        /* \"#utility.yul\":777:782   */\n      dup2\n        /* \"#utility.yul\":732:783   */\n      tag_200\n      jump\t// in\n    tag_253:\n        /* \"#utility.yul\":727:730   */\n      dup3\n        /* \"#utility.yul\":720:784   */\n      mstore\n        /* \"#utility.yul\":631:790   */\n      pop\n      pop\n      jump\t// out\n        /* \"#utility.yul\":796:1046   */\n    tag_19:\n        /* \"#utility.yul\":903:907   */\n      0x00\n        /* \"#utility.yul\":941:943   */\n      0x20\n        /* \"#utility.yul\":930:939   */\n      dup3\n        /* \"#utility.yul\":926:944   */\n      add\n        /* \"#utility.yul\":918:944   */\n      swap1\n      pop\n        /* \"#utility.yul\":954:1039   */\n      tag_255\n        /* \"#utility.yul\":1036:1037   */\n      0x00\n        /* \"#utility.yul\":1025:1034   */\n      dup4\n        /* \"#utility.yul\":1021:1038   */\n      add\n        /* \"#utility.yul\":1012:1018   */\n      dup5\n        /* \"#utility.yul\":954:1039   */\n      tag_201\n      jump\t// in\n    tag_255:\n        /* \"#utility.yul\":796:1046   */\n      swap3\n      swap2\n      pop\n      pop\n      jump\t// out\n        /* \"#utility.yul\":1052:1129   */\n    tag_202:\n        /* \"#utility.yul\":1089:1096   */\n      0x00\n        /* \"#utility.yul\":1118:1123   */\n      dup2\n        /* \"#utility.yul\":1107:1123   */\n      swap1\n      pop\n        /* \"#utility.yul\":1052:1129   */\n      swap2\n      swap1\n      pop\n      jump\t// out\n        /* \"#utility.yul\":1135:1253   */\n    tag_203:\n        /* \"#utility.yul\":1222:1246   */\n      tag_258\n        /* \"#utility.yul\":1240:1245   */\n      dup2\n        /* \"#utility.yul\":1222:1246   */\n      tag_202\n      jump\t// in\n    tag_258:\n        /* \"#utility.yul\":1217:1220   */\n      dup3\n        /* \"#utility.yul\":1210:1247   */\n      mstore\n        /* \"#utility.yul\":1135:1253   */\n      pop\n      pop\n      jump\t// out\n        /* \"#utility.yul\":1259:1481   */\n    tag_23:\n        /* \"#utility.yul\":1352:1356   */\n      0x00\n        /* \"#utility.yul\":1390:1392   */\n      0x20\n        /* \"#utility.yul\":1379:1388   */\n      dup3\n        /* \"#utility.yul\":1375:1393   */\n      add\n        /* \"#utility.yul\":1367:1393   */\n      swap1\n      pop\n        /* \"#utility.yul\":1403:1474   */\n      tag_260\n        /* \"#utility.yul\":1471:1472   */\n      0x00\n        /* \"#utility.yul\":1460:1469   */\n      dup4\n        /* \"#utility.yul\":1456:1473   */\n      add\n        /* \"#utility.yul\":1447:1453   */\n      dup5\n        /* \"#utility.yul\":1403:1474   */\n      tag_203\n      jump\t// in\n    tag_260:\n        /* \"#utility.yul\":1259:1481   */\n      swap3\n      swap2\n      pop\n      pop\n      jump\t// out\n        /* \"#utility.yul\":1568:1685   */\n    tag_205:\n        /* \"#utility.yul\":1677:1678   */\n      0x00\n        /* \"#utility.yul\":1674:1675   */\n      dup1\n        /* \"#utility.yul\":1667:1679   */\n      revert\n        /* \"#utility.yul\":1814:1936   */\n    tag_207:\n        /* \"#utility.yul\":1887:1911   */\n      tag_265\n        /* \"#utility.yul\":1905:1910   */\n      dup2\n        /* \"#utility.yul\":1887:1911   */\n      tag_202\n      jump\t// in\n    tag_265:\n        /* \"#utility.yul\":1880:1885   */\n      dup2\n        /* \"#utility.yul\":1877:1912   */\n      eq\n        /* \"#utility.yul\":1867:1930   */\n      tag_266\n      jumpi\n        /* \"#utility.yul\":1926:1927   */\n      0x00\n        /* \"#utility.yul\":1923:1924   */\n      dup1\n        /* \"#utility.yul\":1916:1928   */\n      revert\n        /* \"#utility.yul\":1867:1930   */\n    tag_266:\n        /* \"#utility.yul\":1814:1936   */\n      pop\n      jump\t// out\n        /* \"#utility.yul\":1942:2081   */\n    tag_208:\n        /* \"#utility.yul\":1988:1993   */\n      0x00\n        /* \"#utility.yul\":2026:2032   */\n      dup2\n        /* \"#utility.yul\":2013:2033   */\n      calldataload\n        /* \"#utility.yul\":2004:2033   */\n      swap1\n      pop\n        /* \"#utility.yul\":2042:2075   */\n      tag_268\n        /* \"#utility.yul\":2069:2074   */\n      dup2\n        /* \"#utility.yul\":2042:2075   */\n      tag_207\n      jump\t// in\n    tag_268:\n        /* \"#utility.yul\":1942:2081   */\n      swap3\n      swap2\n      pop\n      pop\n      jump\t// out\n        /* \"#utility.yul\":2087:2416   */\n    tag_31:\n        /* \"#utility.yul\":2146:2152   */\n      0x00\n        /* \"#utility.yul\":2195:2197   */\n      0x20\n        /* \"#utility.yul\":2183:2192   */\n      dup3\n        /* \"#utility.yul\":2174:2181   */\n      dup5\n        /* \"#utility.yul\":2170:2193   */\n      sub\n        /* \"#utility.yul\":2166:2198   */\n      slt\n        /* \"#utility.yul\":2163:2282   */\n      iszero\n      tag_270\n      jumpi\n        /* \"#utility.yul\":2201:2280   */\n      tag_271\n      tag_205\n      jump\t// in\n    tag_271:\n        /* \"#utility.yul\":2163:2282   */\n    tag_270:\n        /* \"#utility.yul\":2321:2322   */\n      0x00\n        /* \"#utility.yul\":2346:2399   */\n      tag_272\n        /* \"#utility.yul\":2391:2398   */\n      dup5\n        /* \"#utility.yul\":2382:2388   */\n      dup3\n        /* \"#utility.yul\":2371:2380   */\n      dup6\n        /* \"#utility.yul\":2367:2389   */\n      add\n        /* \"#utility.yul\":2346:2399   */\n      tag_208\n      jump\t// in\n    tag_272:\n        /* \"#utility.yul\":2336:2399   */\n      swap2\n      pop\n        /* \"#utility.yul\":2292:2409   */\n      pop\n        /* \"#utility.yul\":2087:2416   */\n      swap3\n      swap2\n      pop\n      pop\n      jump\t// out\n        /* \"#utility.yul\":2422:2518   */\n    tag_209:\n        /* \"#utility.yul\":2459:2466   */\n      0x00\n        /* \"#utility.yul\":2488:2512   */\n      tag_274\n        /* \"#utility.yul\":2506:2511   */\n      dup3\n        /* \"#utility.yul\":2488:2512   */\n      tag_196\n      jump\t// in\n    tag_274:\n        /* \"#utility.yul\":2477:2512   */\n      swap1\n      pop\n        /* \"#utility.yul\":2422:2518   */\n      swap2\n      swap1\n      pop\n      jump\t// out\n        /* \"#utility.yul\":2524:2642   */\n    tag_210:\n        /* \"#utility.yul\":2611:2635   */\n      tag_276\n        /* \"#utility.yul\":2629:2634   */\n      dup2\n        /* \"#utility.yul\":2611:2635   */\n      tag_209\n      jump\t// in\n    tag_276:\n        /* \"#utility.yul\":2606:2609   */\n      dup3\n        /* \"#utility.yul\":2599:2636   */\n      mstore\n        /* \"#utility.yul\":2524:2642   */\n      pop\n      pop\n      jump\t// out\n        /* \"#utility.yul\":2648:2870   */\n    tag_36:\n        /* \"#utility.yul\":2741:2745   */\n      0x00\n        /* \"#utility.yul\":2779:2781   */\n      0x20\n        /* \"#utility.yul\":2768:2777   */\n      dup3\n        /* \"#utility.yul\":2764:2782   */\n      add\n        /* \"#utility.yul\":2756:2782   */\n      swap1\n      pop\n        /* \"#utility.yul\":2792:2863   */\n      tag_278\n        /* \"#utility.yul\":2860:2861   */\n      0x00\n        /* \"#utility.yul\":2849:2858   */\n      dup4\n        /* \"#utility.yul\":2845:2862   */\n      add\n        /* \"#utility.yul\":2836:2842   */\n      dup5\n        /* \"#utility.yul\":2792:2863   */\n      tag_210\n      jump\t// in\n    tag_278:\n        /* \"#utility.yul\":2648:2870   */\n      swap3\n      swap2\n      pop\n      pop\n      jump\t// out\n        /* \"#utility.yul\":2876:3208   */\n    tag_40:\n        /* \"#utility.yul\":2997:3001   */\n      0x00\n        /* \"#utility.yul\":3035:3037   */\n      0x40\n        /* \"#utility.yul\":3024:3033   */\n      dup3\n        /* \"#utility.yul\":3020:3038   */\n      add\n        /* \"#utility.yul\":3012:3038   */\n      swap1\n      pop\n        /* \"#utility.yul\":3048:3119   */\n      tag_280\n        /* \"#utility.yul\":3116:3117   */\n      0x00\n        /* \"#utility.yul\":3105:3114   */\n      dup4\n        /* \"#utility.yul\":3101:3118   */\n      add\n        /* \"#utility.yul\":3092:3098   */\n      dup6\n        /* \"#utility.yul\":3048:3119   */\n      tag_203\n      jump\t// in\n    tag_280:\n        /* \"#utility.yul\":3129:3201   */\n      tag_281\n        /* \"#utility.yul\":3197:3199   */\n      0x20\n        /* \"#utility.yul\":3186:3195   */\n      dup4\n        /* \"#utility.yul\":3182:3200   */\n      add\n        /* \"#utility.yul\":3173:3179   */\n      dup5\n        /* \"#utility.yul\":3129:3201   */\n      tag_203\n      jump\t// in\n    tag_281:\n        /* \"#utility.yul\":2876:3208   */\n      swap4\n      swap3\n      pop\n      pop\n      pop\n      jump\t// out\n        /* \"#utility.yul\":3214:3688   */\n    tag_43:\n        /* \"#utility.yul\":3282:3288   */\n      0x00\n        /* \"#utility.yul\":3290:3296   */\n      dup1\n        /* \"#utility.yul\":3339:3341   */\n      0x40\n        /* \"#utility.yul\":3327:3336   */\n      dup4\n        /* \"#utility.yul\":3318:3325   */\n      dup6\n        /* \"#utility.yul\":3314:3337   */\n      sub\n        /* \"#utility.yul\":3310:3342   */\n      slt\n        /* \"#utility.yul\":3307:3426   */\n      iszero\n      tag_283\n      jumpi\n        /* \"#utility.yul\":3345:3424   */\n      tag_284\n      tag_205\n      jump\t// in\n    tag_284:\n        /* \"#utility.yul\":3307:3426   */\n    tag_283:\n        /* \"#utility.yul\":3465:3466   */\n      0x00\n        /* \"#utility.yul\":3490:3543   */\n      tag_285\n        /* \"#utility.yul\":3535:3542   */\n      dup6\n        /* \"#utility.yul\":3526:3532   */\n      dup3\n        /* \"#utility.yul\":3515:3524   */\n      dup7\n        /* \"#utility.yul\":3511:3533   */\n      add\n        /* \"#utility.yul\":3490:3543   */\n      tag_208\n      jump\t// in\n    tag_285:\n        /* \"#utility.yul\":3480:3543   */\n      swap3\n      pop\n        /* \"#utility.yul\":3436:3553   */\n      pop\n        /* \"#utility.yul\":3592:3594   */\n      0x20\n        /* \"#utility.yul\":3618:3671   */\n      tag_286\n        /* \"#utility.yul\":3663:3670   */\n      dup6\n        /* \"#utility.yul\":3654:3660   */\n      dup3\n        /* \"#utility.yul\":3643:3652   */\n      dup7\n        /* \"#utility.yul\":3639:3661   */\n      add\n        /* \"#utility.yul\":3618:3671   */\n      tag_208\n      jump\t// in\n    tag_286:\n        /* \"#utility.yul\":3608:3671   */\n      swap2\n      pop\n        /* \"#utility.yul\":3563:3681   */\n      pop\n        /* \"#utility.yul\":3214:3688   */\n      swap3\n      pop\n      swap3\n      swap1\n      pop\n      jump\t// out\n        /* \"#utility.yul\":3694:3816   */\n    tag_211:\n        /* \"#utility.yul\":3767:3791   */\n      tag_288\n        /* \"#utility.yul\":3785:3790   */\n      dup2\n        /* \"#utility.yul\":3767:3791   */\n      tag_209\n      jump\t// in\n    tag_288:\n        /* \"#utility.yul\":3760:3765   */\n      dup2\n        /* \"#utility.yul\":3757:3792   */\n      eq\n        /* \"#utility.yul\":3747:3810   */\n      tag_289\n      jumpi\n        /* \"#utility.yul\":3806:3807   */\n      0x00\n        /* \"#utility.yul\":3803:3804   */\n      dup1\n        /* \"#utility.yul\":3796:3808   */\n      revert\n        /* \"#utility.yul\":3747:3810   */\n    tag_289:\n        /* \"#utility.yul\":3694:3816   */\n      pop\n      jump\t// out\n        /* \"#utility.yul\":3822:3961   */\n    tag_212:\n        /* \"#utility.yul\":3868:3873   */\n      0x00\n        /* \"#utility.yul\":3906:3912   */\n      dup2\n        /* \"#utility.yul\":3893:3913   */\n      calldataload\n        /* \"#utility.yul\":3884:3913   */\n      swap1\n      pop\n        /* \"#utility.yul\":3922:3955   */\n      tag_291\n        /* \"#utility.yul\":3949:3954   */\n      dup2\n        /* \"#utility.yul\":3922:3955   */\n      tag_211\n      jump\t// in\n    tag_291:\n        /* \"#utility.yul\":3822:3961   */\n      swap3\n      swap2\n      pop\n      pop\n      jump\t// out\n        /* \"#utility.yul\":3967:4296   */\n    tag_56:\n        /* \"#utility.yul\":4026:4032   */\n      0x00\n        /* \"#utility.yul\":4075:4077   */\n      0x20\n        /* \"#utility.yul\":4063:4072   */\n      dup3\n        /* \"#utility.yul\":4054:4061   */\n      dup5\n        /* \"#utility.yul\":4050:4073   */\n      sub\n        /* \"#utility.yul\":4046:4078   */\n      slt\n        /* \"#utility.yul\":4043:4162   */\n      iszero\n      tag_293\n      jumpi\n        /* \"#utility.yul\":4081:4160   */\n      tag_294\n      tag_205\n      jump\t// in\n    tag_294:\n        /* \"#utility.yul\":4043:4162   */\n    tag_293:\n        /* \"#utility.yul\":4201:4202   */\n      0x00\n        /* \"#utility.yul\":4226:4279   */\n      tag_295\n        /* \"#utility.yul\":4271:4278   */\n      dup5\n        /* \"#utility.yul\":4262:4268   */\n      dup3\n        /* \"#utility.yul\":4251:4260   */\n      dup6\n        /* \"#utility.yul\":4247:4269   */\n      add\n        /* \"#utility.yul\":4226:4279   */\n      tag_212\n      jump\t// in\n    tag_295:\n        /* \"#utility.yul\":4216:4279   */\n      swap2\n      pop\n        /* \"#utility.yul\":4172:4289   */\n      pop\n        /* \"#utility.yul\":3967:4296   */\n      swap3\n      swap2\n      pop\n      pop\n      jump\t// out\n        /* \"#utility.yul\":4302:4471   */\n    tag_213:\n        /* \"#utility.yul\":4386:4397   */\n      0x00\n        /* \"#utility.yul\":4420:4426   */\n      dup3\n        /* \"#utility.yul\":4415:4418   */\n      dup3\n        /* \"#utility.yul\":4408:4427   */\n      mstore\n        /* \"#utility.yul\":4460:4464   */\n      0x20\n        /* \"#utility.yul\":4455:4458   */\n      dup3\n        /* \"#utility.yul\":4451:4465   */\n      add\n        /* \"#utility.yul\":4436:4465   */\n      swap1\n      pop\n        /* \"#utility.yul\":4302:4471   */\n      swap3\n      swap2\n      pop\n      pop\n      jump\t// out\n        /* \"#utility.yul\":4477:4644   */\n    tag_214:\n        /* \"#utility.yul\":4617:4636   */\n      0x43616e746964616420696e76616c696461000000000000000000000000000000\n        /* \"#utility.yul\":4613:4614   */\n      0x00\n        /* \"#utility.yul\":4605:4611   */\n      dup3\n        /* \"#utility.yul\":4601:4615   */\n      add\n        /* \"#utility.yul\":4594:4637   */\n      mstore\n        /* \"#utility.yul\":4477:4644   */\n      pop\n      jump\t// out\n        /* \"#utility.yul\":4650:5016   */\n    tag_215:\n        /* \"#utility.yul\":4792:4795   */\n      0x00\n        /* \"#utility.yul\":4813:4880   */\n      tag_299\n        /* \"#utility.yul\":4877:4879   */\n      0x11\n        /* \"#utility.yul\":4872:4875   */\n      dup4\n        /* \"#utility.yul\":4813:4880   */\n      tag_213\n      jump\t// in\n    tag_299:\n        /* \"#utility.yul\":4806:4880   */\n      swap2\n      pop\n        /* \"#utility.yul\":4889:4982   */\n      tag_300\n        /* \"#utility.yul\":4978:4981   */\n      dup3\n        /* \"#utility.yul\":4889:4982   */\n      tag_214\n      jump\t// in\n    tag_300:\n        /* \"#utility.yul\":5007:5009   */\n      0x20\n        /* \"#utility.yul\":5002:5005   */\n      dup3\n        /* \"#utility.yul\":4998:5010   */\n      add\n        /* \"#utility.yul\":4991:5010   */\n      swap1\n      pop\n        /* \"#utility.yul\":4650:5016   */\n      swap2\n      swap1\n      pop\n      jump\t// out\n        /* \"#utility.yul\":5022:5441   */\n    tag_67:\n        /* \"#utility.yul\":5188:5192   */\n      0x00\n        /* \"#utility.yul\":5226:5228   */\n      0x20\n        /* \"#utility.yul\":5215:5224   */\n      dup3\n        /* \"#utility.yul\":5211:5229   */\n      add\n        /* \"#utility.yul\":5203:5229   */\n      swap1\n      pop\n        /* \"#utility.yul\":5275:5284   */\n      dup2\n        /* \"#utility.yul\":5269:5273   */\n      dup2\n        /* \"#utility.yul\":5265:5285   */\n      sub\n        /* \"#utility.yul\":5261:5262   */\n      0x00\n        /* \"#utility.yul\":5250:5259   */\n      dup4\n        /* \"#utility.yul\":5246:5263   */\n      add\n        /* \"#utility.yul\":5239:5286   */\n      mstore\n        /* \"#utility.yul\":5303:5434   */\n      tag_302\n        /* \"#utility.yul\":5429:5433   */\n      dup2\n        /* \"#utility.yul\":5303:5434   */\n      tag_215\n      jump\t// in\n    tag_302:\n        /* \"#utility.yul\":5295:5434   */\n      swap1\n      pop\n        /* \"#utility.yul\":5022:5441   */\n      swap2\n      swap1\n      pop\n      jump\t// out\n        /* \"#utility.yul\":5447:5889   */\n    tag_69:\n        /* \"#utility.yul\":5596:5600   */\n      0x00\n        /* \"#utility.yul\":5634:5636   */\n      0x60\n        /* \"#utility.yul\":5623:5632   */\n      dup3\n        /* \"#utility.yul\":5619:5637   */\n      add\n        /* \"#utility.yul\":5611:5637   */\n      swap1\n      pop\n        /* \"#utility.yul\":5647:5718   */\n      tag_304\n        /* \"#utility.yul\":5715:5716   */\n      0x00\n        /* \"#utility.yul\":5704:5713   */\n      dup4\n        /* \"#utility.yul\":5700:5717   */\n      add\n        /* \"#utility.yul\":5691:5697   */\n      dup7\n        /* \"#utility.yul\":5647:5718   */\n      tag_210\n      jump\t// in\n    tag_304:\n        /* \"#utility.yul\":5728:5800   */\n      tag_305\n        /* \"#utility.yul\":5796:5798   */\n      0x20\n        /* \"#utility.yul\":5785:5794   */\n      dup4\n        /* \"#utility.yul\":5781:5799   */\n      add\n        /* \"#utility.yul\":5772:5778   */\n      dup6\n        /* \"#utility.yul\":5728:5800   */\n      tag_210\n      jump\t// in\n    tag_305:\n        /* \"#utility.yul\":5810:5882   */\n      tag_306\n        /* \"#utility.yul\":5878:5880   */\n      0x40\n        /* \"#utility.yul\":5867:5876   */\n      dup4\n        /* \"#utility.yul\":5863:5881   */\n      add\n        /* \"#utility.yul\":5854:5860   */\n      dup5\n        /* \"#utility.yul\":5810:5882   */\n      tag_203\n      jump\t// in\n    tag_306:\n        /* \"#utility.yul\":5447:5889   */\n      swap5\n      swap4\n      pop\n      pop\n      pop\n      pop\n      jump\t// out\n        /* \"#utility.yul\":5895:5985   */\n    tag_216:\n        /* \"#utility.yul\":5929:5936   */\n      0x00\n        /* \"#utility.yul\":5972:5977   */\n      dup2\n        /* \"#utility.yul\":5965:5978   */\n      iszero\n        /* \"#utility.yul\":5958:5979   */\n      iszero\n        /* \"#utility.yul\":5947:5979   */\n      swap1\n      pop\n        /* \"#utility.yul\":5895:5985   */\n      swap2\n      swap1\n      pop\n      jump\t// out\n        /* \"#utility.yul\":5991:6107   */\n    tag_217:\n        /* \"#utility.yul\":6061:6082   */\n      tag_309\n        /* \"#utility.yul\":6076:6081   */\n      dup2\n        /* \"#utility.yul\":6061:6082   */\n      tag_216\n      jump\t// in\n    tag_309:\n        /* \"#utility.yul\":6054:6059   */\n      dup2\n        /* \"#utility.yul\":6051:6083   */\n      eq\n        /* \"#utility.yul\":6041:6101   */\n      tag_310\n      jumpi\n        /* \"#utility.yul\":6097:6098   */\n      0x00\n        /* \"#utility.yul\":6094:6095   */\n      dup1\n        /* \"#utility.yul\":6087:6099   */\n      revert\n        /* \"#utility.yul\":6041:6101   */\n    tag_310:\n        /* \"#utility.yul\":5991:6107   */\n      pop\n      jump\t// out\n        /* \"#utility.yul\":6113:6250   */\n    tag_218:\n        /* \"#utility.yul\":6167:6172   */\n      0x00\n        /* \"#utility.yul\":6198:6204   */\n      dup2\n        /* \"#utility.yul\":6192:6205   */\n      mload\n        /* \"#utility.yul\":6183:6205   */\n      swap1\n      pop\n        /* \"#utility.yul\":6214:6244   */\n      tag_312\n        /* \"#utility.yul\":6238:6243   */\n      dup2\n        /* \"#utility.yul\":6214:6244   */\n      tag_217\n      jump\t// in\n    tag_312:\n        /* \"#utility.yul\":6113:6250   */\n      swap3\n      swap2\n      pop\n      pop\n      jump\t// out\n        /* \"#utility.yul\":6256:6601   */\n    tag_73:\n        /* \"#utility.yul\":6323:6329   */\n      0x00\n        /* \"#utility.yul\":6372:6374   */\n      0x20\n        /* \"#utility.yul\":6360:6369   */\n      dup3\n        /* \"#utility.yul\":6351:6358   */\n      dup5\n        /* \"#utility.yul\":6347:6370   */\n      sub\n        /* \"#utility.yul\":6343:6375   */\n      slt\n        /* \"#utility.yul\":6340:6459   */\n      iszero\n      tag_314\n      jumpi\n        /* \"#utility.yul\":6378:6457   */\n      tag_315\n      tag_205\n      jump\t// in\n    tag_315:\n        /* \"#utility.yul\":6340:6459   */\n    tag_314:\n        /* \"#utility.yul\":6498:6499   */\n      0x00\n        /* \"#utility.yul\":6523:6584   */\n      tag_316\n        /* \"#utility.yul\":6576:6583   */\n      dup5\n        /* \"#utility.yul\":6567:6573   */\n      dup3\n        /* \"#utility.yul\":6556:6565   */\n      dup6\n        /* \"#utility.yul\":6552:6574   */\n      add\n        /* \"#utility.yul\":6523:6584   */\n      tag_218\n      jump\t// in\n    tag_316:\n        /* \"#utility.yul\":6513:6584   */\n      swap2\n      pop\n        /* \"#utility.yul\":6469:6594   */\n      pop\n        /* \"#utility.yul\":6256:6601   */\n      swap3\n      swap2\n      pop\n      pop\n      jump\t// out\n        /* \"#utility.yul\":6607:6779   */\n    tag_219:\n        /* \"#utility.yul\":6747:6771   */\n      0x46616c6c6f20656e207472616e73666572656e63696100000000000000000000\n        /* \"#utility.yul\":6743:6744   */\n      0x00\n        /* \"#utility.yul\":6735:6741   */\n      dup3\n        /* \"#utility.yul\":6731:6745   */\n      add\n        /* \"#utility.yul\":6724:6772   */\n      mstore\n        /* \"#utility.yul\":6607:6779   */\n      pop\n      jump\t// out\n        /* \"#utility.yul\":6785:7151   */\n    tag_220:\n        /* \"#utility.yul\":6927:6930   */\n      0x00\n        /* \"#utility.yul\":6948:7015   */\n      tag_319\n        /* \"#utility.yul\":7012:7014   */\n      0x16\n        /* \"#utility.yul\":7007:7010   */\n      dup4\n        /* \"#utility.yul\":6948:7015   */\n      tag_213\n      jump\t// in\n    tag_319:\n        /* \"#utility.yul\":6941:7015   */\n      swap2\n      pop\n        /* \"#utility.yul\":7024:7117   */\n      tag_320\n        /* \"#utility.yul\":7113:7116   */\n      dup3\n        /* \"#utility.yul\":7024:7117   */\n      tag_219\n      jump\t// in\n    tag_320:\n        /* \"#utility.yul\":7142:7144   */\n      0x20\n        /* \"#utility.yul\":7137:7140   */\n      dup3\n        /* \"#utility.yul\":7133:7145   */\n      add\n        /* \"#utility.yul\":7126:7145   */\n      swap1\n      pop\n        /* \"#utility.yul\":6785:7151   */\n      swap2\n      swap1\n      pop\n      jump\t// out\n        /* \"#utility.yul\":7157:7576   */\n    tag_76:\n        /* \"#utility.yul\":7323:7327   */\n      0x00\n        /* \"#utility.yul\":7361:7363   */\n      0x20\n        /* \"#utility.yul\":7350:7359   */\n      dup3\n        /* \"#utility.yul\":7346:7364   */\n      add\n        /* \"#utility.yul\":7338:7364   */\n      swap1\n      pop\n        /* \"#utility.yul\":7410:7419   */\n      dup2\n        /* \"#utility.yul\":7404:7408   */\n      dup2\n        /* \"#utility.yul\":7400:7420   */\n      sub\n        /* \"#utility.yul\":7396:7397   */\n      0x00\n        /* \"#utility.yul\":7385:7394   */\n      dup4\n        /* \"#utility.yul\":7381:7398   */\n      add\n        /* \"#utility.yul\":7374:7421   */\n      mstore\n        /* \"#utility.yul\":7438:7569   */\n      tag_322\n        /* \"#utility.yul\":7564:7568   */\n      dup2\n        /* \"#utility.yul\":7438:7569   */\n      tag_220\n      jump\t// in\n    tag_322:\n        /* \"#utility.yul\":7430:7569   */\n      swap1\n      pop\n        /* \"#utility.yul\":7157:7576   */\n      swap2\n      swap1\n      pop\n      jump\t// out\n        /* \"#utility.yul\":7582:7762   */\n    tag_221:\n        /* \"#utility.yul\":7630:7707   */\n      0x4e487b7100000000000000000000000000000000000000000000000000000000\n        /* \"#utility.yul\":7627:7628   */\n      0x00\n        /* \"#utility.yul\":7620:7708   */\n      mstore\n        /* \"#utility.yul\":7727:7731   */\n      0x11\n        /* \"#utility.yul\":7724:7725   */\n      0x04\n        /* \"#utility.yul\":7717:7732   */\n      mstore\n        /* \"#utility.yul\":7751:7755   */\n      0x24\n        /* \"#utility.yul\":7748:7749   */\n      0x00\n        /* \"#utility.yul\":7741:7756   */\n      revert\n        /* \"#utility.yul\":7768:7959   */\n    tag_80:\n        /* \"#utility.yul\":7808:7811   */\n      0x00\n        /* \"#utility.yul\":7827:7847   */\n      tag_325\n        /* \"#utility.yul\":7845:7846   */\n      dup3\n        /* \"#utility.yul\":7827:7847   */\n      tag_202\n      jump\t// in\n    tag_325:\n        /* \"#utility.yul\":7822:7847   */\n      swap2\n      pop\n        /* \"#utility.yul\":7861:7881   */\n      tag_326\n        /* \"#utility.yul\":7879:7880   */\n      dup4\n        /* \"#utility.yul\":7861:7881   */\n      tag_202\n      jump\t// in\n    tag_326:\n        /* \"#utility.yul\":7856:7881   */\n      swap3\n      pop\n        /* \"#utility.yul\":7904:7905   */\n      dup3\n        /* \"#utility.yul\":7901:7902   */\n      dup3\n        /* \"#utility.yul\":7897:7906   */\n      add\n        /* \"#utility.yul\":7890:7906   */\n      swap1\n      pop\n        /* \"#utility.yul\":7925:7928   */\n      dup1\n        /* \"#utility.yul\":7922:7923   */\n      dup3\n        /* \"#utility.yul\":7919:7929   */\n      gt\n        /* \"#utility.yul\":7916:7952   */\n      iszero\n      tag_327\n      jumpi\n        /* \"#utility.yul\":7932:7950   */\n      tag_328\n      tag_221\n      jump\t// in\n    tag_328:\n        /* \"#utility.yul\":7916:7952   */\n    tag_327:\n        /* \"#utility.yul\":7768:7959   */\n      swap3\n      swap2\n      pop\n      pop\n      jump\t// out\n        /* \"#utility.yul\":7965:8159   */\n    tag_82:\n        /* \"#utility.yul\":8005:8009   */\n      0x00\n        /* \"#utility.yul\":8025:8045   */\n      tag_330\n        /* \"#utility.yul\":8043:8044   */\n      dup3\n        /* \"#utility.yul\":8025:8045   */\n      tag_202\n      jump\t// in\n    tag_330:\n        /* \"#utility.yul\":8020:8045   */\n      swap2\n      pop\n        /* \"#utility.yul\":8059:8079   */\n      tag_331\n        /* \"#utility.yul\":8077:8078   */\n      dup4\n        /* \"#utility.yul\":8059:8079   */\n      tag_202\n      jump\t// in\n    tag_331:\n        /* \"#utility.yul\":8054:8079   */\n      swap3\n      pop\n        /* \"#utility.yul\":8103:8104   */\n      dup3\n        /* \"#utility.yul\":8100:8101   */\n      dup3\n        /* \"#utility.yul\":8096:8105   */\n      sub\n        /* \"#utility.yul\":8088:8105   */\n      swap1\n      pop\n        /* \"#utility.yul\":8127:8128   */\n      dup2\n        /* \"#utility.yul\":8121:8125   */\n      dup2\n        /* \"#utility.yul\":8118:8129   */\n      gt\n        /* \"#utility.yul\":8115:8152   */\n      iszero\n      tag_332\n      jumpi\n        /* \"#utility.yul\":8132:8150   */\n      tag_333\n      tag_221\n      jump\t// in\n    tag_333:\n        /* \"#utility.yul\":8115:8152   */\n    tag_332:\n        /* \"#utility.yul\":7965:8159   */\n      swap3\n      swap2\n      pop\n      pop\n      jump\t// out\n        /* \"#utility.yul\":8165:8497   */\n    tag_84:\n        /* \"#utility.yul\":8286:8290   */\n      0x00\n        /* \"#utility.yul\":8324:8326   */\n      0x40\n        /* \"#utility.yul\":8313:8322   */\n      dup3\n        /* \"#utility.yul\":8309:8327   */\n      add\n        /* \"#utility.yul\":8301:8327   */\n      swap1\n      pop\n        /* \"#utility.yul\":8337:8408   */\n      tag_335\n        /* \"#utility.yul\":8405:8406   */\n      0x00\n        /* \"#utility.yul\":8394:8403   */\n      dup4\n        /* \"#utility.yul\":8390:8407   */\n      add\n        /* \"#utility.yul\":8381:8387   */\n      dup6\n        /* \"#utility.yul\":8337:8408   */\n      tag_210\n      jump\t// in\n    tag_335:\n        /* \"#utility.yul\":8418:8490   */\n      tag_336\n        /* \"#utility.yul\":8486:8488   */\n      0x20\n        /* \"#utility.yul\":8475:8484   */\n      dup4\n        /* \"#utility.yul\":8471:8489   */\n      add\n        /* \"#utility.yul\":8462:8468   */\n      dup5\n        /* \"#utility.yul\":8418:8490   */\n      tag_203\n      jump\t// in\n    tag_336:\n        /* \"#utility.yul\":8165:8497   */\n      swap4\n      swap3\n      pop\n      pop\n      pop\n      jump\t// out\n        /* \"#utility.yul\":8503:8679   */\n    tag_222:\n        /* \"#utility.yul\":8643:8671   */\n      0x46616c6c6f20616c207472616e73666572697220546f6b656e41000000000000\n        /* \"#utility.yul\":8639:8640   */\n      0x00\n        /* \"#utility.yul\":8631:8637   */\n      dup3\n        /* \"#utility.yul\":8627:8641   */\n      add\n        /* \"#utility.yul\":8620:8672   */\n      mstore\n        /* \"#utility.yul\":8503:8679   */\n      pop\n      jump\t// out\n        /* \"#utility.yul\":8685:9051   */\n    tag_223:\n        /* \"#utility.yul\":8827:8830   */\n      0x00\n        /* \"#utility.yul\":8848:8915   */\n      tag_339\n        /* \"#utility.yul\":8912:8914   */\n      0x1a\n        /* \"#utility.yul\":8907:8910   */\n      dup4\n        /* \"#utility.yul\":8848:8915   */\n      tag_213\n      jump\t// in\n    tag_339:\n        /* \"#utility.yul\":8841:8915   */\n      swap2\n      pop\n        /* \"#utility.yul\":8924:9017   */\n      tag_340\n        /* \"#utility.yul\":9013:9016   */\n      dup3\n        /* \"#utility.yul\":8924:9017   */\n      tag_222\n      jump\t// in\n    tag_340:\n        /* \"#utility.yul\":9042:9044   */\n      0x20\n        /* \"#utility.yul\":9037:9040   */\n      dup3\n        /* \"#utility.yul\":9033:9045   */\n      add\n        /* \"#utility.yul\":9026:9045   */\n      swap1\n      pop\n        /* \"#utility.yul\":8685:9051   */\n      swap2\n      swap1\n      pop\n      jump\t// out\n        /* \"#utility.yul\":9057:9476   */\n    tag_90:\n        /* \"#utility.yul\":9223:9227   */\n      0x00\n        /* \"#utility.yul\":9261:9263   */\n      0x20\n        /* \"#utility.yul\":9250:9259   */\n      dup3\n        /* \"#utility.yul\":9246:9264   */\n      add\n        /* \"#utility.yul\":9238:9264   */\n      swap1\n      pop\n        /* \"#utility.yul\":9310:9319   */\n      dup2\n        /* \"#utility.yul\":9304:9308   */\n      dup2\n        /* \"#utility.yul\":9300:9320   */\n      sub\n        /* \"#utility.yul\":9296:9297   */\n      0x00\n        /* \"#utility.yul\":9285:9294   */\n      dup4\n        /* \"#utility.yul\":9281:9298   */\n      add\n        /* \"#utility.yul\":9274:9321   */\n      mstore\n        /* \"#utility.yul\":9338:9469   */\n      tag_342\n        /* \"#utility.yul\":9464:9468   */\n      dup2\n        /* \"#utility.yul\":9338:9469   */\n      tag_223\n      jump\t// in\n    tag_342:\n        /* \"#utility.yul\":9330:9469   */\n      swap1\n      pop\n        /* \"#utility.yul\":9057:9476   */\n      swap2\n      swap1\n      pop\n      jump\t// out\n        /* \"#utility.yul\":9482:9636   */\n    tag_224:\n        /* \"#utility.yul\":9622:9628   */\n      0x422d3e4100000000000000000000000000000000000000000000000000000000\n        /* \"#utility.yul\":9618:9619   */\n      0x00\n        /* \"#utility.yul\":9610:9616   */\n      dup3\n        /* \"#utility.yul\":9606:9620   */\n      add\n        /* \"#utility.yul\":9599:9629   */\n      mstore\n        /* \"#utility.yul\":9482:9636   */\n      pop\n      jump\t// out\n        /* \"#utility.yul\":9642:10007   */\n    tag_225:\n        /* \"#utility.yul\":9784:9787   */\n      0x00\n        /* \"#utility.yul\":9805:9871   */\n      tag_345\n        /* \"#utility.yul\":9869:9870   */\n      0x04\n        /* \"#utility.yul\":9864:9867   */\n      dup4\n        /* \"#utility.yul\":9805:9871   */\n      tag_213\n      jump\t// in\n    tag_345:\n        /* \"#utility.yul\":9798:9871   */\n      swap2\n      pop\n        /* \"#utility.yul\":9880:9973   */\n      tag_346\n        /* \"#utility.yul\":9969:9972   */\n      dup3\n        /* \"#utility.yul\":9880:9973   */\n      tag_224\n      jump\t// in\n    tag_346:\n        /* \"#utility.yul\":9998:10000   */\n      0x20\n        /* \"#utility.yul\":9993:9996   */\n      dup3\n        /* \"#utility.yul\":9989:10001   */\n      add\n        /* \"#utility.yul\":9982:10001   */\n      swap1\n      pop\n        /* \"#utility.yul\":9642:10007   */\n      swap2\n      swap1\n      pop\n      jump\t// out\n        /* \"#utility.yul\":10013:10652   */\n    tag_92:\n        /* \"#utility.yul\":10235:10239   */\n      0x00\n        /* \"#utility.yul\":10273:10275   */\n      0x60\n        /* \"#utility.yul\":10262:10271   */\n      dup3\n        /* \"#utility.yul\":10258:10276   */\n      add\n        /* \"#utility.yul\":10250:10276   */\n      swap1\n      pop\n        /* \"#utility.yul\":10322:10331   */\n      dup2\n        /* \"#utility.yul\":10316:10320   */\n      dup2\n        /* \"#utility.yul\":10312:10332   */\n      sub\n        /* \"#utility.yul\":10308:10309   */\n      0x00\n        /* \"#utility.yul\":10297:10306   */\n      dup4\n        /* \"#utility.yul\":10293:10310   */\n      add\n        /* \"#utility.yul\":10286:10333   */\n      mstore\n        /* \"#utility.yul\":10350:10481   */\n      tag_348\n        /* \"#utility.yul\":10476:10480   */\n      dup2\n        /* \"#utility.yul\":10350:10481   */\n      tag_225\n      jump\t// in\n    tag_348:\n        /* \"#utility.yul\":10342:10481   */\n      swap1\n      pop\n        /* \"#utility.yul\":10491:10563   */\n      tag_349\n        /* \"#utility.yul\":10559:10561   */\n      0x20\n        /* \"#utility.yul\":10548:10557   */\n      dup4\n        /* \"#utility.yul\":10544:10562   */\n      add\n        /* \"#utility.yul\":10535:10541   */\n      dup6\n        /* \"#utility.yul\":10491:10563   */\n      tag_203\n      jump\t// in\n    tag_349:\n        /* \"#utility.yul\":10573:10645   */\n      tag_350\n        /* \"#utility.yul\":10641:10643   */\n      0x40\n        /* \"#utility.yul\":10630:10639   */\n      dup4\n        /* \"#utility.yul\":10626:10644   */\n      add\n        /* \"#utility.yul\":10617:10623   */\n      dup5\n        /* \"#utility.yul\":10573:10645   */\n      tag_203\n      jump\t// in\n    tag_350:\n        /* \"#utility.yul\":10013:10652   */\n      swap4\n      swap3\n      pop\n      pop\n      pop\n      jump\t// out\n        /* \"#utility.yul\":10658:10820   */\n    tag_226:\n        /* \"#utility.yul\":10798:10812   */\n      0x53696e206c6971756964657a0000000000000000000000000000000000000000\n        /* \"#utility.yul\":10794:10795   */\n      0x00\n        /* \"#utility.yul\":10786:10792   */\n      dup3\n        /* \"#utility.yul\":10782:10796   */\n      add\n        /* \"#utility.yul\":10775:10813   */\n      mstore\n        /* \"#utility.yul\":10658:10820   */\n      pop\n      jump\t// out\n        /* \"#utility.yul\":10826:11192   */\n    tag_227:\n        /* \"#utility.yul\":10968:10971   */\n      0x00\n        /* \"#utility.yul\":10989:11056   */\n      tag_353\n        /* \"#utility.yul\":11053:11055   */\n      0x0c\n        /* \"#utility.yul\":11048:11051   */\n      dup4\n        /* \"#utility.yul\":10989:11056   */\n      tag_213\n      jump\t// in\n    tag_353:\n        /* \"#utility.yul\":10982:11056   */\n      swap2\n      pop\n        /* \"#utility.yul\":11065:11158   */\n      tag_354\n        /* \"#utility.yul\":11154:11157   */\n      dup3\n        /* \"#utility.yul\":11065:11158   */\n      tag_226\n      jump\t// in\n    tag_354:\n        /* \"#utility.yul\":11183:11185   */\n      0x20\n        /* \"#utility.yul\":11178:11181   */\n      dup3\n        /* \"#utility.yul\":11174:11186   */\n      add\n        /* \"#utility.yul\":11167:11186   */\n      swap1\n      pop\n        /* \"#utility.yul\":10826:11192   */\n      swap2\n      swap1\n      pop\n      jump\t// out\n        /* \"#utility.yul\":11198:11617   */\n    tag_98:\n        /* \"#utility.yul\":11364:11368   */\n      0x00\n        /* \"#utility.yul\":11402:11404   */\n      0x20\n        /* \"#utility.yul\":11391:11400   */\n      dup3\n        /* \"#utility.yul\":11387:11405   */\n      add\n        /* \"#utility.yul\":11379:11405   */\n      swap1\n      pop\n        /* \"#utility.yul\":11451:11460   */\n      dup2\n        /* \"#utility.yul\":11445:11449   */\n      dup2\n        /* \"#utility.yul\":11441:11461   */\n      sub\n        /* \"#utility.yul\":11437:11438   */\n      0x00\n        /* \"#utility.yul\":11426:11435   */\n      dup4\n        /* \"#utility.yul\":11422:11439   */\n      add\n        /* \"#utility.yul\":11415:11462   */\n      mstore\n        /* \"#utility.yul\":11479:11610   */\n      tag_356\n        /* \"#utility.yul\":11605:11609   */\n      dup2\n        /* \"#utility.yul\":11479:11610   */\n      tag_227\n      jump\t// in\n    tag_356:\n        /* \"#utility.yul\":11471:11610   */\n      swap1\n      pop\n        /* \"#utility.yul\":11198:11617   */\n      swap2\n      swap1\n      pop\n      jump\t// out\n        /* \"#utility.yul\":11623:12033   */\n    tag_100:\n        /* \"#utility.yul\":11663:11670   */\n      0x00\n        /* \"#utility.yul\":11686:11706   */\n      tag_358\n        /* \"#utility.yul\":11704:11705   */\n      dup3\n        /* \"#utility.yul\":11686:11706   */\n      tag_202\n      jump\t// in\n    tag_358:\n        /* \"#utility.yul\":11681:11706   */\n      swap2\n      pop\n        /* \"#utility.yul\":11720:11740   */\n      tag_359\n        /* \"#utility.yul\":11738:11739   */\n      dup4\n        /* \"#utility.yul\":11720:11740   */\n      tag_202\n      jump\t// in\n    tag_359:\n        /* \"#utility.yul\":11715:11740   */\n      swap3\n      pop\n        /* \"#utility.yul\":11775:11776   */\n      dup3\n        /* \"#utility.yul\":11772:11773   */\n      dup3\n        /* \"#utility.yul\":11768:11777   */\n      mul\n        /* \"#utility.yul\":11797:11827   */\n      tag_360\n        /* \"#utility.yul\":11815:11826   */\n      dup2\n        /* \"#utility.yul\":11797:11827   */\n      tag_202\n      jump\t// in\n    tag_360:\n        /* \"#utility.yul\":11786:11827   */\n      swap2\n      pop\n        /* \"#utility.yul\":11976:11977   */\n      dup3\n        /* \"#utility.yul\":11967:11974   */\n      dup3\n        /* \"#utility.yul\":11963:11978   */\n      div\n        /* \"#utility.yul\":11960:11961   */\n      dup5\n        /* \"#utility.yul\":11957:11979   */\n      eq\n        /* \"#utility.yul\":11937:11938   */\n      dup4\n        /* \"#utility.yul\":11930:11939   */\n      iszero\n        /* \"#utility.yul\":11910:11993   */\n      or\n        /* \"#utility.yul\":11887:12026   */\n      tag_361\n      jumpi\n        /* \"#utility.yul\":12006:12024   */\n      tag_362\n      tag_221\n      jump\t// in\n    tag_362:\n        /* \"#utility.yul\":11887:12026   */\n    tag_361:\n        /* \"#utility.yul\":11671:12033   */\n      pop\n        /* \"#utility.yul\":11623:12033   */\n      swap3\n      swap2\n      pop\n      pop\n      jump\t// out\n        /* \"#utility.yul\":12039:12219   */\n    tag_228:\n        /* \"#utility.yul\":12087:12164   */\n      0x4e487b7100000000000000000000000000000000000000000000000000000000\n        /* \"#utility.yul\":12084:12085   */\n      0x00\n        /* \"#utility.yul\":12077:12165   */\n      mstore\n        /* \"#utility.yul\":12184:12188   */\n      0x12\n        /* \"#utility.yul\":12181:12182   */\n      0x04\n        /* \"#utility.yul\":12174:12189   */\n      mstore\n        /* \"#utility.yul\":12208:12212   */\n      0x24\n        /* \"#utility.yul\":12205:12206   */\n      0x00\n        /* \"#utility.yul\":12198:12213   */\n      revert\n        /* \"#utility.yul\":12225:12410   */\n    tag_102:\n        /* \"#utility.yul\":12265:12266   */\n      0x00\n        /* \"#utility.yul\":12282:12302   */\n      tag_365\n        /* \"#utility.yul\":12300:12301   */\n      dup3\n        /* \"#utility.yul\":12282:12302   */\n      tag_202\n      jump\t// in\n    tag_365:\n        /* \"#utility.yul\":12277:12302   */\n      swap2\n      pop\n        /* \"#utility.yul\":12316:12336   */\n      tag_366\n        /* \"#utility.yul\":12334:12335   */\n      dup4\n        /* \"#utility.yul\":12316:12336   */\n      tag_202\n      jump\t// in\n    tag_366:\n        /* \"#utility.yul\":12311:12336   */\n      swap3\n      pop\n        /* \"#utility.yul\":12355:12356   */\n      dup3\n        /* \"#utility.yul\":12345:12380   */\n      tag_367\n      jumpi\n        /* \"#utility.yul\":12360:12378   */\n      tag_368\n      tag_228\n      jump\t// in\n    tag_368:\n        /* \"#utility.yul\":12345:12380   */\n    tag_367:\n        /* \"#utility.yul\":12402:12403   */\n      dup3\n        /* \"#utility.yul\":12399:12400   */\n      dup3\n        /* \"#utility.yul\":12395:12404   */\n      div\n        /* \"#utility.yul\":12390:12404   */\n      swap1\n      pop\n        /* \"#utility.yul\":12225:12410   */\n      swap3\n      swap2\n      pop\n      pop\n      jump\t// out\n        /* \"#utility.yul\":12416:12598   */\n    tag_229:\n        /* \"#utility.yul\":12556:12590   */\n      0x46616c6c6f20656e207472616e73666572656e63696120646520546f6b656e41\n        /* \"#utility.yul\":12552:12553   */\n      0x00\n        /* \"#utility.yul\":12544:12550   */\n      dup3\n        /* \"#utility.yul\":12540:12554   */\n      add\n        /* \"#utility.yul\":12533:12591   */\n      mstore\n        /* \"#utility.yul\":12416:12598   */\n      pop\n      jump\t// out\n        /* \"#utility.yul\":12604:12970   */\n    tag_230:\n        /* \"#utility.yul\":12746:12749   */\n      0x00\n        /* \"#utility.yul\":12767:12834   */\n      tag_371\n        /* \"#utility.yul\":12831:12833   */\n      0x20\n        /* \"#utility.yul\":12826:12829   */\n      dup4\n        /* \"#utility.yul\":12767:12834   */\n      tag_213\n      jump\t// in\n    tag_371:\n        /* \"#utility.yul\":12760:12834   */\n      swap2\n      pop\n        /* \"#utility.yul\":12843:12936   */\n      tag_372\n        /* \"#utility.yul\":12932:12935   */\n      dup3\n        /* \"#utility.yul\":12843:12936   */\n      tag_229\n      jump\t// in\n    tag_372:\n        /* \"#utility.yul\":12961:12963   */\n      0x20\n        /* \"#utility.yul\":12956:12959   */\n      dup3\n        /* \"#utility.yul\":12952:12964   */\n      add\n        /* \"#utility.yul\":12945:12964   */\n      swap1\n      pop\n        /* \"#utility.yul\":12604:12970   */\n      swap2\n      swap1\n      pop\n      jump\t// out\n        /* \"#utility.yul\":12976:13395   */\n    tag_117:\n        /* \"#utility.yul\":13142:13146   */\n      0x00\n        /* \"#utility.yul\":13180:13182   */\n      0x20\n        /* \"#utility.yul\":13169:13178   */\n      dup3\n        /* \"#utility.yul\":13165:13183   */\n      add\n        /* \"#utility.yul\":13157:13183   */\n      swap1\n      pop\n        /* \"#utility.yul\":13229:13238   */\n      dup2\n        /* \"#utility.yul\":13223:13227   */\n      dup2\n        /* \"#utility.yul\":13219:13239   */\n      sub\n        /* \"#utility.yul\":13215:13216   */\n      0x00\n        /* \"#utility.yul\":13204:13213   */\n      dup4\n        /* \"#utility.yul\":13200:13217   */\n      add\n        /* \"#utility.yul\":13193:13240   */\n      mstore\n        /* \"#utility.yul\":13257:13388   */\n      tag_374\n        /* \"#utility.yul\":13383:13387   */\n      dup2\n        /* \"#utility.yul\":13257:13388   */\n      tag_230\n      jump\t// in\n    tag_374:\n        /* \"#utility.yul\":13249:13388   */\n      swap1\n      pop\n        /* \"#utility.yul\":12976:13395   */\n      swap2\n      swap1\n      pop\n      jump\t// out\n        /* \"#utility.yul\":13401:13583   */\n    tag_231:\n        /* \"#utility.yul\":13541:13575   */\n      0x46616c6c6f20656e207472616e73666572656e63696120646520546f6b656e42\n        /* \"#utility.yul\":13537:13538   */\n      0x00\n        /* \"#utility.yul\":13529:13535   */\n      dup3\n        /* \"#utility.yul\":13525:13539   */\n      add\n        /* \"#utility.yul\":13518:13576   */\n      mstore\n        /* \"#utility.yul\":13401:13583   */\n      pop\n      jump\t// out\n        /* \"#utility.yul\":13589:13955   */\n    tag_232:\n        /* \"#utility.yul\":13731:13734   */\n      0x00\n        /* \"#utility.yul\":13752:13819   */\n      tag_377\n        /* \"#utility.yul\":13816:13818   */\n      0x20\n        /* \"#utility.yul\":13811:13814   */\n      dup4\n        /* \"#utility.yul\":13752:13819   */\n      tag_213\n      jump\t// in\n    tag_377:\n        /* \"#utility.yul\":13745:13819   */\n      swap2\n      pop\n        /* \"#utility.yul\":13828:13921   */\n      tag_378\n        /* \"#utility.yul\":13917:13920   */\n      dup3\n        /* \"#utility.yul\":13828:13921   */\n      tag_231\n      jump\t// in\n    tag_378:\n        /* \"#utility.yul\":13946:13948   */\n      0x20\n        /* \"#utility.yul\":13941:13944   */\n      dup3\n        /* \"#utility.yul\":13937:13949   */\n      add\n        /* \"#utility.yul\":13930:13949   */\n      swap1\n      pop\n        /* \"#utility.yul\":13589:13955   */\n      swap2\n      swap1\n      pop\n      jump\t// out\n        /* \"#utility.yul\":13961:14380   */\n    tag_124:\n        /* \"#utility.yul\":14127:14131   */\n      0x00\n        /* \"#utility.yul\":14165:14167   */\n      0x20\n        /* \"#utility.yul\":14154:14163   */\n      dup3\n        /* \"#utility.yul\":14150:14168   */\n      add\n        /* \"#utility.yul\":14142:14168   */\n      swap1\n      pop\n        /* \"#utility.yul\":14214:14223   */\n      dup2\n        /* \"#utility.yul\":14208:14212   */\n      dup2\n        /* \"#utility.yul\":14204:14224   */\n      sub\n        /* \"#utility.yul\":14200:14201   */\n      0x00\n        /* \"#utility.yul\":14189:14198   */\n      dup4\n        /* \"#utility.yul\":14185:14202   */\n      add\n        /* \"#utility.yul\":14178:14225   */\n      mstore\n        /* \"#utility.yul\":14242:14373   */\n      tag_380\n        /* \"#utility.yul\":14368:14372   */\n      dup2\n        /* \"#utility.yul\":14242:14373   */\n      tag_232\n      jump\t// in\n    tag_380:\n        /* \"#utility.yul\":14234:14373   */\n      swap1\n      pop\n        /* \"#utility.yul\":13961:14380   */\n      swap2\n      swap1\n      pop\n      jump\t// out\n        /* \"#utility.yul\":14386:14558   */\n    tag_233:\n        /* \"#utility.yul\":14526:14550   */\n      0x526573657276617320696e737566696369656e74657300000000000000000000\n        /* \"#utility.yul\":14522:14523   */\n      0x00\n        /* \"#utility.yul\":14514:14520   */\n      dup3\n        /* \"#utility.yul\":14510:14524   */\n      add\n        /* \"#utility.yul\":14503:14551   */\n      mstore\n        /* \"#utility.yul\":14386:14558   */\n      pop\n      jump\t// out\n        /* \"#utility.yul\":14564:14930   */\n    tag_234:\n        /* \"#utility.yul\":14706:14709   */\n      0x00\n        /* \"#utility.yul\":14727:14794   */\n      tag_383\n        /* \"#utility.yul\":14791:14793   */\n      0x16\n        /* \"#utility.yul\":14786:14789   */\n      dup4\n        /* \"#utility.yul\":14727:14794   */\n      tag_213\n      jump\t// in\n    tag_383:\n        /* \"#utility.yul\":14720:14794   */\n      swap2\n      pop\n        /* \"#utility.yul\":14803:14896   */\n      tag_384\n        /* \"#utility.yul\":14892:14895   */\n      dup3\n        /* \"#utility.yul\":14803:14896   */\n      tag_233\n      jump\t// in\n    tag_384:\n        /* \"#utility.yul\":14921:14923   */\n      0x20\n        /* \"#utility.yul\":14916:14919   */\n      dup3\n        /* \"#utility.yul\":14912:14924   */\n      add\n        /* \"#utility.yul\":14905:14924   */\n      swap1\n      pop\n        /* \"#utility.yul\":14564:14930   */\n      swap2\n      swap1\n      pop\n      jump\t// out\n        /* \"#utility.yul\":14936:15355   */\n    tag_134:\n        /* \"#utility.yul\":15102:15106   */\n      0x00\n        /* \"#utility.yul\":15140:15142   */\n      0x20\n        /* \"#utility.yul\":15129:15138   */\n      dup3\n        /* \"#utility.yul\":15125:15143   */\n      add\n        /* \"#utility.yul\":15117:15143   */\n      swap1\n      pop\n        /* \"#utility.yul\":15189:15198   */\n      dup2\n        /* \"#utility.yul\":15183:15187   */\n      dup2\n        /* \"#utility.yul\":15179:15199   */\n      sub\n        /* \"#utility.yul\":15175:15176   */\n      0x00\n        /* \"#utility.yul\":15164:15173   */\n      dup4\n        /* \"#utility.yul\":15160:15177   */\n      add\n        /* \"#utility.yul\":15153:15200   */\n      mstore\n        /* \"#utility.yul\":15217:15348   */\n      tag_386\n        /* \"#utility.yul\":15343:15347   */\n      dup2\n        /* \"#utility.yul\":15217:15348   */\n      tag_234\n      jump\t// in\n    tag_386:\n        /* \"#utility.yul\":15209:15348   */\n      swap1\n      pop\n        /* \"#utility.yul\":14936:15355   */\n      swap2\n      swap1\n      pop\n      jump\t// out\n        /* \"#utility.yul\":15361:15537   */\n    tag_235:\n        /* \"#utility.yul\":15501:15529   */\n      0x46616c6c6f20616c207472616e73666572697220546f6b656e42000000000000\n        /* \"#utility.yul\":15497:15498   */\n      0x00\n        /* \"#utility.yul\":15489:15495   */\n      dup3\n        /* \"#utility.yul\":15485:15499   */\n      add\n        /* \"#utility.yul\":15478:15530   */\n      mstore\n        /* \"#utility.yul\":15361:15537   */\n      pop\n      jump\t// out\n        /* \"#utility.yul\":15543:15909   */\n    tag_236:\n        /* \"#utility.yul\":15685:15688   */\n      0x00\n        /* \"#utility.yul\":15706:15773   */\n      tag_389\n        /* \"#utility.yul\":15770:15772   */\n      0x1a\n        /* \"#utility.yul\":15765:15768   */\n      dup4\n        /* \"#utility.yul\":15706:15773   */\n      tag_213\n      jump\t// in\n    tag_389:\n        /* \"#utility.yul\":15699:15773   */\n      swap2\n      pop\n        /* \"#utility.yul\":15782:15875   */\n      tag_390\n        /* \"#utility.yul\":15871:15874   */\n      dup3\n        /* \"#utility.yul\":15782:15875   */\n      tag_235\n      jump\t// in\n    tag_390:\n        /* \"#utility.yul\":15900:15902   */\n      0x20\n        /* \"#utility.yul\":15895:15898   */\n      dup3\n        /* \"#utility.yul\":15891:15903   */\n      add\n        /* \"#utility.yul\":15884:15903   */\n      swap1\n      pop\n        /* \"#utility.yul\":15543:15909   */\n      swap2\n      swap1\n      pop\n      jump\t// out\n        /* \"#utility.yul\":15915:16334   */\n    tag_149:\n        /* \"#utility.yul\":16081:16085   */\n      0x00\n        /* \"#utility.yul\":16119:16121   */\n      0x20\n        /* \"#utility.yul\":16108:16117   */\n      dup3\n        /* \"#utility.yul\":16104:16122   */\n      add\n        /* \"#utility.yul\":16096:16122   */\n      swap1\n      pop\n        /* \"#utility.yul\":16168:16177   */\n      dup2\n        /* \"#utility.yul\":16162:16166   */\n      dup2\n        /* \"#utility.yul\":16158:16178   */\n      sub\n        /* \"#utility.yul\":16154:16155   */\n      0x00\n        /* \"#utility.yul\":16143:16152   */\n      dup4\n        /* \"#utility.yul\":16139:16156   */\n      add\n        /* \"#utility.yul\":16132:16179   */\n      mstore\n        /* \"#utility.yul\":16196:16327   */\n      tag_392\n        /* \"#utility.yul\":16322:16326   */\n      dup2\n        /* \"#utility.yul\":16196:16327   */\n      tag_236\n      jump\t// in\n    tag_392:\n        /* \"#utility.yul\":16188:16327   */\n      swap1\n      pop\n        /* \"#utility.yul\":15915:16334   */\n      swap2\n      swap1\n      pop\n      jump\t// out\n        /* \"#utility.yul\":16340:16494   */\n    tag_237:\n        /* \"#utility.yul\":16480:16486   */\n      0x412d3e4200000000000000000000000000000000000000000000000000000000\n        /* \"#utility.yul\":16476:16477   */\n      0x00\n        /* \"#utility.yul\":16468:16474   */\n      dup3\n        /* \"#utility.yul\":16464:16478   */\n      add\n        /* \"#utility.yul\":16457:16487   */\n      mstore\n        /* \"#utility.yul\":16340:16494   */\n      pop\n      jump\t// out\n        /* \"#utility.yul\":16500:16865   */\n    tag_238:\n        /* \"#utility.yul\":16642:16645   */\n      0x00\n        /* \"#utility.yul\":16663:16729   */\n      tag_395\n        /* \"#utility.yul\":16727:16728   */\n      0x04\n        /* \"#utility.yul\":16722:16725   */\n      dup4\n        /* \"#utility.yul\":16663:16729   */\n      tag_213\n      jump\t// in\n    tag_395:\n        /* \"#utility.yul\":16656:16729   */\n      swap2\n      pop\n        /* \"#utility.yul\":16738:16831   */\n      tag_396\n        /* \"#utility.yul\":16827:16830   */\n      dup3\n        /* \"#utility.yul\":16738:16831   */\n      tag_237\n      jump\t// in\n    tag_396:\n        /* \"#utility.yul\":16856:16858   */\n      0x20\n        /* \"#utility.yul\":16851:16854   */\n      dup3\n        /* \"#utility.yul\":16847:16859   */\n      add\n        /* \"#utility.yul\":16840:16859   */\n      swap1\n      pop\n        /* \"#utility.yul\":16500:16865   */\n      swap2\n      swap1\n      pop\n      jump\t// out\n        /* \"#utility.yul\":16871:17510   */\n    tag_170:\n        /* \"#utility.yul\":17093:17097   */\n      0x00\n        /* \"#utility.yul\":17131:17133   */\n      0x60\n        /* \"#utility.yul\":17120:17129   */\n      dup3\n        /* \"#utility.yul\":17116:17134   */\n      add\n        /* \"#utility.yul\":17108:17134   */\n      swap1\n      pop\n        /* \"#utility.yul\":17180:17189   */\n      dup2\n        /* \"#utility.yul\":17174:17178   */\n      dup2\n        /* \"#utility.yul\":17170:17190   */\n      sub\n        /* \"#utility.yul\":17166:17167   */\n      0x00\n        /* \"#utility.yul\":17155:17164   */\n      dup4\n        /* \"#utility.yul\":17151:17168   */\n      add\n        /* \"#utility.yul\":17144:17191   */\n      mstore\n        /* \"#utility.yul\":17208:17339   */\n      tag_398\n        /* \"#utility.yul\":17334:17338   */\n      dup2\n        /* \"#utility.yul\":17208:17339   */\n      tag_238\n      jump\t// in\n    tag_398:\n        /* \"#utility.yul\":17200:17339   */\n      swap1\n      pop\n        /* \"#utility.yul\":17349:17421   */\n      tag_399\n        /* \"#utility.yul\":17417:17419   */\n      0x20\n        /* \"#utility.yul\":17406:17415   */\n      dup4\n        /* \"#utility.yul\":17402:17420   */\n      add\n        /* \"#utility.yul\":17393:17399   */\n      dup6\n        /* \"#utility.yul\":17349:17421   */\n      tag_203\n      jump\t// in\n    tag_399:\n        /* \"#utility.yul\":17431:17503   */\n      tag_400\n        /* \"#utility.yul\":17499:17501   */\n      0x40\n        /* \"#utility.yul\":17488:17497   */\n      dup4\n        /* \"#utility.yul\":17484:17502   */\n      add\n        /* \"#utility.yul\":17475:17481   */\n      dup5\n        /* \"#utility.yul\":17431:17503   */\n      tag_203\n      jump\t// in\n    tag_400:\n        /* \"#utility.yul\":16871:17510   */\n      swap4\n      swap3\n      pop\n      pop\n      pop\n      jump\t// out\n        /* \"#utility.yul\":17516:17681   */\n    tag_239:\n        /* \"#utility.yul\":17656:17673   */\n      0x5265736572766173207661636961730000000000000000000000000000000000\n        /* \"#utility.yul\":17652:17653   */\n      0x00\n        /* \"#utility.yul\":17644:17650   */\n      dup3\n        /* \"#utility.yul\":17640:17654   */\n      add\n        /* \"#utility.yul\":17633:17674   */\n      mstore\n        /* \"#utility.yul\":17516:17681   */\n      pop\n      jump\t// out\n        /* \"#utility.yul\":17687:18053   */\n    tag_240:\n        /* \"#utility.yul\":17829:17832   */\n      0x00\n        /* \"#utility.yul\":17850:17917   */\n      tag_403\n        /* \"#utility.yul\":17914:17916   */\n      0x0f\n        /* \"#utility.yul\":17909:17912   */\n      dup4\n        /* \"#utility.yul\":17850:17917   */\n      tag_213\n      jump\t// in\n    tag_403:\n        /* \"#utility.yul\":17843:17917   */\n      swap2\n      pop\n        /* \"#utility.yul\":17926:18019   */\n      tag_404\n        /* \"#utility.yul\":18015:18018   */\n      dup3\n        /* \"#utility.yul\":17926:18019   */\n      tag_239\n      jump\t// in\n    tag_404:\n        /* \"#utility.yul\":18044:18046   */\n      0x20\n        /* \"#utility.yul\":18039:18042   */\n      dup3\n        /* \"#utility.yul\":18035:18047   */\n      add\n        /* \"#utility.yul\":18028:18047   */\n      swap1\n      pop\n        /* \"#utility.yul\":17687:18053   */\n      swap2\n      swap1\n      pop\n      jump\t// out\n        /* \"#utility.yul\":18059:18478   */\n    tag_189:\n        /* \"#utility.yul\":18225:18229   */\n      0x00\n        /* \"#utility.yul\":18263:18265   */\n      0x20\n        /* \"#utility.yul\":18252:18261   */\n      dup3\n        /* \"#utility.yul\":18248:18266   */\n      add\n        /* \"#utility.yul\":18240:18266   */\n      swap1\n      pop\n        /* \"#utility.yul\":18312:18321   */\n      dup2\n        /* \"#utility.yul\":18306:18310   */\n      dup2\n        /* \"#utility.yul\":18302:18322   */\n      sub\n        /* \"#utility.yul\":18298:18299   */\n      0x00\n        /* \"#utility.yul\":18287:18296   */\n      dup4\n        /* \"#utility.yul\":18283:18300   */\n      add\n        /* \"#utility.yul\":18276:18323   */\n      mstore\n        /* \"#utility.yul\":18340:18471   */\n      tag_406\n        /* \"#utility.yul\":18466:18470   */\n      dup2\n        /* \"#utility.yul\":18340:18471   */\n      tag_240\n      jump\t// in\n    tag_406:\n        /* \"#utility.yul\":18332:18471   */\n      swap1\n      pop\n        /* \"#utility.yul\":18059:18478   */\n      swap2\n      swap1\n      pop\n      jump\t// out\n\n    auxdata: 0xa2646970667358221220ad1cfb9b584dfb1fe9943b6f8c887a60d0b5e1a1b19b22cb64f449217cfed26564736f6c63430008160033\n}\n",
				"bytecode": {
					"linkReferences": {},
					"object": "608060405234801562000010575f80fd5b5060405162001cf438038062001cf4833981810160405281019062000036919062000315565b335f73ffffffffffffffffffffffffffffffffffffffff168173ffffffffffffffffffffffffffffffffffffffff1603620000aa575f6040517f1e4fbdf7000000000000000000000000000000000000000000000000000000008152600401620000a191906200036b565b60405180910390fd5b620000bb81620001ef60201b60201c565b505f73ffffffffffffffffffffffffffffffffffffffff168273ffffffffffffffffffffffffffffffffffffffff16141580156200012557505f73ffffffffffffffffffffffffffffffffffffffff168173ffffffffffffffffffffffffffffffffffffffff1614155b62000167576040517f08c379a00000000000000000000000000000000000000000000000000000000081526004016200015e90620003e4565b60405180910390fd5b8160015f6101000a81548173ffffffffffffffffffffffffffffffffffffffff021916908373ffffffffffffffffffffffffffffffffffffffff1602179055508060025f6101000a81548173ffffffffffffffffffffffffffffffffffffffff021916908373ffffffffffffffffffffffffffffffffffffffff160217905550505062000404565b5f805f9054906101000a900473ffffffffffffffffffffffffffffffffffffffff169050815f806101000a81548173ffffffffffffffffffffffffffffffffffffffff021916908373ffffffffffffffffffffffffffffffffffffffff1602179055508173ffffffffffffffffffffffffffffffffffffffff168173ffffffffffffffffffffffffffffffffffffffff167f8be0079c531659141344cd1fd0a4f28419497f9722a3daafe3b4186f6b6457e060405160405180910390a35050565b5f80fd5b5f73ffffffffffffffffffffffffffffffffffffffff82169050919050565b5f620002df82620002b4565b9050919050565b620002f181620002d3565b8114620002fc575f80fd5b50565b5f815190506200030f81620002e6565b92915050565b5f80604083850312156200032e576200032d620002b0565b5b5f6200033d85828601620002ff565b92505060206200035085828601620002ff565b9150509250929050565b6200036581620002d3565b82525050565b5f602082019050620003805f8301846200035a565b92915050565b5f82825260208201905092915050565b7f446972656363696f6e657320696e76616c6964617300000000000000000000005f82015250565b5f620003cc60158362000386565b9150620003d98262000396565b602082019050919050565b5f6020820190508181035f830152620003fd81620003be565b9050919050565b6118e280620004125f395ff3fe608060405234801561000f575f80fd5b50600436106100b2575f3560e01c806398d5fdca1161006f57806398d5fdca146101545780639cd441da146101735780639d7de6b31461018f578063dc5fa6c5146101ab578063e4f1f70a146101c9578063f2fde38b146101e5576100b2565b80630fc63d10146100b657806319e36f3b146100d45780635f64b55b146100f2578063715018a6146101105780638014a7aa1461011a5780638da5cb5b14610136575b5f80fd5b6100be610201565b6040516100cb9190611069565b60405180910390f35b6100dc610226565b6040516100e9919061109a565b60405180910390f35b6100fa61022c565b6040516101079190611069565b60405180910390f35b610118610251565b005b610134600480360381019061012f91906110e1565b610264565b005b61013e6104f4565b60405161014b919061112c565b60405180910390f35b61015c61051b565b60405161016a929190611145565b60405180910390f35b61018d6004803603810190610188919061116c565b6105bc565b005b6101a960048036038101906101a4919061116c565b61084f565b005b6101b3610ae4565b6040516101c0919061109a565b60405180910390f35b6101e360048036038101906101de91906110e1565b610aea565b005b6101ff60048036038101906101fa91906111d4565b610d7a565b005b60015f9054906101000a900473ffffffffffffffffffffffffffffffffffffffff1681565b60045481565b60025f9054906101000a900473ffffffffffffffffffffffffffffffffffffffff1681565b610259610dfe565b6102625f610e85565b565b5f81116102a6576040517f08c379a000000000000000000000000000000000000000000000000000000000815260040161029d90611259565b60405180910390fd5b60025f9054906101000a900473ffffffffffffffffffffffffffffffffffffffff1673ffffffffffffffffffffffffffffffffffffffff166323b872dd3330846040518463ffffffff1660e01b815260040161030493929190611277565b6020604051808303815f875af1158015610320573d5f803e3d5ffd5b505050506040513d601f19601f8201168201806040525081019061034491906112e1565b610383576040517f08c379a000000000000000000000000000000000000000000000000000000000815260040161037a90611356565b60405180910390fd5b5f61039382600454600354610f46565b90508160045f8282546103a691906113a1565b925050819055508060035f8282546103be91906113d4565b9250508190555060015f9054906101000a900473ffffffffffffffffffffffffffffffffffffffff1673ffffffffffffffffffffffffffffffffffffffff1663a9059cbb33836040518363ffffffff1660e01b8152600401610421929190611407565b6020604051808303815f875af115801561043d573d5f803e3d5ffd5b505050506040513d601f19601f8201168201806040525081019061046191906112e1565b6104a0576040517f08c379a000000000000000000000000000000000000000000000000000000000815260040161049790611478565b60405180910390fd5b3373ffffffffffffffffffffffffffffffffffffffff167f8d400643fa1ccaba7ce092175917c6d7087e296293a5d0de32bccb310f4774ab83836040516104e89291906114e0565b60405180910390a25050565b5f805f9054906101000a900473ffffffffffffffffffffffffffffffffffffffff16905090565b5f805f60035411801561052f57505f600454115b61056e576040517f08c379a000000000000000000000000000000000000000000000000000000000815260040161056590611564565b60405180910390fd5b600354670de0b6b3a76400006004546105879190611582565b61059191906115f0565b9150600454670de0b6b3a76400006003546105ac9190611582565b6105b691906115f0565b90509091565b6105c4610dfe565b5f821180156105d257505f81115b610611576040517f08c379a000000000000000000000000000000000000000000000000000000000815260040161060890611259565b60405180910390fd5b60015f9054906101000a900473ffffffffffffffffffffffffffffffffffffffff1673ffffffffffffffffffffffffffffffffffffffff166323b872dd3330856040518463ffffffff1660e01b815260040161066f93929190611277565b6020604051808303815f875af115801561068b573d5f803e3d5ffd5b505050506040513d601f19601f820116820180604052508101906106af91906112e1565b6106ee576040517f08c379a00000000000000000000000000000000000000000000000000000000081526004016106e59061166a565b60405180910390fd5b60025f9054906101000a900473ffffffffffffffffffffffffffffffffffffffff1673ffffffffffffffffffffffffffffffffffffffff166323b872dd3330846040518463ffffffff1660e01b815260040161074c93929190611277565b6020604051808303815f875af1158015610768573d5f803e3d5ffd5b505050506040513d601f19601f8201168201806040525081019061078c91906112e1565b6107cb576040517f08c379a00000000000000000000000000000000000000000000000000000000081526004016107c2906116d2565b60405180910390fd5b8160035f8282546107dc91906113a1565b925050819055508060045f8282546107f491906113a1565b925050819055503373ffffffffffffffffffffffffffffffffffffffff167fac1d76749e5447b7b16f5ab61447e1bd502f3bb4807af3b28e620d1700a6ee458383604051610843929190611145565b60405180910390a25050565b610857610dfe565b600354821115801561086b57506004548111155b6108aa576040517f08c379a00000000000000000000000000000000000000000000000000000000081526004016108a19061173a565b60405180910390fd5b8160035f8282546108bb91906113d4565b925050819055508060045f8282546108d391906113d4565b9250508190555060015f9054906101000a900473ffffffffffffffffffffffffffffffffffffffff1673ffffffffffffffffffffffffffffffffffffffff1663a9059cbb33846040518363ffffffff1660e01b8152600401610936929190611407565b6020604051808303815f875af1158015610952573d5f803e3d5ffd5b505050506040513d601f19601f8201168201806040525081019061097691906112e1565b6109b5576040517f08c379a00000000000000000000000000000000000000000000000000000000081526004016109ac90611478565b60405180910390fd5b60025f9054906101000a900473ffffffffffffffffffffffffffffffffffffffff1673ffffffffffffffffffffffffffffffffffffffff1663a9059cbb33836040518363ffffffff1660e01b8152600401610a11929190611407565b6020604051808303815f875af1158015610a2d573d5f803e3d5ffd5b505050506040513d601f19601f82011682018060405250810190610a5191906112e1565b610a90576040517f08c379a0000000000000000000000000000000000000000000000000000000008152600401610a87906117a2565b60405180910390fd5b3373ffffffffffffffffffffffffffffffffffffffff167f96cd817c6329656790ef8fba7675405193677d39619571282f5e21f3a98cd0598383604051610ad8929190611145565b60405180910390a25050565b60035481565b5f8111610b2c576040517f08c379a0000000000000000000000000000000000000000000000000000000008152600401610b2390611259565b60405180910390fd5b60015f9054906101000a900473ffffffffffffffffffffffffffffffffffffffff1673ffffffffffffffffffffffffffffffffffffffff166323b872dd3330846040518463ffffffff1660e01b8152600401610b8a93929190611277565b6020604051808303815f875af1158015610ba6573d5f803e3d5ffd5b505050506040513d601f19601f82011682018060405250810190610bca91906112e1565b610c09576040517f08c379a0000000000000000000000000000000000000000000000000000000008152600401610c0090611356565b60405180910390fd5b5f610c1982600354600454610f46565b90508160035f828254610c2c91906113a1565b925050819055508060045f828254610c4491906113d4565b9250508190555060025f9054906101000a900473ffffffffffffffffffffffffffffffffffffffff1673ffffffffffffffffffffffffffffffffffffffff1663a9059cbb33836040518363ffffffff1660e01b8152600401610ca7929190611407565b6020604051808303815f875af1158015610cc3573d5f803e3d5ffd5b505050506040513d601f19601f82011682018060405250810190610ce791906112e1565b610d26576040517f08c379a0000000000000000000000000000000000000000000000000000000008152600401610d1d906117a2565b60405180910390fd5b3373ffffffffffffffffffffffffffffffffffffffff167f8d400643fa1ccaba7ce092175917c6d7087e296293a5d0de32bccb310f4774ab8383604051610d6e92919061180a565b60405180910390a25050565b610d82610dfe565b5f73ffffffffffffffffffffffffffffffffffffffff168173ffffffffffffffffffffffffffffffffffffffff1603610df2575f6040517f1e4fbdf7000000000000000000000000000000000000000000000000000000008152600401610de9919061112c565b60405180910390fd5b610dfb81610e85565b50565b610e06610fe8565b73ffffffffffffffffffffffffffffffffffffffff16610e246104f4565b73ffffffffffffffffffffffffffffffffffffffff1614610e8357610e47610fe8565b6040517f118cdaa7000000000000000000000000000000000000000000000000000000008152600401610e7a919061112c565b60405180910390fd5b565b5f805f9054906101000a900473ffffffffffffffffffffffffffffffffffffffff169050815f806101000a81548173ffffffffffffffffffffffffffffffffffffffff021916908373ffffffffffffffffffffffffffffffffffffffff1602179055508173ffffffffffffffffffffffffffffffffffffffff168173ffffffffffffffffffffffffffffffffffffffff167f8be0079c531659141344cd1fd0a4f28419497f9722a3daafe3b4186f6b6457e060405160405180910390a35050565b5f8083118015610f5557505f82115b610f94576040517f08c379a0000000000000000000000000000000000000000000000000000000008152600401610f8b9061188e565b60405180910390fd5b5f6103e585610fa39190611582565b90505f8382610fb29190611582565b90505f826103e887610fc49190611582565b610fce91906113a1565b90508082610fdc91906115f0565b93505050509392505050565b5f33905090565b5f73ffffffffffffffffffffffffffffffffffffffff82169050919050565b5f819050919050565b5f61103161102c61102784610fef565b61100e565b610fef565b9050919050565b5f61104282611017565b9050919050565b5f61105382611038565b9050919050565b61106381611049565b82525050565b5f60208201905061107c5f83018461105a565b92915050565b5f819050919050565b61109481611082565b82525050565b5f6020820190506110ad5f83018461108b565b92915050565b5f80fd5b6110c081611082565b81146110ca575f80fd5b50565b5f813590506110db816110b7565b92915050565b5f602082840312156110f6576110f56110b3565b5b5f611103848285016110cd565b91505092915050565b5f61111682610fef565b9050919050565b6111268161110c565b82525050565b5f60208201905061113f5f83018461111d565b92915050565b5f6040820190506111585f83018561108b565b611165602083018461108b565b9392505050565b5f8060408385031215611182576111816110b3565b5b5f61118f858286016110cd565b92505060206111a0858286016110cd565b9150509250929050565b6111b38161110c565b81146111bd575f80fd5b50565b5f813590506111ce816111aa565b92915050565b5f602082840312156111e9576111e86110b3565b5b5f6111f6848285016111c0565b91505092915050565b5f82825260208201905092915050565b7f43616e746964616420696e76616c6964610000000000000000000000000000005f82015250565b5f6112436011836111ff565b915061124e8261120f565b602082019050919050565b5f6020820190508181035f83015261127081611237565b9050919050565b5f60608201905061128a5f83018661111d565b611297602083018561111d565b6112a4604083018461108b565b949350505050565b5f8115159050919050565b6112c0816112ac565b81146112ca575f80fd5b50565b5f815190506112db816112b7565b92915050565b5f602082840312156112f6576112f56110b3565b5b5f611303848285016112cd565b91505092915050565b7f46616c6c6f20656e207472616e73666572656e636961000000000000000000005f82015250565b5f6113406016836111ff565b915061134b8261130c565b602082019050919050565b5f6020820190508181035f83015261136d81611334565b9050919050565b7f4e487b71000000000000000000000000000000000000000000000000000000005f52601160045260245ffd5b5f6113ab82611082565b91506113b683611082565b92508282019050808211156113ce576113cd611374565b5b92915050565b5f6113de82611082565b91506113e983611082565b925082820390508181111561140157611400611374565b5b92915050565b5f60408201905061141a5f83018561111d565b611427602083018461108b565b9392505050565b7f46616c6c6f20616c207472616e73666572697220546f6b656e410000000000005f82015250565b5f611462601a836111ff565b915061146d8261142e565b602082019050919050565b5f6020820190508181035f83015261148f81611456565b9050919050565b7f422d3e41000000000000000000000000000000000000000000000000000000005f82015250565b5f6114ca6004836111ff565b91506114d582611496565b602082019050919050565b5f6060820190508181035f8301526114f7816114be565b9050611506602083018561108b565b611513604083018461108b565b9392505050565b7f53696e206c6971756964657a00000000000000000000000000000000000000005f82015250565b5f61154e600c836111ff565b91506115598261151a565b602082019050919050565b5f6020820190508181035f83015261157b81611542565b9050919050565b5f61158c82611082565b915061159783611082565b92508282026115a581611082565b915082820484148315176115bc576115bb611374565b5b5092915050565b7f4e487b71000000000000000000000000000000000000000000000000000000005f52601260045260245ffd5b5f6115fa82611082565b915061160583611082565b925082611615576116146115c3565b5b828204905092915050565b7f46616c6c6f20656e207472616e73666572656e63696120646520546f6b656e415f82015250565b5f6116546020836111ff565b915061165f82611620565b602082019050919050565b5f6020820190508181035f83015261168181611648565b9050919050565b7f46616c6c6f20656e207472616e73666572656e63696120646520546f6b656e425f82015250565b5f6116bc6020836111ff565b91506116c782611688565b602082019050919050565b5f6020820190508181035f8301526116e9816116b0565b9050919050565b7f526573657276617320696e737566696369656e746573000000000000000000005f82015250565b5f6117246016836111ff565b915061172f826116f0565b602082019050919050565b5f6020820190508181035f83015261175181611718565b9050919050565b7f46616c6c6f20616c207472616e73666572697220546f6b656e420000000000005f82015250565b5f61178c601a836111ff565b915061179782611758565b602082019050919050565b5f6020820190508181035f8301526117b981611780565b9050919050565b7f412d3e42000000000000000000000000000000000000000000000000000000005f82015250565b5f6117f46004836111ff565b91506117ff826117c0565b602082019050919050565b5f6060820190508181035f830152611821816117e8565b9050611830602083018561108b565b61183d604083018461108b565b9392505050565b7f52657365727661732076616369617300000000000000000000000000000000005f82015250565b5f611878600f836111ff565b915061188382611844565b602082019050919050565b5f6020820190508181035f8301526118a58161186c565b905091905056fea2646970667358221220ad1cfb9b584dfb1fe9943b6f8c887a60d0b5e1a1b19b22cb64f449217cfed26564736f6c63430008160033",
					"opcodes": "PUSH1 0x80 PUSH1 0x40 MSTORE CALLVALUE DUP1 ISZERO PUSH3 0x10 JUMPI PUSH0 DUP1 REVERT JUMPDEST POP PUSH1 0x40 MLOAD PUSH3 0x1CF4 CODESIZE SUB DUP1 PUSH3 0x1CF4 DUP4 CODECOPY DUP2 DUP2 ADD PUSH1 0x40 MSTORE DUP2 ADD SWAP1 PUSH3 0x36 SWAP2 SWAP1 PUSH3 0x315 JUMP JUMPDEST CALLER PUSH0 PUSH20 0xFFFFFFFFFFFFFFFFFFFFFFFFFFFFFFFFFFFFFFFF AND DUP2 PUSH20 0xFFFFFFFFFFFFFFFFFFFFFFFFFFFFFFFFFFFFFFFF AND SUB PUSH3 0xAA JUMPI PUSH0 PUSH1 0x40 MLOAD PUSH32 0x1E4FBDF700000000000000000000000000000000000000000000000000000000 DUP2 MSTORE PUSH1 0x4 ADD PUSH3 0xA1 SWAP2 SWAP1 PUSH3 0x36B JUMP JUMPDEST PUSH1 0x40 MLOAD DUP1 SWAP2 SUB SWAP1 REVERT JUMPDEST PUSH3 0xBB DUP2 PUSH3 0x1EF PUSH1 0x20 SHL PUSH1 0x20 SHR JUMP JUMPDEST POP PUSH0 PUSH20 0xFFFFFFFFFFFFFFFFFFFFFFFFFFFFFFFFFFFFFFFF AND DUP3 PUSH20 0xFFFFFFFFFFFFFFFFFFFFFFFFFFFFFFFFFFFFFFFF AND EQ ISZERO DUP1 ISZERO PUSH3 0x125 JUMPI POP PUSH0 PUSH20 0xFFFFFFFFFFFFFFFFFFFFFFFFFFFFFFFFFFFFFFFF AND DUP2 PUSH20 0xFFFFFFFFFFFFFFFFFFFFFFFFFFFFFFFFFFFFFFFF AND EQ ISZERO JUMPDEST PUSH3 0x167 JUMPI PUSH1 0x40 MLOAD PUSH32 0x8C379A000000000000000000000000000000000000000000000000000000000 DUP2 MSTORE PUSH1 0x4 ADD PUSH3 0x15E SWAP1 PUSH3 0x3E4 JUMP JUMPDEST PUSH1 0x40 MLOAD DUP1 SWAP2 SUB SWAP1 REVERT JUMPDEST DUP2 PUSH1 0x1 PUSH0 PUSH2 0x100 EXP DUP2 SLOAD DUP2 PUSH20 0xFFFFFFFFFFFFFFFFFFFFFFFFFFFFFFFFFFFFFFFF MUL NOT AND SWAP1 DUP4 PUSH20 0xFFFFFFFFFFFFFFFFFFFFFFFFFFFFFFFFFFFFFFFF AND MUL OR SWAP1 SSTORE POP DUP1 PUSH1 0x2 PUSH0 PUSH2 0x100 EXP DUP2 SLOAD DUP2 PUSH20 0xFFFFFFFFFFFFFFFFFFFFFFFFFFFFFFFFFFFFFFFF MUL NOT AND SWAP1 DUP4 PUSH20 0xFFFFFFFFFFFFFFFFFFFFFFFFFFFFFFFFFFFFFFFF AND MUL OR SWAP1 SSTORE POP POP POP PUSH3 0x404 JUMP JUMPDEST PUSH0 DUP1 PUSH0 SWAP1 SLOAD SWAP1 PUSH2 0x100 EXP SWAP1 DIV PUSH20 0xFFFFFFFFFFFFFFFFFFFFFFFFFFFFFFFFFFFFFFFF AND SWAP1 POP DUP2 PUSH0 DUP1 PUSH2 0x100 EXP DUP2 SLOAD DUP2 PUSH20 0xFFFFFFFFFFFFFFFFFFFFFFFFFFFFFFFFFFFFFFFF MUL NOT AND SWAP1 DUP4 PUSH20 0xFFFFFFFFFFFFFFFFFFFFFFFFFFFFFFFFFFFFFFFF AND MUL OR SWAP1 SSTORE POP DUP2 PUSH20 0xFFFFFFFFFFFFFFFFFFFFFFFFFFFFFFFFFFFFFFFF AND DUP2 PUSH20 0xFFFFFFFFFFFFFFFFFFFFFFFFFFFFFFFFFFFFFFFF AND PUSH32 0x8BE0079C531659141344CD1FD0A4F28419497F9722A3DAAFE3B4186F6B6457E0 PUSH1 0x40 MLOAD PUSH1 0x40 MLOAD DUP1 SWAP2 SUB SWAP1 LOG3 POP POP JUMP JUMPDEST PUSH0 DUP1 REVERT JUMPDEST PUSH0 PUSH20 0xFFFFFFFFFFFFFFFFFFFFFFFFFFFFFFFFFFFFFFFF DUP3 AND SWAP1 POP SWAP2 SWAP1 POP JUMP JUMPDEST PUSH0 PUSH3 0x2DF DUP3 PUSH3 0x2B4 JUMP JUMPDEST SWAP1 POP SWAP2 SWAP1 POP JUMP JUMPDEST PUSH3 0x2F1 DUP2 PUSH3 0x2D3 JUMP JUMPDEST DUP2 EQ PUSH3 0x2FC JUMPI PUSH0 DUP1 REVERT JUMPDEST POP JUMP JUMPDEST PUSH0 DUP2 MLOAD SWAP1 POP PUSH3 0x30F DUP2 PUSH3 0x2E6 JUMP JUMPDEST SWAP3 SWAP2 POP POP JUMP JUMPDEST PUSH0 DUP1 PUSH1 0x40 DUP4 DUP6 SUB SLT ISZERO PUSH3 0x32E JUMPI PUSH3 0x32D PUSH3 0x2B0 JUMP JUMPDEST JUMPDEST PUSH0 PUSH3 0x33D DUP6 DUP3 DUP7 ADD PUSH3 0x2FF JUMP JUMPDEST SWAP3 POP POP PUSH1 0x20 PUSH3 0x350 DUP6 DUP3 DUP7 ADD PUSH3 0x2FF JUMP JUMPDEST SWAP2 POP POP SWAP3 POP SWAP3 SWAP1 POP JUMP JUMPDEST PUSH3 0x365 DUP2 PUSH3 0x2D3 JUMP JUMPDEST DUP3 MSTORE POP POP JUMP JUMPDEST PUSH0 PUSH1 0x20 DUP3 ADD SWAP1 POP PUSH3 0x380 PUSH0 DUP4 ADD DUP5 PUSH3 0x35A JUMP JUMPDEST SWAP3 SWAP2 POP POP JUMP JUMPDEST PUSH0 DUP3 DUP3 MSTORE PUSH1 0x20 DUP3 ADD SWAP1 POP SWAP3 SWAP2 POP POP JUMP JUMPDEST PUSH32 0x446972656363696F6E657320696E76616C696461730000000000000000000000 PUSH0 DUP3 ADD MSTORE POP JUMP JUMPDEST PUSH0 PUSH3 0x3CC PUSH1 0x15 DUP4 PUSH3 0x386 JUMP JUMPDEST SWAP2 POP PUSH3 0x3D9 DUP3 PUSH3 0x396 JUMP JUMPDEST PUSH1 0x20 DUP3 ADD SWAP1 POP SWAP2 SWAP1 POP JUMP JUMPDEST PUSH0 PUSH1 0x20 DUP3 ADD SWAP1 POP DUP2 DUP2 SUB PUSH0 DUP4 ADD MSTORE PUSH3 0x3FD DUP2 PUSH3 0x3BE JUMP JUMPDEST SWAP1 POP SWAP2 SWAP1 POP JUMP JUMPDEST PUSH2 0x18E2 DUP1 PUSH3 0x412 PUSH0 CODECOPY PUSH0 RETURN INVALID PUSH1 0x80 PUSH1 0x40 MSTORE CALLVALUE DUP1 ISZERO PUSH2 0xF JUMPI PUSH0 DUP1 REVERT JUMPDEST POP PUSH1 0x4 CALLDATASIZE LT PUSH2 0xB2 JUMPI PUSH0 CALLDATALOAD PUSH1 0xE0 SHR DUP1 PUSH4 0x98D5FDCA GT PUSH2 0x6F JUMPI DUP1 PUSH4 0x98D5FDCA EQ PUSH2 0x154 JUMPI DUP1 PUSH4 0x9CD441DA EQ PUSH2 0x173 JUMPI DUP1 PUSH4 0x9D7DE6B3 EQ PUSH2 0x18F JUMPI DUP1 PUSH4 0xDC5FA6C5 EQ PUSH2 0x1AB JUMPI DUP1 PUSH4 0xE4F1F70A EQ PUSH2 0x1C9 JUMPI DUP1 PUSH4 0xF2FDE38B EQ PUSH2 0x1E5 JUMPI PUSH2 0xB2 JUMP JUMPDEST DUP1 PUSH4 0xFC63D10 EQ PUSH2 0xB6 JUMPI DUP1 PUSH4 0x19E36F3B EQ PUSH2 0xD4 JUMPI DUP1 PUSH4 0x5F64B55B EQ PUSH2 0xF2 JUMPI DUP1 PUSH4 0x715018A6 EQ PUSH2 0x110 JUMPI DUP1 PUSH4 0x8014A7AA EQ PUSH2 0x11A JUMPI DUP1 PUSH4 0x8DA5CB5B EQ PUSH2 0x136 JUMPI JUMPDEST PUSH0 DUP1 REVERT JUMPDEST PUSH2 0xBE PUSH2 0x201 JUMP JUMPDEST PUSH1 0x40 MLOAD PUSH2 0xCB SWAP2 SWAP1 PUSH2 0x1069 JUMP JUMPDEST PUSH1 0x40 MLOAD DUP1 SWAP2 SUB SWAP1 RETURN JUMPDEST PUSH2 0xDC PUSH2 0x226 JUMP JUMPDEST PUSH1 0x40 MLOAD PUSH2 0xE9 SWAP2 SWAP1 PUSH2 0x109A JUMP JUMPDEST PUSH1 0x40 MLOAD DUP1 SWAP2 SUB SWAP1 RETURN JUMPDEST PUSH2 0xFA PUSH2 0x22C JUMP JUMPDEST PUSH1 0x40 MLOAD PUSH2 0x107 SWAP2 SWAP1 PUSH2 0x1069 JUMP JUMPDEST PUSH1 0x40 MLOAD DUP1 SWAP2 SUB SWAP1 RETURN JUMPDEST PUSH2 0x118 PUSH2 0x251 JUMP JUMPDEST STOP JUMPDEST PUSH2 0x134 PUSH1 0x4 DUP1 CALLDATASIZE SUB DUP2 ADD SWAP1 PUSH2 0x12F SWAP2 SWAP1 PUSH2 0x10E1 JUMP JUMPDEST PUSH2 0x264 JUMP JUMPDEST STOP JUMPDEST PUSH2 0x13E PUSH2 0x4F4 JUMP JUMPDEST PUSH1 0x40 MLOAD PUSH2 0x14B SWAP2 SWAP1 PUSH2 0x112C JUMP JUMPDEST PUSH1 0x40 MLOAD DUP1 SWAP2 SUB SWAP1 RETURN JUMPDEST PUSH2 0x15C PUSH2 0x51B JUMP JUMPDEST PUSH1 0x40 MLOAD PUSH2 0x16A SWAP3 SWAP2 SWAP1 PUSH2 0x1145 JUMP JUMPDEST PUSH1 0x40 MLOAD DUP1 SWAP2 SUB SWAP1 RETURN JUMPDEST PUSH2 0x18D PUSH1 0x4 DUP1 CALLDATASIZE SUB DUP2 ADD SWAP1 PUSH2 0x188 SWAP2 SWAP1 PUSH2 0x116C JUMP JUMPDEST PUSH2 0x5BC JUMP JUMPDEST STOP JUMPDEST PUSH2 0x1A9 PUSH1 0x4 DUP1 CALLDATASIZE SUB DUP2 ADD SWAP1 PUSH2 0x1A4 SWAP2 SWAP1 PUSH2 0x116C JUMP JUMPDEST PUSH2 0x84F JUMP JUMPDEST STOP JUMPDEST PUSH2 0x1B3 PUSH2 0xAE4 JUMP JUMPDEST PUSH1 0x40 MLOAD PUSH2 0x1C0 SWAP2 SWAP1 PUSH2 0x109A JUMP JUMPDEST PUSH1 0x40 MLOAD DUP1 SWAP2 SUB SWAP1 RETURN JUMPDEST PUSH2 0x1E3 PUSH1 0x4 DUP1 CALLDATASIZE SUB DUP2 ADD SWAP1 PUSH2 0x1DE SWAP2 SWAP1 PUSH2 0x10E1 JUMP JUMPDEST PUSH2 0xAEA JUMP JUMPDEST STOP JUMPDEST PUSH2 0x1FF PUSH1 0x4 DUP1 CALLDATASIZE SUB DUP2 ADD SWAP1 PUSH2 0x1FA SWAP2 SWAP1 PUSH2 0x11D4 JUMP JUMPDEST PUSH2 0xD7A JUMP JUMPDEST STOP JUMPDEST PUSH1 0x1 PUSH0 SWAP1 SLOAD SWAP1 PUSH2 0x100 EXP SWAP1 DIV PUSH20 0xFFFFFFFFFFFFFFFFFFFFFFFFFFFFFFFFFFFFFFFF AND DUP2 JUMP JUMPDEST PUSH1 0x4 SLOAD DUP2 JUMP JUMPDEST PUSH1 0x2 PUSH0 SWAP1 SLOAD SWAP1 PUSH2 0x100 EXP SWAP1 DIV PUSH20 0xFFFFFFFFFFFFFFFFFFFFFFFFFFFFFFFFFFFFFFFF AND DUP2 JUMP JUMPDEST PUSH2 0x259 PUSH2 0xDFE JUMP JUMPDEST PUSH2 0x262 PUSH0 PUSH2 0xE85 JUMP JUMPDEST JUMP JUMPDEST PUSH0 DUP2 GT PUSH2 0x2A6 JUMPI PUSH1 0x40 MLOAD PUSH32 0x8C379A000000000000000000000000000000000000000000000000000000000 DUP2 MSTORE PUSH1 0x4 ADD PUSH2 0x29D SWAP1 PUSH2 0x1259 JUMP JUMPDEST PUSH1 0x40 MLOAD DUP1 SWAP2 SUB SWAP1 REVERT JUMPDEST PUSH1 0x2 PUSH0 SWAP1 SLOAD SWAP1 PUSH2 0x100 EXP SWAP1 DIV PUSH20 0xFFFFFFFFFFFFFFFFFFFFFFFFFFFFFFFFFFFFFFFF AND PUSH20 0xFFFFFFFFFFFFFFFFFFFFFFFFFFFFFFFFFFFFFFFF AND PUSH4 0x23B872DD CALLER ADDRESS DUP5 PUSH1 0x40 MLOAD DUP5 PUSH4 0xFFFFFFFF AND PUSH1 0xE0 SHL DUP2 MSTORE PUSH1 0x4 ADD PUSH2 0x304 SWAP4 SWAP3 SWAP2 SWAP1 PUSH2 0x1277 JUMP JUMPDEST PUSH1 0x20 PUSH1 0x40 MLOAD DUP1 DUP4 SUB DUP2 PUSH0 DUP8 GAS CALL ISZERO DUP1 ISZERO PUSH2 0x320 JUMPI RETURNDATASIZE PUSH0 DUP1 RETURNDATACOPY RETURNDATASIZE PUSH0 REVERT JUMPDEST POP POP POP POP PUSH1 0x40 MLOAD RETURNDATASIZE PUSH1 0x1F NOT PUSH1 0x1F DUP3 ADD AND DUP3 ADD DUP1 PUSH1 0x40 MSTORE POP DUP2 ADD SWAP1 PUSH2 0x344 SWAP2 SWAP1 PUSH2 0x12E1 JUMP JUMPDEST PUSH2 0x383 JUMPI PUSH1 0x40 MLOAD PUSH32 0x8C379A000000000000000000000000000000000000000000000000000000000 DUP2 MSTORE PUSH1 0x4 ADD PUSH2 0x37A SWAP1 PUSH2 0x1356 JUMP JUMPDEST PUSH1 0x40 MLOAD DUP1 SWAP2 SUB SWAP1 REVERT JUMPDEST PUSH0 PUSH2 0x393 DUP3 PUSH1 0x4 SLOAD PUSH1 0x3 SLOAD PUSH2 0xF46 JUMP JUMPDEST SWAP1 POP DUP2 PUSH1 0x4 PUSH0 DUP3 DUP3 SLOAD PUSH2 0x3A6 SWAP2 SWAP1 PUSH2 0x13A1 JUMP JUMPDEST SWAP3 POP POP DUP2 SWAP1 SSTORE POP DUP1 PUSH1 0x3 PUSH0 DUP3 DUP3 SLOAD PUSH2 0x3BE SWAP2 SWAP1 PUSH2 0x13D4 JUMP JUMPDEST SWAP3 POP POP DUP2 SWAP1 SSTORE POP PUSH1 0x1 PUSH0 SWAP1 SLOAD SWAP1 PUSH2 0x100 EXP SWAP1 DIV PUSH20 0xFFFFFFFFFFFFFFFFFFFFFFFFFFFFFFFFFFFFFFFF AND PUSH20 0xFFFFFFFFFFFFFFFFFFFFFFFFFFFFFFFFFFFFFFFF AND PUSH4 0xA9059CBB CALLER DUP4 PUSH1 0x40 MLOAD DUP4 PUSH4 0xFFFFFFFF AND PUSH1 0xE0 SHL DUP2 MSTORE PUSH1 0x4 ADD PUSH2 0x421 SWAP3 SWAP2 SWAP1 PUSH2 0x1407 JUMP JUMPDEST PUSH1 0x20 PUSH1 0x40 MLOAD DUP1 DUP4 SUB DUP2 PUSH0 DUP8 GAS CALL ISZERO DUP1 ISZERO PUSH2 0x43D JUMPI RETURNDATASIZE PUSH0 DUP1 RETURNDATACOPY RETURNDATASIZE PUSH0 REVERT JUMPDEST POP POP POP POP PUSH1 0x40 MLOAD RETURNDATASIZE PUSH1 0x1F NOT PUSH1 0x1F DUP3 ADD AND DUP3 ADD DUP1 PUSH1 0x40 MSTORE POP DUP2 ADD SWAP1 PUSH2 0x461 SWAP2 SWAP1 PUSH2 0x12E1 JUMP JUMPDEST PUSH2 0x4A0 JUMPI PUSH1 0x40 MLOAD PUSH32 0x8C379A000000000000000000000000000000000000000000000000000000000 DUP2 MSTORE PUSH1 0x4 ADD PUSH2 0x497 SWAP1 PUSH2 0x1478 JUMP JUMPDEST PUSH1 0x40 MLOAD DUP1 SWAP2 SUB SWAP1 REVERT JUMPDEST CALLER PUSH20 0xFFFFFFFFFFFFFFFFFFFFFFFFFFFFFFFFFFFFFFFF AND PUSH32 0x8D400643FA1CCABA7CE092175917C6D7087E296293A5D0DE32BCCB310F4774AB DUP4 DUP4 PUSH1 0x40 MLOAD PUSH2 0x4E8 SWAP3 SWAP2 SWAP1 PUSH2 0x14E0 JUMP JUMPDEST PUSH1 0x40 MLOAD DUP1 SWAP2 SUB SWAP1 LOG2 POP POP JUMP JUMPDEST PUSH0 DUP1 PUSH0 SWAP1 SLOAD SWAP1 PUSH2 0x100 EXP SWAP1 DIV PUSH20 0xFFFFFFFFFFFFFFFFFFFFFFFFFFFFFFFFFFFFFFFF AND SWAP1 POP SWAP1 JUMP JUMPDEST PUSH0 DUP1 PUSH0 PUSH1 0x3 SLOAD GT DUP1 ISZERO PUSH2 0x52F JUMPI POP PUSH0 PUSH1 0x4 SLOAD GT JUMPDEST PUSH2 0x56E JUMPI PUSH1 0x40 MLOAD PUSH32 0x8C379A000000000000000000000000000000000000000000000000000000000 DUP2 MSTORE PUSH1 0x4 ADD PUSH2 0x565 SWAP1 PUSH2 0x1564 JUMP JUMPDEST PUSH1 0x40 MLOAD DUP1 SWAP2 SUB SWAP1 REVERT JUMPDEST PUSH1 0x3 SLOAD PUSH8 0xDE0B6B3A7640000 PUSH1 0x4 SLOAD PUSH2 0x587 SWAP2 SWAP1 PUSH2 0x1582 JUMP JUMPDEST PUSH2 0x591 SWAP2 SWAP1 PUSH2 0x15F0 JUMP JUMPDEST SWAP2 POP PUSH1 0x4 SLOAD PUSH8 0xDE0B6B3A7640000 PUSH1 0x3 SLOAD PUSH2 0x5AC SWAP2 SWAP1 PUSH2 0x1582 JUMP JUMPDEST PUSH2 0x5B6 SWAP2 SWAP1 PUSH2 0x15F0 JUMP JUMPDEST SWAP1 POP SWAP1 SWAP2 JUMP JUMPDEST PUSH2 0x5C4 PUSH2 0xDFE JUMP JUMPDEST PUSH0 DUP3 GT DUP1 ISZERO PUSH2 0x5D2 JUMPI POP PUSH0 DUP2 GT JUMPDEST PUSH2 0x611 JUMPI PUSH1 0x40 MLOAD PUSH32 0x8C379A000000000000000000000000000000000000000000000000000000000 DUP2 MSTORE PUSH1 0x4 ADD PUSH2 0x608 SWAP1 PUSH2 0x1259 JUMP JUMPDEST PUSH1 0x40 MLOAD DUP1 SWAP2 SUB SWAP1 REVERT JUMPDEST PUSH1 0x1 PUSH0 SWAP1 SLOAD SWAP1 PUSH2 0x100 EXP SWAP1 DIV PUSH20 0xFFFFFFFFFFFFFFFFFFFFFFFFFFFFFFFFFFFFFFFF AND PUSH20 0xFFFFFFFFFFFFFFFFFFFFFFFFFFFFFFFFFFFFFFFF AND PUSH4 0x23B872DD CALLER ADDRESS DUP6 PUSH1 0x40 MLOAD DUP5 PUSH4 0xFFFFFFFF AND PUSH1 0xE0 SHL DUP2 MSTORE PUSH1 0x4 ADD PUSH2 0x66F SWAP4 SWAP3 SWAP2 SWAP1 PUSH2 0x1277 JUMP JUMPDEST PUSH1 0x20 PUSH1 0x40 MLOAD DUP1 DUP4 SUB DUP2 PUSH0 DUP8 GAS CALL ISZERO DUP1 ISZERO PUSH2 0x68B JUMPI RETURNDATASIZE PUSH0 DUP1 RETURNDATACOPY RETURNDATASIZE PUSH0 REVERT JUMPDEST POP POP POP POP PUSH1 0x40 MLOAD RETURNDATASIZE PUSH1 0x1F NOT PUSH1 0x1F DUP3 ADD AND DUP3 ADD DUP1 PUSH1 0x40 MSTORE POP DUP2 ADD SWAP1 PUSH2 0x6AF SWAP2 SWAP1 PUSH2 0x12E1 JUMP JUMPDEST PUSH2 0x6EE JUMPI PUSH1 0x40 MLOAD PUSH32 0x8C379A000000000000000000000000000000000000000000000000000000000 DUP2 MSTORE PUSH1 0x4 ADD PUSH2 0x6E5 SWAP1 PUSH2 0x166A JUMP JUMPDEST PUSH1 0x40 MLOAD DUP1 SWAP2 SUB SWAP1 REVERT JUMPDEST PUSH1 0x2 PUSH0 SWAP1 SLOAD SWAP1 PUSH2 0x100 EXP SWAP1 DIV PUSH20 0xFFFFFFFFFFFFFFFFFFFFFFFFFFFFFFFFFFFFFFFF AND PUSH20 0xFFFFFFFFFFFFFFFFFFFFFFFFFFFFFFFFFFFFFFFF AND PUSH4 0x23B872DD CALLER ADDRESS DUP5 PUSH1 0x40 MLOAD DUP5 PUSH4 0xFFFFFFFF AND PUSH1 0xE0 SHL DUP2 MSTORE PUSH1 0x4 ADD PUSH2 0x74C SWAP4 SWAP3 SWAP2 SWAP1 PUSH2 0x1277 JUMP JUMPDEST PUSH1 0x20 PUSH1 0x40 MLOAD DUP1 DUP4 SUB DUP2 PUSH0 DUP8 GAS CALL ISZERO DUP1 ISZERO PUSH2 0x768 JUMPI RETURNDATASIZE PUSH0 DUP1 RETURNDATACOPY RETURNDATASIZE PUSH0 REVERT JUMPDEST POP POP POP POP PUSH1 0x40 MLOAD RETURNDATASIZE PUSH1 0x1F NOT PUSH1 0x1F DUP3 ADD AND DUP3 ADD DUP1 PUSH1 0x40 MSTORE POP DUP2 ADD SWAP1 PUSH2 0x78C SWAP2 SWAP1 PUSH2 0x12E1 JUMP JUMPDEST PUSH2 0x7CB JUMPI PUSH1 0x40 MLOAD PUSH32 0x8C379A000000000000000000000000000000000000000000000000000000000 DUP2 MSTORE PUSH1 0x4 ADD PUSH2 0x7C2 SWAP1 PUSH2 0x16D2 JUMP JUMPDEST PUSH1 0x40 MLOAD DUP1 SWAP2 SUB SWAP1 REVERT JUMPDEST DUP2 PUSH1 0x3 PUSH0 DUP3 DUP3 SLOAD PUSH2 0x7DC SWAP2 SWAP1 PUSH2 0x13A1 JUMP JUMPDEST SWAP3 POP POP DUP2 SWAP1 SSTORE POP DUP1 PUSH1 0x4 PUSH0 DUP3 DUP3 SLOAD PUSH2 0x7F4 SWAP2 SWAP1 PUSH2 0x13A1 JUMP JUMPDEST SWAP3 POP POP DUP2 SWAP1 SSTORE POP CALLER PUSH20 0xFFFFFFFFFFFFFFFFFFFFFFFFFFFFFFFFFFFFFFFF AND PUSH32 0xAC1D76749E5447B7B16F5AB61447E1BD502F3BB4807AF3B28E620D1700A6EE45 DUP4 DUP4 PUSH1 0x40 MLOAD PUSH2 0x843 SWAP3 SWAP2 SWAP1 PUSH2 0x1145 JUMP JUMPDEST PUSH1 0x40 MLOAD DUP1 SWAP2 SUB SWAP1 LOG2 POP POP JUMP JUMPDEST PUSH2 0x857 PUSH2 0xDFE JUMP JUMPDEST PUSH1 0x3 SLOAD DUP3 GT ISZERO DUP1 ISZERO PUSH2 0x86B JUMPI POP PUSH1 0x4 SLOAD DUP2 GT ISZERO JUMPDEST PUSH2 0x8AA JUMPI PUSH1 0x40 MLOAD PUSH32 0x8C379A000000000000000000000000000000000000000000000000000000000 DUP2 MSTORE PUSH1 0x4 ADD PUSH2 0x8A1 SWAP1 PUSH2 0x173A JUMP JUMPDEST PUSH1 0x40 MLOAD DUP1 SWAP2 SUB SWAP1 REVERT JUMPDEST DUP2 PUSH1 0x3 PUSH0 DUP3 DUP3 SLOAD PUSH2 0x8BB SWAP2 SWAP1 PUSH2 0x13D4 JUMP JUMPDEST SWAP3 POP POP DUP2 SWAP1 SSTORE POP DUP1 PUSH1 0x4 PUSH0 DUP3 DUP3 SLOAD PUSH2 0x8D3 SWAP2 SWAP1 PUSH2 0x13D4 JUMP JUMPDEST SWAP3 POP POP DUP2 SWAP1 SSTORE POP PUSH1 0x1 PUSH0 SWAP1 SLOAD SWAP1 PUSH2 0x100 EXP SWAP1 DIV PUSH20 0xFFFFFFFFFFFFFFFFFFFFFFFFFFFFFFFFFFFFFFFF AND PUSH20 0xFFFFFFFFFFFFFFFFFFFFFFFFFFFFFFFFFFFFFFFF AND PUSH4 0xA9059CBB CALLER DUP5 PUSH1 0x40 MLOAD DUP4 PUSH4 0xFFFFFFFF AND PUSH1 0xE0 SHL DUP2 MSTORE PUSH1 0x4 ADD PUSH2 0x936 SWAP3 SWAP2 SWAP1 PUSH2 0x1407 JUMP JUMPDEST PUSH1 0x20 PUSH1 0x40 MLOAD DUP1 DUP4 SUB DUP2 PUSH0 DUP8 GAS CALL ISZERO DUP1 ISZERO PUSH2 0x952 JUMPI RETURNDATASIZE PUSH0 DUP1 RETURNDATACOPY RETURNDATASIZE PUSH0 REVERT JUMPDEST POP POP POP POP PUSH1 0x40 MLOAD RETURNDATASIZE PUSH1 0x1F NOT PUSH1 0x1F DUP3 ADD AND DUP3 ADD DUP1 PUSH1 0x40 MSTORE POP DUP2 ADD SWAP1 PUSH2 0x976 SWAP2 SWAP1 PUSH2 0x12E1 JUMP JUMPDEST PUSH2 0x9B5 JUMPI PUSH1 0x40 MLOAD PUSH32 0x8C379A000000000000000000000000000000000000000000000000000000000 DUP2 MSTORE PUSH1 0x4 ADD PUSH2 0x9AC SWAP1 PUSH2 0x1478 JUMP JUMPDEST PUSH1 0x40 MLOAD DUP1 SWAP2 SUB SWAP1 REVERT JUMPDEST PUSH1 0x2 PUSH0 SWAP1 SLOAD SWAP1 PUSH2 0x100 EXP SWAP1 DIV PUSH20 0xFFFFFFFFFFFFFFFFFFFFFFFFFFFFFFFFFFFFFFFF AND PUSH20 0xFFFFFFFFFFFFFFFFFFFFFFFFFFFFFFFFFFFFFFFF AND PUSH4 0xA9059CBB CALLER DUP4 PUSH1 0x40 MLOAD DUP4 PUSH4 0xFFFFFFFF AND PUSH1 0xE0 SHL DUP2 MSTORE PUSH1 0x4 ADD PUSH2 0xA11 SWAP3 SWAP2 SWAP1 PUSH2 0x1407 JUMP JUMPDEST PUSH1 0x20 PUSH1 0x40 MLOAD DUP1 DUP4 SUB DUP2 PUSH0 DUP8 GAS CALL ISZERO DUP1 ISZERO PUSH2 0xA2D JUMPI RETURNDATASIZE PUSH0 DUP1 RETURNDATACOPY RETURNDATASIZE PUSH0 REVERT JUMPDEST POP POP POP POP PUSH1 0x40 MLOAD RETURNDATASIZE PUSH1 0x1F NOT PUSH1 0x1F DUP3 ADD AND DUP3 ADD DUP1 PUSH1 0x40 MSTORE POP DUP2 ADD SWAP1 PUSH2 0xA51 SWAP2 SWAP1 PUSH2 0x12E1 JUMP JUMPDEST PUSH2 0xA90 JUMPI PUSH1 0x40 MLOAD PUSH32 0x8C379A000000000000000000000000000000000000000000000000000000000 DUP2 MSTORE PUSH1 0x4 ADD PUSH2 0xA87 SWAP1 PUSH2 0x17A2 JUMP JUMPDEST PUSH1 0x40 MLOAD DUP1 SWAP2 SUB SWAP1 REVERT JUMPDEST CALLER PUSH20 0xFFFFFFFFFFFFFFFFFFFFFFFFFFFFFFFFFFFFFFFF AND PUSH32 0x96CD817C6329656790EF8FBA7675405193677D39619571282F5E21F3A98CD059 DUP4 DUP4 PUSH1 0x40 MLOAD PUSH2 0xAD8 SWAP3 SWAP2 SWAP1 PUSH2 0x1145 JUMP JUMPDEST PUSH1 0x40 MLOAD DUP1 SWAP2 SUB SWAP1 LOG2 POP POP JUMP JUMPDEST PUSH1 0x3 SLOAD DUP2 JUMP JUMPDEST PUSH0 DUP2 GT PUSH2 0xB2C JUMPI PUSH1 0x40 MLOAD PUSH32 0x8C379A000000000000000000000000000000000000000000000000000000000 DUP2 MSTORE PUSH1 0x4 ADD PUSH2 0xB23 SWAP1 PUSH2 0x1259 JUMP JUMPDEST PUSH1 0x40 MLOAD DUP1 SWAP2 SUB SWAP1 REVERT JUMPDEST PUSH1 0x1 PUSH0 SWAP1 SLOAD SWAP1 PUSH2 0x100 EXP SWAP1 DIV PUSH20 0xFFFFFFFFFFFFFFFFFFFFFFFFFFFFFFFFFFFFFFFF AND PUSH20 0xFFFFFFFFFFFFFFFFFFFFFFFFFFFFFFFFFFFFFFFF AND PUSH4 0x23B872DD CALLER ADDRESS DUP5 PUSH1 0x40 MLOAD DUP5 PUSH4 0xFFFFFFFF AND PUSH1 0xE0 SHL DUP2 MSTORE PUSH1 0x4 ADD PUSH2 0xB8A SWAP4 SWAP3 SWAP2 SWAP1 PUSH2 0x1277 JUMP JUMPDEST PUSH1 0x20 PUSH1 0x40 MLOAD DUP1 DUP4 SUB DUP2 PUSH0 DUP8 GAS CALL ISZERO DUP1 ISZERO PUSH2 0xBA6 JUMPI RETURNDATASIZE PUSH0 DUP1 RETURNDATACOPY RETURNDATASIZE PUSH0 REVERT JUMPDEST POP POP POP POP PUSH1 0x40 MLOAD RETURNDATASIZE PUSH1 0x1F NOT PUSH1 0x1F DUP3 ADD AND DUP3 ADD DUP1 PUSH1 0x40 MSTORE POP DUP2 ADD SWAP1 PUSH2 0xBCA SWAP2 SWAP1 PUSH2 0x12E1 JUMP JUMPDEST PUSH2 0xC09 JUMPI PUSH1 0x40 MLOAD PUSH32 0x8C379A000000000000000000000000000000000000000000000000000000000 DUP2 MSTORE PUSH1 0x4 ADD PUSH2 0xC00 SWAP1 PUSH2 0x1356 JUMP JUMPDEST PUSH1 0x40 MLOAD DUP1 SWAP2 SUB SWAP1 REVERT JUMPDEST PUSH0 PUSH2 0xC19 DUP3 PUSH1 0x3 SLOAD PUSH1 0x4 SLOAD PUSH2 0xF46 JUMP JUMPDEST SWAP1 POP DUP2 PUSH1 0x3 PUSH0 DUP3 DUP3 SLOAD PUSH2 0xC2C SWAP2 SWAP1 PUSH2 0x13A1 JUMP JUMPDEST SWAP3 POP POP DUP2 SWAP1 SSTORE POP DUP1 PUSH1 0x4 PUSH0 DUP3 DUP3 SLOAD PUSH2 0xC44 SWAP2 SWAP1 PUSH2 0x13D4 JUMP JUMPDEST SWAP3 POP POP DUP2 SWAP1 SSTORE POP PUSH1 0x2 PUSH0 SWAP1 SLOAD SWAP1 PUSH2 0x100 EXP SWAP1 DIV PUSH20 0xFFFFFFFFFFFFFFFFFFFFFFFFFFFFFFFFFFFFFFFF AND PUSH20 0xFFFFFFFFFFFFFFFFFFFFFFFFFFFFFFFFFFFFFFFF AND PUSH4 0xA9059CBB CALLER DUP4 PUSH1 0x40 MLOAD DUP4 PUSH4 0xFFFFFFFF AND PUSH1 0xE0 SHL DUP2 MSTORE PUSH1 0x4 ADD PUSH2 0xCA7 SWAP3 SWAP2 SWAP1 PUSH2 0x1407 JUMP JUMPDEST PUSH1 0x20 PUSH1 0x40 MLOAD DUP1 DUP4 SUB DUP2 PUSH0 DUP8 GAS CALL ISZERO DUP1 ISZERO PUSH2 0xCC3 JUMPI RETURNDATASIZE PUSH0 DUP1 RETURNDATACOPY RETURNDATASIZE PUSH0 REVERT JUMPDEST POP POP POP POP PUSH1 0x40 MLOAD RETURNDATASIZE PUSH1 0x1F NOT PUSH1 0x1F DUP3 ADD AND DUP3 ADD DUP1 PUSH1 0x40 MSTORE POP DUP2 ADD SWAP1 PUSH2 0xCE7 SWAP2 SWAP1 PUSH2 0x12E1 JUMP JUMPDEST PUSH2 0xD26 JUMPI PUSH1 0x40 MLOAD PUSH32 0x8C379A000000000000000000000000000000000000000000000000000000000 DUP2 MSTORE PUSH1 0x4 ADD PUSH2 0xD1D SWAP1 PUSH2 0x17A2 JUMP JUMPDEST PUSH1 0x40 MLOAD DUP1 SWAP2 SUB SWAP1 REVERT JUMPDEST CALLER PUSH20 0xFFFFFFFFFFFFFFFFFFFFFFFFFFFFFFFFFFFFFFFF AND PUSH32 0x8D400643FA1CCABA7CE092175917C6D7087E296293A5D0DE32BCCB310F4774AB DUP4 DUP4 PUSH1 0x40 MLOAD PUSH2 0xD6E SWAP3 SWAP2 SWAP1 PUSH2 0x180A JUMP JUMPDEST PUSH1 0x40 MLOAD DUP1 SWAP2 SUB SWAP1 LOG2 POP POP JUMP JUMPDEST PUSH2 0xD82 PUSH2 0xDFE JUMP JUMPDEST PUSH0 PUSH20 0xFFFFFFFFFFFFFFFFFFFFFFFFFFFFFFFFFFFFFFFF AND DUP2 PUSH20 0xFFFFFFFFFFFFFFFFFFFFFFFFFFFFFFFFFFFFFFFF AND SUB PUSH2 0xDF2 JUMPI PUSH0 PUSH1 0x40 MLOAD PUSH32 0x1E4FBDF700000000000000000000000000000000000000000000000000000000 DUP2 MSTORE PUSH1 0x4 ADD PUSH2 0xDE9 SWAP2 SWAP1 PUSH2 0x112C JUMP JUMPDEST PUSH1 0x40 MLOAD DUP1 SWAP2 SUB SWAP1 REVERT JUMPDEST PUSH2 0xDFB DUP2 PUSH2 0xE85 JUMP JUMPDEST POP JUMP JUMPDEST PUSH2 0xE06 PUSH2 0xFE8 JUMP JUMPDEST PUSH20 0xFFFFFFFFFFFFFFFFFFFFFFFFFFFFFFFFFFFFFFFF AND PUSH2 0xE24 PUSH2 0x4F4 JUMP JUMPDEST PUSH20 0xFFFFFFFFFFFFFFFFFFFFFFFFFFFFFFFFFFFFFFFF AND EQ PUSH2 0xE83 JUMPI PUSH2 0xE47 PUSH2 0xFE8 JUMP JUMPDEST PUSH1 0x40 MLOAD PUSH32 0x118CDAA700000000000000000000000000000000000000000000000000000000 DUP2 MSTORE PUSH1 0x4 ADD PUSH2 0xE7A SWAP2 SWAP1 PUSH2 0x112C JUMP JUMPDEST PUSH1 0x40 MLOAD DUP1 SWAP2 SUB SWAP1 REVERT JUMPDEST JUMP JUMPDEST PUSH0 DUP1 PUSH0 SWAP1 SLOAD SWAP1 PUSH2 0x100 EXP SWAP1 DIV PUSH20 0xFFFFFFFFFFFFFFFFFFFFFFFFFFFFFFFFFFFFFFFF AND SWAP1 POP DUP2 PUSH0 DUP1 PUSH2 0x100 EXP DUP2 SLOAD DUP2 PUSH20 0xFFFFFFFFFFFFFFFFFFFFFFFFFFFFFFFFFFFFFFFF MUL NOT AND SWAP1 DUP4 PUSH20 0xFFFFFFFFFFFFFFFFFFFFFFFFFFFFFFFFFFFFFFFF AND MUL OR SWAP1 SSTORE POP DUP2 PUSH20 0xFFFFFFFFFFFFFFFFFFFFFFFFFFFFFFFFFFFFFFFF AND DUP2 PUSH20 0xFFFFFFFFFFFFFFFFFFFFFFFFFFFFFFFFFFFFFFFF AND PUSH32 0x8BE0079C531659141344CD1FD0A4F28419497F9722A3DAAFE3B4186F6B6457E0 PUSH1 0x40 MLOAD PUSH1 0x40 MLOAD DUP1 SWAP2 SUB SWAP1 LOG3 POP POP JUMP JUMPDEST PUSH0 DUP1 DUP4 GT DUP1 ISZERO PUSH2 0xF55 JUMPI POP PUSH0 DUP3 GT JUMPDEST PUSH2 0xF94 JUMPI PUSH1 0x40 MLOAD PUSH32 0x8C379A000000000000000000000000000000000000000000000000000000000 DUP2 MSTORE PUSH1 0x4 ADD PUSH2 0xF8B SWAP1 PUSH2 0x188E JUMP JUMPDEST PUSH1 0x40 MLOAD DUP1 SWAP2 SUB SWAP1 REVERT JUMPDEST PUSH0 PUSH2 0x3E5 DUP6 PUSH2 0xFA3 SWAP2 SWAP1 PUSH2 0x1582 JUMP JUMPDEST SWAP1 POP PUSH0 DUP4 DUP3 PUSH2 0xFB2 SWAP2 SWAP1 PUSH2 0x1582 JUMP JUMPDEST SWAP1 POP PUSH0 DUP3 PUSH2 0x3E8 DUP8 PUSH2 0xFC4 SWAP2 SWAP1 PUSH2 0x1582 JUMP JUMPDEST PUSH2 0xFCE SWAP2 SWAP1 PUSH2 0x13A1 JUMP JUMPDEST SWAP1 POP DUP1 DUP3 PUSH2 0xFDC SWAP2 SWAP1 PUSH2 0x15F0 JUMP JUMPDEST SWAP4 POP POP POP POP SWAP4 SWAP3 POP POP POP JUMP JUMPDEST PUSH0 CALLER SWAP1 POP SWAP1 JUMP JUMPDEST PUSH0 PUSH20 0xFFFFFFFFFFFFFFFFFFFFFFFFFFFFFFFFFFFFFFFF DUP3 AND SWAP1 POP SWAP2 SWAP1 POP JUMP JUMPDEST PUSH0 DUP2 SWAP1 POP SWAP2 SWAP1 POP JUMP JUMPDEST PUSH0 PUSH2 0x1031 PUSH2 0x102C PUSH2 0x1027 DUP5 PUSH2 0xFEF JUMP JUMPDEST PUSH2 0x100E JUMP JUMPDEST PUSH2 0xFEF JUMP JUMPDEST SWAP1 POP SWAP2 SWAP1 POP JUMP JUMPDEST PUSH0 PUSH2 0x1042 DUP3 PUSH2 0x1017 JUMP JUMPDEST SWAP1 POP SWAP2 SWAP1 POP JUMP JUMPDEST PUSH0 PUSH2 0x1053 DUP3 PUSH2 0x1038 JUMP JUMPDEST SWAP1 POP SWAP2 SWAP1 POP JUMP JUMPDEST PUSH2 0x1063 DUP2 PUSH2 0x1049 JUMP JUMPDEST DUP3 MSTORE POP POP JUMP JUMPDEST PUSH0 PUSH1 0x20 DUP3 ADD SWAP1 POP PUSH2 0x107C PUSH0 DUP4 ADD DUP5 PUSH2 0x105A JUMP JUMPDEST SWAP3 SWAP2 POP POP JUMP JUMPDEST PUSH0 DUP2 SWAP1 POP SWAP2 SWAP1 POP JUMP JUMPDEST PUSH2 0x1094 DUP2 PUSH2 0x1082 JUMP JUMPDEST DUP3 MSTORE POP POP JUMP JUMPDEST PUSH0 PUSH1 0x20 DUP3 ADD SWAP1 POP PUSH2 0x10AD PUSH0 DUP4 ADD DUP5 PUSH2 0x108B JUMP JUMPDEST SWAP3 SWAP2 POP POP JUMP JUMPDEST PUSH0 DUP1 REVERT JUMPDEST PUSH2 0x10C0 DUP2 PUSH2 0x1082 JUMP JUMPDEST DUP2 EQ PUSH2 0x10CA JUMPI PUSH0 DUP1 REVERT JUMPDEST POP JUMP JUMPDEST PUSH0 DUP2 CALLDATALOAD SWAP1 POP PUSH2 0x10DB DUP2 PUSH2 0x10B7 JUMP JUMPDEST SWAP3 SWAP2 POP POP JUMP JUMPDEST PUSH0 PUSH1 0x20 DUP3 DUP5 SUB SLT ISZERO PUSH2 0x10F6 JUMPI PUSH2 0x10F5 PUSH2 0x10B3 JUMP JUMPDEST JUMPDEST PUSH0 PUSH2 0x1103 DUP5 DUP3 DUP6 ADD PUSH2 0x10CD JUMP JUMPDEST SWAP2 POP POP SWAP3 SWAP2 POP POP JUMP JUMPDEST PUSH0 PUSH2 0x1116 DUP3 PUSH2 0xFEF JUMP JUMPDEST SWAP1 POP SWAP2 SWAP1 POP JUMP JUMPDEST PUSH2 0x1126 DUP2 PUSH2 0x110C JUMP JUMPDEST DUP3 MSTORE POP POP JUMP JUMPDEST PUSH0 PUSH1 0x20 DUP3 ADD SWAP1 POP PUSH2 0x113F PUSH0 DUP4 ADD DUP5 PUSH2 0x111D JUMP JUMPDEST SWAP3 SWAP2 POP POP JUMP JUMPDEST PUSH0 PUSH1 0x40 DUP3 ADD SWAP1 POP PUSH2 0x1158 PUSH0 DUP4 ADD DUP6 PUSH2 0x108B JUMP JUMPDEST PUSH2 0x1165 PUSH1 0x20 DUP4 ADD DUP5 PUSH2 0x108B JUMP JUMPDEST SWAP4 SWAP3 POP POP POP JUMP JUMPDEST PUSH0 DUP1 PUSH1 0x40 DUP4 DUP6 SUB SLT ISZERO PUSH2 0x1182 JUMPI PUSH2 0x1181 PUSH2 0x10B3 JUMP JUMPDEST JUMPDEST PUSH0 PUSH2 0x118F DUP6 DUP3 DUP7 ADD PUSH2 0x10CD JUMP JUMPDEST SWAP3 POP POP PUSH1 0x20 PUSH2 0x11A0 DUP6 DUP3 DUP7 ADD PUSH2 0x10CD JUMP JUMPDEST SWAP2 POP POP SWAP3 POP SWAP3 SWAP1 POP JUMP JUMPDEST PUSH2 0x11B3 DUP2 PUSH2 0x110C JUMP JUMPDEST DUP2 EQ PUSH2 0x11BD JUMPI PUSH0 DUP1 REVERT JUMPDEST POP JUMP JUMPDEST PUSH0 DUP2 CALLDATALOAD SWAP1 POP PUSH2 0x11CE DUP2 PUSH2 0x11AA JUMP JUMPDEST SWAP3 SWAP2 POP POP JUMP JUMPDEST PUSH0 PUSH1 0x20 DUP3 DUP5 SUB SLT ISZERO PUSH2 0x11E9 JUMPI PUSH2 0x11E8 PUSH2 0x10B3 JUMP JUMPDEST JUMPDEST PUSH0 PUSH2 0x11F6 DUP5 DUP3 DUP6 ADD PUSH2 0x11C0 JUMP JUMPDEST SWAP2 POP POP SWAP3 SWAP2 POP POP JUMP JUMPDEST PUSH0 DUP3 DUP3 MSTORE PUSH1 0x20 DUP3 ADD SWAP1 POP SWAP3 SWAP2 POP POP JUMP JUMPDEST PUSH32 0x43616E746964616420696E76616C696461000000000000000000000000000000 PUSH0 DUP3 ADD MSTORE POP JUMP JUMPDEST PUSH0 PUSH2 0x1243 PUSH1 0x11 DUP4 PUSH2 0x11FF JUMP JUMPDEST SWAP2 POP PUSH2 0x124E DUP3 PUSH2 0x120F JUMP JUMPDEST PUSH1 0x20 DUP3 ADD SWAP1 POP SWAP2 SWAP1 POP JUMP JUMPDEST PUSH0 PUSH1 0x20 DUP3 ADD SWAP1 POP DUP2 DUP2 SUB PUSH0 DUP4 ADD MSTORE PUSH2 0x1270 DUP2 PUSH2 0x1237 JUMP JUMPDEST SWAP1 POP SWAP2 SWAP1 POP JUMP JUMPDEST PUSH0 PUSH1 0x60 DUP3 ADD SWAP1 POP PUSH2 0x128A PUSH0 DUP4 ADD DUP7 PUSH2 0x111D JUMP JUMPDEST PUSH2 0x1297 PUSH1 0x20 DUP4 ADD DUP6 PUSH2 0x111D JUMP JUMPDEST PUSH2 0x12A4 PUSH1 0x40 DUP4 ADD DUP5 PUSH2 0x108B JUMP JUMPDEST SWAP5 SWAP4 POP POP POP POP JUMP JUMPDEST PUSH0 DUP2 ISZERO ISZERO SWAP1 POP SWAP2 SWAP1 POP JUMP JUMPDEST PUSH2 0x12C0 DUP2 PUSH2 0x12AC JUMP JUMPDEST DUP2 EQ PUSH2 0x12CA JUMPI PUSH0 DUP1 REVERT JUMPDEST POP JUMP JUMPDEST PUSH0 DUP2 MLOAD SWAP1 POP PUSH2 0x12DB DUP2 PUSH2 0x12B7 JUMP JUMPDEST SWAP3 SWAP2 POP POP JUMP JUMPDEST PUSH0 PUSH1 0x20 DUP3 DUP5 SUB SLT ISZERO PUSH2 0x12F6 JUMPI PUSH2 0x12F5 PUSH2 0x10B3 JUMP JUMPDEST JUMPDEST PUSH0 PUSH2 0x1303 DUP5 DUP3 DUP6 ADD PUSH2 0x12CD JUMP JUMPDEST SWAP2 POP POP SWAP3 SWAP2 POP POP JUMP JUMPDEST PUSH32 0x46616C6C6F20656E207472616E73666572656E63696100000000000000000000 PUSH0 DUP3 ADD MSTORE POP JUMP JUMPDEST PUSH0 PUSH2 0x1340 PUSH1 0x16 DUP4 PUSH2 0x11FF JUMP JUMPDEST SWAP2 POP PUSH2 0x134B DUP3 PUSH2 0x130C JUMP JUMPDEST PUSH1 0x20 DUP3 ADD SWAP1 POP SWAP2 SWAP1 POP JUMP JUMPDEST PUSH0 PUSH1 0x20 DUP3 ADD SWAP1 POP DUP2 DUP2 SUB PUSH0 DUP4 ADD MSTORE PUSH2 0x136D DUP2 PUSH2 0x1334 JUMP JUMPDEST SWAP1 POP SWAP2 SWAP1 POP JUMP JUMPDEST PUSH32 0x4E487B7100000000000000000000000000000000000000000000000000000000 PUSH0 MSTORE PUSH1 0x11 PUSH1 0x4 MSTORE PUSH1 0x24 PUSH0 REVERT JUMPDEST PUSH0 PUSH2 0x13AB DUP3 PUSH2 0x1082 JUMP JUMPDEST SWAP2 POP PUSH2 0x13B6 DUP4 PUSH2 0x1082 JUMP JUMPDEST SWAP3 POP DUP3 DUP3 ADD SWAP1 POP DUP1 DUP3 GT ISZERO PUSH2 0x13CE JUMPI PUSH2 0x13CD PUSH2 0x1374 JUMP JUMPDEST JUMPDEST SWAP3 SWAP2 POP POP JUMP JUMPDEST PUSH0 PUSH2 0x13DE DUP3 PUSH2 0x1082 JUMP JUMPDEST SWAP2 POP PUSH2 0x13E9 DUP4 PUSH2 0x1082 JUMP JUMPDEST SWAP3 POP DUP3 DUP3 SUB SWAP1 POP DUP2 DUP2 GT ISZERO PUSH2 0x1401 JUMPI PUSH2 0x1400 PUSH2 0x1374 JUMP JUMPDEST JUMPDEST SWAP3 SWAP2 POP POP JUMP JUMPDEST PUSH0 PUSH1 0x40 DUP3 ADD SWAP1 POP PUSH2 0x141A PUSH0 DUP4 ADD DUP6 PUSH2 0x111D JUMP JUMPDEST PUSH2 0x1427 PUSH1 0x20 DUP4 ADD DUP5 PUSH2 0x108B JUMP JUMPDEST SWAP4 SWAP3 POP POP POP JUMP JUMPDEST PUSH32 0x46616C6C6F20616C207472616E73666572697220546F6B656E41000000000000 PUSH0 DUP3 ADD MSTORE POP JUMP JUMPDEST PUSH0 PUSH2 0x1462 PUSH1 0x1A DUP4 PUSH2 0x11FF JUMP JUMPDEST SWAP2 POP PUSH2 0x146D DUP3 PUSH2 0x142E JUMP JUMPDEST PUSH1 0x20 DUP3 ADD SWAP1 POP SWAP2 SWAP1 POP JUMP JUMPDEST PUSH0 PUSH1 0x20 DUP3 ADD SWAP1 POP DUP2 DUP2 SUB PUSH0 DUP4 ADD MSTORE PUSH2 0x148F DUP2 PUSH2 0x1456 JUMP JUMPDEST SWAP1 POP SWAP2 SWAP1 POP JUMP JUMPDEST PUSH32 0x422D3E4100000000000000000000000000000000000000000000000000000000 PUSH0 DUP3 ADD MSTORE POP JUMP JUMPDEST PUSH0 PUSH2 0x14CA PUSH1 0x4 DUP4 PUSH2 0x11FF JUMP JUMPDEST SWAP2 POP PUSH2 0x14D5 DUP3 PUSH2 0x1496 JUMP JUMPDEST PUSH1 0x20 DUP3 ADD SWAP1 POP SWAP2 SWAP1 POP JUMP JUMPDEST PUSH0 PUSH1 0x60 DUP3 ADD SWAP1 POP DUP2 DUP2 SUB PUSH0 DUP4 ADD MSTORE PUSH2 0x14F7 DUP2 PUSH2 0x14BE JUMP JUMPDEST SWAP1 POP PUSH2 0x1506 PUSH1 0x20 DUP4 ADD DUP6 PUSH2 0x108B JUMP JUMPDEST PUSH2 0x1513 PUSH1 0x40 DUP4 ADD DUP5 PUSH2 0x108B JUMP JUMPDEST SWAP4 SWAP3 POP POP POP JUMP JUMPDEST PUSH32 0x53696E206C6971756964657A0000000000000000000000000000000000000000 PUSH0 DUP3 ADD MSTORE POP JUMP JUMPDEST PUSH0 PUSH2 0x154E PUSH1 0xC DUP4 PUSH2 0x11FF JUMP JUMPDEST SWAP2 POP PUSH2 0x1559 DUP3 PUSH2 0x151A JUMP JUMPDEST PUSH1 0x20 DUP3 ADD SWAP1 POP SWAP2 SWAP1 POP JUMP JUMPDEST PUSH0 PUSH1 0x20 DUP3 ADD SWAP1 POP DUP2 DUP2 SUB PUSH0 DUP4 ADD MSTORE PUSH2 0x157B DUP2 PUSH2 0x1542 JUMP JUMPDEST SWAP1 POP SWAP2 SWAP1 POP JUMP JUMPDEST PUSH0 PUSH2 0x158C DUP3 PUSH2 0x1082 JUMP JUMPDEST SWAP2 POP PUSH2 0x1597 DUP4 PUSH2 0x1082 JUMP JUMPDEST SWAP3 POP DUP3 DUP3 MUL PUSH2 0x15A5 DUP2 PUSH2 0x1082 JUMP JUMPDEST SWAP2 POP DUP3 DUP3 DIV DUP5 EQ DUP4 ISZERO OR PUSH2 0x15BC JUMPI PUSH2 0x15BB PUSH2 0x1374 JUMP JUMPDEST JUMPDEST POP SWAP3 SWAP2 POP POP JUMP JUMPDEST PUSH32 0x4E487B7100000000000000000000000000000000000000000000000000000000 PUSH0 MSTORE PUSH1 0x12 PUSH1 0x4 MSTORE PUSH1 0x24 PUSH0 REVERT JUMPDEST PUSH0 PUSH2 0x15FA DUP3 PUSH2 0x1082 JUMP JUMPDEST SWAP2 POP PUSH2 0x1605 DUP4 PUSH2 0x1082 JUMP JUMPDEST SWAP3 POP DUP3 PUSH2 0x1615 JUMPI PUSH2 0x1614 PUSH2 0x15C3 JUMP JUMPDEST JUMPDEST DUP3 DUP3 DIV SWAP1 POP SWAP3 SWAP2 POP POP JUMP JUMPDEST PUSH32 0x46616C6C6F20656E207472616E73666572656E63696120646520546F6B656E41 PUSH0 DUP3 ADD MSTORE POP JUMP JUMPDEST PUSH0 PUSH2 0x1654 PUSH1 0x20 DUP4 PUSH2 0x11FF JUMP JUMPDEST SWAP2 POP PUSH2 0x165F DUP3 PUSH2 0x1620 JUMP JUMPDEST PUSH1 0x20 DUP3 ADD SWAP1 POP SWAP2 SWAP1 POP JUMP JUMPDEST PUSH0 PUSH1 0x20 DUP3 ADD SWAP1 POP DUP2 DUP2 SUB PUSH0 DUP4 ADD MSTORE PUSH2 0x1681 DUP2 PUSH2 0x1648 JUMP JUMPDEST SWAP1 POP SWAP2 SWAP1 POP JUMP JUMPDEST PUSH32 0x46616C6C6F20656E207472616E73666572656E63696120646520546F6B656E42 PUSH0 DUP3 ADD MSTORE POP JUMP JUMPDEST PUSH0 PUSH2 0x16BC PUSH1 0x20 DUP4 PUSH2 0x11FF JUMP JUMPDEST SWAP2 POP PUSH2 0x16C7 DUP3 PUSH2 0x1688 JUMP JUMPDEST PUSH1 0x20 DUP3 ADD SWAP1 POP SWAP2 SWAP1 POP JUMP JUMPDEST PUSH0 PUSH1 0x20 DUP3 ADD SWAP1 POP DUP2 DUP2 SUB PUSH0 DUP4 ADD MSTORE PUSH2 0x16E9 DUP2 PUSH2 0x16B0 JUMP JUMPDEST SWAP1 POP SWAP2 SWAP1 POP JUMP JUMPDEST PUSH32 0x526573657276617320696E737566696369656E74657300000000000000000000 PUSH0 DUP3 ADD MSTORE POP JUMP JUMPDEST PUSH0 PUSH2 0x1724 PUSH1 0x16 DUP4 PUSH2 0x11FF JUMP JUMPDEST SWAP2 POP PUSH2 0x172F DUP3 PUSH2 0x16F0 JUMP JUMPDEST PUSH1 0x20 DUP3 ADD SWAP1 POP SWAP2 SWAP1 POP JUMP JUMPDEST PUSH0 PUSH1 0x20 DUP3 ADD SWAP1 POP DUP2 DUP2 SUB PUSH0 DUP4 ADD MSTORE PUSH2 0x1751 DUP2 PUSH2 0x1718 JUMP JUMPDEST SWAP1 POP SWAP2 SWAP1 POP JUMP JUMPDEST PUSH32 0x46616C6C6F20616C207472616E73666572697220546F6B656E42000000000000 PUSH0 DUP3 ADD MSTORE POP JUMP JUMPDEST PUSH0 PUSH2 0x178C PUSH1 0x1A DUP4 PUSH2 0x11FF JUMP JUMPDEST SWAP2 POP PUSH2 0x1797 DUP3 PUSH2 0x1758 JUMP JUMPDEST PUSH1 0x20 DUP3 ADD SWAP1 POP SWAP2 SWAP1 POP JUMP JUMPDEST PUSH0 PUSH1 0x20 DUP3 ADD SWAP1 POP DUP2 DUP2 SUB PUSH0 DUP4 ADD MSTORE PUSH2 0x17B9 DUP2 PUSH2 0x1780 JUMP JUMPDEST SWAP1 POP SWAP2 SWAP1 POP JUMP JUMPDEST PUSH32 0x412D3E4200000000000000000000000000000000000000000000000000000000 PUSH0 DUP3 ADD MSTORE POP JUMP JUMPDEST PUSH0 PUSH2 0x17F4 PUSH1 0x4 DUP4 PUSH2 0x11FF JUMP JUMPDEST SWAP2 POP PUSH2 0x17FF DUP3 PUSH2 0x17C0 JUMP JUMPDEST PUSH1 0x20 DUP3 ADD SWAP1 POP SWAP2 SWAP1 POP JUMP JUMPDEST PUSH0 PUSH1 0x60 DUP3 ADD SWAP1 POP DUP2 DUP2 SUB PUSH0 DUP4 ADD MSTORE PUSH2 0x1821 DUP2 PUSH2 0x17E8 JUMP JUMPDEST SWAP1 POP PUSH2 0x1830 PUSH1 0x20 DUP4 ADD DUP6 PUSH2 0x108B JUMP JUMPDEST PUSH2 0x183D PUSH1 0x40 DUP4 ADD DUP5 PUSH2 0x108B JUMP JUMPDEST SWAP4 SWAP3 POP POP POP JUMP JUMPDEST PUSH32 0x5265736572766173207661636961730000000000000000000000000000000000 PUSH0 DUP3 ADD MSTORE POP JUMP JUMPDEST PUSH0 PUSH2 0x1878 PUSH1 0xF DUP4 PUSH2 0x11FF JUMP JUMPDEST SWAP2 POP PUSH2 0x1883 DUP3 PUSH2 0x1844 JUMP JUMPDEST PUSH1 0x20 DUP3 ADD SWAP1 POP SWAP2 SWAP1 POP JUMP JUMPDEST PUSH0 PUSH1 0x20 DUP3 ADD SWAP1 POP DUP2 DUP2 SUB PUSH0 DUP4 ADD MSTORE PUSH2 0x18A5 DUP2 PUSH2 0x186C JUMP JUMPDEST SWAP1 POP SWAP2 SWAP1 POP JUMP INVALID LOG2 PUSH5 0x6970667358 0x22 SLT KECCAK256 0xAD SHR 0xFB SWAP12 PC 0x4D 0xFB 0x1F 0xE9 SWAP5 EXTCODESIZE PUSH16 0x8C887A60D0B5E1A1B19B22CB64F44921 PUSH29 0xFED26564736F6C63430008160033000000000000000000000000000000 "
				},
				"gasEstimates": {
					"creation": {
						"codeDepositCost": "1274000",
						"executionCost": "infinite",
						"totalCost": "infinite"
					},
					"external": {
						"addLiquidity(uint256,uint256)": "infinite",
						"getPrice()": "infinite",
						"owner()": "2626",
						"removeLiquidity(uint256,uint256)": "infinite",
						"renounceOwnership()": "infinite",
						"reserveA()": "2491",
						"reserveB()": "2448",
						"swapAforB(uint256)": "infinite",
						"swapBforA(uint256)": "infinite",
						"tokenA()": "infinite",
						"tokenB()": "infinite",
						"transferOwnership(address)": "infinite"
					},
					"internal": {
						"_getSwapOutput(uint256,uint256,uint256)": "infinite"
					}
				},
				"methodIdentifiers": {
					"addLiquidity(uint256,uint256)": "9cd441da",
					"getPrice()": "98d5fdca",
					"owner()": "8da5cb5b",
					"removeLiquidity(uint256,uint256)": "9d7de6b3",
					"renounceOwnership()": "715018a6",
					"reserveA()": "dc5fa6c5",
					"reserveB()": "19e36f3b",
					"swapAforB(uint256)": "e4f1f70a",
					"swapBforA(uint256)": "8014a7aa",
					"tokenA()": "0fc63d10",
					"tokenB()": "5f64b55b",
					"transferOwnership(address)": "f2fde38b"
				}
			},
			"storageLayout": {
				"storage": [
					{
						"astId": 8,
						"contract": "contracts/SimpleDex.sol:SimpleDEX",
						"label": "_owner",
						"offset": 0,
						"slot": "0",
						"type": "t_address"
					},
					{
						"astId": 264,
						"contract": "contracts/SimpleDex.sol:SimpleDEX",
						"label": "tokenA",
						"offset": 0,
						"slot": "1",
						"type": "t_contract(IERC20)225"
					},
					{
						"astId": 267,
						"contract": "contracts/SimpleDex.sol:SimpleDEX",
						"label": "tokenB",
						"offset": 0,
						"slot": "2",
						"type": "t_contract(IERC20)225"
					},
					{
						"astId": 269,
						"contract": "contracts/SimpleDex.sol:SimpleDEX",
						"label": "reserveA",
						"offset": 0,
						"slot": "3",
						"type": "t_uint256"
					},
					{
						"astId": 271,
						"contract": "contracts/SimpleDex.sol:SimpleDEX",
						"label": "reserveB",
						"offset": 0,
						"slot": "4",
						"type": "t_uint256"
					}
				],
				"types": {
					"t_address": {
						"encoding": "inplace",
						"label": "address",
						"numberOfBytes": "20"
					},
					"t_contract(IERC20)225": {
						"encoding": "inplace",
						"label": "contract IERC20",
						"numberOfBytes": "20"
					},
					"t_uint256": {
						"encoding": "inplace",
						"label": "uint256",
						"numberOfBytes": "32"
					}
				}
			},
			"userdoc": {
				"kind": "user",
				"methods": {},
				"version": 1
			}
		}
	}
}